:020000040800F2
:100000009851002045010008692600086B26000869
:100010006F260008732600087726000800000000FD
:100020000000000000000000000000007B26000827
:100030007D260008000000007F26000881260008B9
:100040005F0100085F0100085F0100085F01000810
:100050005F0100085F0100085F0100085F01000800
:100060005F0100085F0100085F0100085F010008F0
:100070005F0100085F0100085F0100085F010008E0
:100080005F0100085F0100085F0100085F010008D0
:100090005F0100085F0100085F0100085F010008C0
:1000A0005F0100085F0100085F0100085F010008B0
:1000B0005F0100085F0100085F0100085F010008A0
:1000C0005F0100085F0100085F0100085F01000890
:1000D0005F010008832600085F010008F52600087C
:1000E0005F0100085F0100085F0100085F01000870
:1000F0005F0100085F0100085F0100085F01000860
:100100005F0100085F0100085F0100085F0100084F
:100110005F0100085F0100085F0100085F0100083F
:100120005F0100085F0100085F0100085F0100082F
:10013000DFF80CD005F004FB00480047F524000868
:10014000985100200648804706480047FEE7FEE732
:10015000FEE7FEE7FEE7FEE7FEE7FEE7FEE7FEE777
:1001600047020008310100080CB500200190009002
:100170006C48006840F480306A49086000BF6948F4
:10018000006800F4003000900198401C0190009835
:1001900018B90198B0F5A06FF1D16248006800F479
:1001A000003010B10120009001E000200090009884
:1001B000012843D15C48006840F010005A490860AB
:1001C0000846006820F0030008600846006840F018
:1001D0000200086053484068524948600846406839
:1001E00048600846406840F48060486008464068BF
:1001F00020F47C1048600846406840F4E8104860ED
:100200000846006840F08070086000BF45480068FC
:1002100000F000700028F9D04248406820F0030048
:10022000404948600846406840F00200486000BF0E
:100230003C48406800F00C000828F9D10CBD10B50E
:10024000FFF792FF10BD10B53648006840F001007E
:1002500034490860084640683449084031494860DC
:1002600008460068324908402E4908600846006880
:1002700020F4802008600846406820F4FE004860B2
:100280004FF41F008860FFF7DAFF4FF00060294944
:10029000086010BD10B5002100200022214B5B68D2
:1002A00003F00C0121B1042906D0082928D107E068
:1002B000214B224C236027E01F4B204C236023E07E
:1002C000184B5B6803F47010164B5B6803F48032C4
:1002D000022303EB904022B9194B4343174C236090
:1002E0000DE0104B5B6803F4003323B1144B434320
:1002F000124C236003E0104B4343104C236003E097
:100300000D4B0E4C236000BF00BF064B5B68C3F370
:1003100003130C4CE15C094B1B68CB40074C23607A
:1003200010BD000000100240002002400000FFF855
:10033000FFFFF6FE08ED00E000127A00000000204A
:1003400000093D000400002031490143314A116099
:10035000704770B5002100230F22C47804B32D4CE0
:10036000246804F4E064C4F5E064210AC1F10403E4
:10037000CA40447804FA03F1847814402143090107
:10038000254C0678A155047804F01F050124AC40E3
:1003900005786D11AD0005F1E025C5F8004109E0D3
:1003A000047804F01F050124AC401C4D067876113A
:1003B00045F8264070BD1A4A0A400243154B1B1FE0
:1003C0001A60704739B1134A121D12680243114B6B
:1003D0001B1D1A6006E00F4A121D126882430D4B66
:1003E0001B1D1A607047042808D14FF0E0210969ED
:1003F00041F004014FF0E022116107E04FF0E021ED
:10040000096921F004014FF0E022116170470000FA
:100410000000FA050CED00E000E400E080E100E0FF
:1004200080FFFF1F10B50446FA48844208D101211D
:10043000401501F013FA0021601501F00FFA17E0E2
:10044000F548844208D10121001501F007FA002186
:10045000201501F003FA0BE0F048844208D1012195
:10046000C80301F0FBF900214FF4004001F0F6F958
:1004700010BD30B50246002000235068E84C2040F3
:100480000D790C6844EA0524204350609068E54CDF
:100490002040D1E902542C434D7944EA45042043DD
:1004A0009060D06A20F470000C7C641EE4B2234398
:1004B00040EA0350D06230BD0021016001714171FA
:1004C0008160C16001210174704721B1826842F0EE
:1004D0000102826003E0826822F0010282607047BC
:1004E00021B1826842F48072826003E0826822F463
:1004F00080728260704710B50023CBB21AB1446895
:100500001C43446002E044689C43446010BD816821
:1005100041F0080181607047014600208A6802F0BE
:1005200008020AB1012000E000207047816841F014
:10053000040181607047014600208A6802F00402CD
:100540000AB1012000E00020704721B1826842F426
:10055000A002826003E0826822F4A00282607047F9
:10056000014600208A6802F480020AB1012000E0FE
:100570000020704710B50A4600210023416821F48D
:100580006041531E41EA4331416010BD21B14268D0
:1005900042F40062426003E0426822F4006242607A
:1005A0007047F0B504460D4600200021092D11DDED
:1005B000E068A5F10A0606EB4607072606FA07F1EA
:1005C0008843A5F10A0606EB460603FA06F108433E
:1005D000E0600CE0206905EB4507072606FA07F105
:1005E000884305EB450603FA06F108432061072A14
:1005F0000FDA606B561E06EB86071F2606FA07F118
:100600008843561E06EB860605FA06F1084360632A
:1006100022E00D2A0FDA206BD61F06EB86071F2675
:1006200006FA07F18843D61F06EB860605FA06F19F
:100630000843206310E0E06AA2F10D0606EB86078E
:100640001F2606FA07F18843A2F10D0606EB86067F
:1006500005FA06F10843E062F0BD21B1826842F478
:100660008012826003E0826822F480128260704708
:100670000146C86C80B2704766484C3000687047CD
:1006800021B1426842F48062426003E0426822F491
:1006900080624260704721B1426842F480524260F9
:1006A00003E0426822F48052426070470A4600210B
:1006B000816821F4E04111438160704721B1826873
:1006C00042F40042826003E0826822F400428260C9
:1006D000704721B1826842F40212826003E08268AE
:1006E00022F4021282607047014600208A6802F4F8
:1006F00000120AB1012000E000207047F0B5044666
:100700001546002000220026092911DDE068A1F12C
:100710000A0707EB470C072707FA0CF29043A1F1F1
:100720000A0707EB470703FA07F21043E0600CE003
:10073000206901EB410C072707FA0CF2904301EB0B
:10074000410703FA07F210432061A06BC0F3015682
:10075000EF1C06F1010CA7EB0C0707EB870C1F271A
:1007600007FA0CF29043EF1C06F1010CA7EB0C0703
:1007700007EB870701FA07F21043A063F0BD10B53D
:100780000A4600210023816B21F44011531E41EAE7
:100790000351816310BD08B5002300930090009BB6
:1007A0000B440093009B1A6008BD08B50246002068
:1007B0000090009201F12800009B184400900098DE
:1007C000006880B208BD0A4600214168164B1940F6
:1007D0001143416070474162826270470A460021BE
:1007E000416821F01F0111434160704740B1094940
:1007F0000831096841F40001064A0832116007E037
:1008000004490831096821F40001024A08321160E4
:10081000704700000024014000280140003C0140D6
:10082000FFFEF0FFFDF7F1FFFFFD3FFF0246002056
:1008300013680B400BB1012000E000207047CA4351
:100840000260704770B502460020002300240B129E
:100850005568CEB205EA060415681D4015B10CB105
:10086000012000E0002070BD00220A12D343036083
:100870007047000001684FF6FE72114001600021D0
:10088000016041608160C1608D49884208D18C4916
:100890000839496841F00F01894A083A51608AE0F5
:1008A00087491431884208D185490839496841F09F
:1008B000F001834A083A51607DE08149283188423D
:1008C00008D17F490839496841F470617C4A083A87
:1008D000516070E07A493C31884208D17849083942
:1008E000496841F47041764A083A516063E07449BE
:1008F0005031884208D172490839496841F4702161
:100900006F4A083A516056E06D496431884208D117
:100910006B490839496841F47001694A083A5160E5
:1009200049E067497831884208D165490839496802
:1009300041F07061624A083A51603CE06149884286
:1009400006D1011F096841F00F01021F116032E05A
:100950005C491431884208D15A49091F096841F09D
:10096000F001584A121F116025E05649283188428B
:1009700008D15449091F096841F47061514A121F96
:10098000116018E04F493C31884208D14D49091F98
:10099000096841F470414B4A121F11600BE049494C
:1009A0005031884207D14749091F096841F4702135
:1009B000444A121F1160704710B50022026847F6C2
:1009C000F0739A430C6A8B6823430C6923434C6988
:1009D00023438C692343CC6923434C6A23438C6AA9
:1009E00023431A430260CB6843600B6883604B6803
:1009F000C36010BD0021016041608160C160016180
:100A000041618161C161016241628162704721B1CE
:100A1000026842F00102026004E002684FF6FE73D1
:100A20001A40026070471AB103680B43036002E08A
:100A300003688B4303607047416070470146486814
:100A400080B2704701460020002201F080531BB1A4
:100A50001C4B083B1A6802E0194B083B1A6802EA73
:100A600001030BB1012000E00020704700F080512D
:100A700019B11449091F086002E01149083948609A
:100A8000704701460020002201F080531BB10D4B3E
:100A9000083B1A6802E00A4B083B1A6802EA0103A5
:100AA0000BB1012000E00020704700F0805119B127
:100AB0000449091F086002E001490839486070478D
:100AC0000800024008040240002044490860091D53
:100AD0000860091D0860091D086041483F4914313C
:100AE0000860704700213D498279002A3AD00A46C1
:100AF000126803689A430B461A600A1D126803685D
:100B00009A430B1D1A60027911440A6803681A435C
:100B10000A60324A0832126803689A432F4B08333E
:100B20001A601A1D126803689A432C4B0C331A6022
:100B30004279102A0ED11A1F126803681A43274BF4
:100B400008331A601A1D126803681A43234B0C33CA
:100B50001A600DE02149427911440A6803681A437A
:100B60000A6005E0027911440A6803689A430A6042
:100B700070470021016001710C21417100218171D8
:100B800070471649103109680143144A1032116048
:100B9000704701460020114A143212680A400AB117
:100BA000012000E0002070470C49143108607047B4
:100BB000014600200022094B1B6803EA0102074B93
:100BC00014331B680B4013B10AB1012000E0002070
:100BD000704702491431086070470000000401406A
:100BE000FFFF0F0030B943F2DB028100A1F1C041E9
:100BF0000A6005E043F2D2028100A1F1C0410A601F
:100C00006FF07042411C8900A1F1C0410A6081006F
:100C1000A1F1C041C1F80421704710280AD1182160
:100C20004FF020421166402151664FF0FC31916631
:100C3000D16610E01821F74A116040214FF02042A0
:100C4000C2F884104FF0FC31F24A083211604FF0C4
:100C50002042C2F88C1070471820EE4920310860FD
:100C600000200906C1F8A4004FF0FC30E949283102
:100C70000860091D0860091D08607047D0E901126D
:100C80001143C268114302691143426911438269E9
:100C90001143C2691143026A1143426A1143826AD5
:100CA0001143C26A1143026B114302689200A2F120
:100CB000C0421160816808290BD101688900A1F147
:100CC000C041096841F0400201688900A1F1C041BA
:100CD0000A60416B0968426B526841EA0211426B3B
:100CE000926841EA0221426B928941EA0241426BD9
:100CF000128A41EA0251426B127D41EA0261426B63
:100D0000926911430268521C9200A2F1C042116024
:100D1000C16AB1F5804F1BD1816B0968826B526843
:100D200041EA0211826B926841EA0221826B128AC7
:100D300041EA0251826B127D41EA0261826B926943
:100D4000114302689200A2F1C042C2F8041107E008
:100D50006FF0704201688900A1F1C041C1F804211F
:100D6000704730B5002100220023446844F0080495
:100D700085682C43C5682C4305692C43456944EAC2
:100D80004524856944EA4531C4692468C5696D68AC
:100D900044EA0524C5692D8944EA0544C5692D7BCB
:100DA00044EA0562046A2468056A6D6844EA052419
:100DB000056A2D8944EA0544056A2D7B44EA0563EA
:100DC0000468102C05D14FF020442166A266E3662A
:100DD00008E0904C21604FF02044C4F888208D4CEE
:100DE0000C34236030BD016841F01001426841EAD3
:100DF0004221826841EA4231864A20321160C1684C
:100E00000968C268526841EA0221C268128941EA4F
:100E10000241C268127B41EA02617E4A28321160B7
:100E2000016909680269526841EA0221026912896E
:100E300041EA02410269127B41EA0261754A2C32A1
:100E40001160416909684269526841EA02214269B8
:100E5000128941EA02414269127B41EA02614FF084
:100E60002042C2F8B01070470021016002214160A9
:100E700000218160C160016141618161C1610162E4
:100E80004FF480514162490081620021C1620163D7
:100E90000F21426B1160426B5160FF21426B9160E8
:100EA0000F21426BD160426B1161426B5161002195
:100EB000426B91610F21826B1160826B5160FF2147
:100EC000826B91600F21826BD160826B1161826BAA
:100ED00051610021826B91617047102101600021F6
:100EE00041608160C160016141618161FC21C26931
:100EF0001160C2695160C2699160C269D160026AC1
:100F00001160026A5160026A9160026AD1607047A2
:100F10000021016041608160FC21C2681160C268EB
:100F20005160C2689160C268D16002691160026953
:100F30005160026991600269D16042691160426941
:100F40005160426991604269D160704751B182003D
:100F5000A2F1C042126842F001038200A2F1C04235
:100F6000136009E08200A2F1C04212682A4B1A40C5
:100F70008300A3F1C0431A60704799B1102808D1CB
:100F80004FF02042126E42F004024FF020431A66E6
:100F90001DE0204A126842F004024FF02043C3F8DB
:100FA000802014E0102809D14FF02042126E1A4B15
:100FB000DB1E1A404FF020431A6608E0154A1268FB
:100FC000154BDB1E1A404FF02043C3F880207047BA
:100FD00048B110492031096841F004014FF0204226
:100FE000C2F8A01009E00B49203109680A4AD21E54
:100FF00011404FF02042C2F8A0107047B9B110283C
:101000000CD14FF02042126E42F040024FF02043CC
:101010001A661FE0800000A0FEFF0F00724A1268EF
:1010200042F040024FF02043C3F8802012E0102825
:1010300008D14FF02042126E6C4B1A404FF0204303
:101040001A6607E0684A1268684B1A404FF020435E
:10105000C3F88020704701460020102903D14FF0CB
:101060002042506F02E0604A14321068704710B599
:10107000F2B1102807D14FF020435B6E0B434FF0C5
:101080002044636632E0B0F5807F08D1564B1B1DCB
:101090001B680B434FF02044C4F8843026E0524BC9
:1010A00024331B680B434FF02044C4F8A4301DE0E8
:1010B000102807D14FF020435B6E8B434FF0204444
:1010C000636613E0B0F5807F08D1474B1B1D1B689A
:1010D0008B434FF02044C4F8843007E0424B243364
:1010E0001B688B434FF02044C4F8A43010BD10B5EA
:1010F000024600200023102A03D14FF02044636EE3
:1011000009E0B2F5807F03D1374C241D236802E04B
:10111000354C2434236803EA01040CB1012000E0BB
:10112000002010BD102807D14FF02042526E8A4394
:101130004FF020435A6613E0B0F5807F08D12A4A69
:10114000121D12688A434FF02043C3F8842007E041
:10115000254A243212688A434FF02043C3F8A42062
:10116000704770B502460020002300240025102A95
:1011700003D14FF02046736E09E0B2F5807F03D1B2
:10118000194E361D336802E0174E2436336803EAE1
:10119000010403EAD10514B10DB1012000E00020E3
:1011A00070BD102808D14FF02042526E22EAD102C1
:1011B0004FF020435A6615E0B0F5807F09D10A4A06
:1011C000121D126822EAD1024FF02043C3F8842096
:1011D00008E0054A2432126822EAD1024FF0204387
:1011E000C3F8A42070470000800000A0BFFF0F00DC
:1011F00010B50446CC48844208D10121042000F0F7
:101200002DFB0021042000F029FB46E0C748844262
:1012100008D10121082000F021FB0021082000F066
:101220001DFB3AE0C248844208D10121102000F0A1
:1012300015FB0021102000F011FB2EE0BD48844278
:1012400008D10121202000F009FB0021202000F01E
:1012500005FB22E0B848844208D10121402000F07B
:10126000FDFA0021402000F0F9FA16E0B34884426C
:1012700008D10121802000F0F1FA0021802000F047
:10128000EDFA0AE0AE48844207D10121801500F052
:10129000E5FA0021A01500F0E1FA10BD10B501211A
:1012A000084600F0DBFA0021012000F0D7FA10BD5B
:1012B0002DE9F041024600250026002000230024ED
:1012C000002791F803C00CF00F0591F803C00CF053
:1012D000100CBCF1000F03D091F802C04CEA0505D8
:1012E00091F800C0BCF1000F31D0146800202BE051
:1012F0004FF0010C0CFA00F3B1F800C00CEA030641
:101300009E4220D183004FF00F0C0CFA03F7BC4330
:1013100005FA03FC4CEA040491F803C0BCF1280F61
:1013200006D14FF0010C0CFA00FCC2F814C00AE020
:1013300091F803C0BCF1480F05D14FF0010C0CFA35
:1013400000FCC2F810C0401C0828D1D31460B1F8CA
:1013500000C0BCF1FF0F34DD546800202EE000F126
:10136000080C4FF0010808FA0CF3B1F800C00CEAC1
:1013700003069E4221D183004FF00F0C0CFA03F7B5
:10138000BC4305FA03FC4CEA040491F803C0BCF129
:10139000280F05D100F1080C08FA0CF8C2F81480E7
:1013A00091F803C0BCF1480F07D100F1080C4FF0D1
:1013B000010808FA0CF8C2F81080401C0828CED3A7
:1013C0005460BDE8F0814FF6FF7101800221817009
:1013D0000421C17070470246002093680B400BB196
:1013E000012000E0002070470146886880B2704705
:1013F00002460020D3680B400BB1012000E0002022
:1014000070470146C86880B270470161704741610A
:1014100070470AB1016100E041617047C1607047E7
:101420004FF480320A4382618161826182698269FC
:10143000704702460020434B18684FF680731840EF
:1014400040EA021008433F4B186070473E49C861AC
:101450007047F0B50A46002300240021002500F063
:101460000046B6F1004F02D1364EF16901E0354E2B
:101470007168C0F3034583B200F44016B6F5401F0F
:1014800008D121F070612F4E766826F070662D4FDE
:101490007E6012E000F48016B6F5801F06D10326A8
:1014A00006FA05F4A14341F0706106E0460D3601ED
:1014B00003FA06F6B14341F0706122B1460D3601E0
:1014C00003FA06F6314300F00046B6F1004F02D1B0
:1014D0001C4EF16101E01B4E7160F0BD30B5002281
:1014E0008B071C0F0F2303FA04F2164B08338C10E2
:1014F00053F824309343134C08348D1044F82530AE
:1015000023468C1053F824308C07240F00FA04F47F
:1015100023430C4C08348D1044F8253030BD0A4963
:10152000DC3108607047000000080140000C0140F9
:10153000001001400014014000180140001C01404F
:10154000002001400000014000002042DF48006808
:1015500040F00100DD49086008464068DC49084069
:10156000DA49486008460068DA490840D749086007
:101570000846006820F4802008600846406820F48F
:10158000FE0048604FF41F0088607047CF4909682B
:1015900021F48031CD4A11601146096821F480217F
:1015A0001160B0F5803F03D0B0F5802F0ED106E07A
:1015B000C649096841F48031C44A116007E0C34953
:1015C000096841F4A021C14A116000E000BF00BFDA
:1015D000704710B501460022002300204A11012A5D
:1015E00002D1BA4C236806E0022A02D1B74C236A22
:1015F00001E0B64C636A01F01F02012494401C40D4
:101600000CB1012000E0002010BD38B50020009092
:101610000024002500BF3120FFF7DBFF05460098BE
:10162000401C00900098B0F5A06F01D0002DF2D0C2
:101630003120FFF7CEFF08B1012400E0002420464E
:1016400038BD01460020A14A106820F0F80040EAA9
:10165000C10010607047A049086070470246002032
:101660009A4B586820F47C1042EA01031843974BC8
:101670005860704798490866704701460020934AB1
:10168000506820F003000843506070478F4840685E
:1016900000F00C007047014600208C4A506820F092
:1016A000F00008435060704701460020874A5068A8
:1016B00020F4E06008435060704701460020834AF0
:1016C000506820F4605040EAC1005060704729B172
:1016D0007E4A527A02437D4B5A7204E07B4A527A28
:1016E00082437A4B5A7270477B49D8310860704701
:1016F00001460020754A506820F44040084350607D
:1017000070470021714A20321170704A82F820100F
:10171000012802D004280AD104E001216B4A2032BA
:10172000117005E00521694A2032117000E000BF08
:1017300000BF70476949086070476449096A0143FE
:10174000624A11627047654944390860704730B594
:1017500000210022002400235C4D6D6805F00C017F
:1017600021B1042905D0082923D105E05C4D05608D
:1017700022E05B4D05601FE0544D6D6805F470126A
:10178000524D6D6805F48034022505EB92421CB978
:10179000544D554305600BE04C4D6D6805F4003524
:1017A0001DB1504D5543056002E04D4D5543056058
:1017B00002E04B4D056000BF00BF444D6D6805F071
:1017C000F0010909484D6B5C0568DD4045603F4DFF
:1017D0006D6805F4E061090A434D6B5C4568DD40C6
:1017E00085603A4D6D6805F46051C90A3E4D6B5CE9
:1017F0004568DD40C560354D6D6805F44041890B95
:101800003A4D6B5CC568B5FBF3F5056130BD29B198
:101810002E4A526902432D4B5A6104E02B4A526909
:1018200082432A4B5A61704729B1284A9269024380
:10183000264B9A6104E0254A92698243234B9A61C0
:10184000704729B1214AD2690243204BDA6104E092
:101850001E4AD26982431D4BDA61704729B11B4A87
:10186000D2680243194BDA6004E0184AD268824316
:10187000164BDA60704729B1144A12690243134BC0
:101880001A6104E0114A12698243104B1A617047D1
:1018900012494039086070470F49C86470470B49C6
:1018A000C87170470948406A40F080700749486233
:1018B000704701460020054A92680A400AB101209B
:1018C00000E0002070470149887270470010024014
:1018D0000000FFF8FFFFF6FE000042428004424293
:1018E00000127A0000093D001400002024000020AE
:1018F00010B50446BE48844208D101218014FFF788
:10190000ADFF0021A014FFF7A9FF16E0B9488442FB
:1019100008D101210014FFF7AEFF00212014FFF7CA
:10192000AAFF0AE0B448844207D10121C013FFF79F
:10193000A2FF0021E013FFF79EFF10BD10B50022AB
:10194000028802F441520B884C8823438C8823433D
:10195000CC8823430C8923434C8923438C8923431C
:10196000CC8923431A430280838B4FF2FF742340B8
:1019700083830B8A038210BD2DE9F04F85B00546A5
:101980000C464FF0000902274FF000084FF0010B02
:101990000026B246A88B4FF240010840A8830220DF
:1019A0002884B5F81C90A068022801D100BF38E057
:1019B000A08810B94FF0010B01E04FF0020B8D48E9
:1019C000854200D100E000BF6846FFF7C0FEDDF8A9
:1019D00000A0E088B0F5007F0AD14FEA1A2000EBA2
:1019E00080004000A168B0FBF1F0401D86B20BE022
:1019F0004FEA4B10BAFBF0F000EB80004000A1680A
:101A0000B0FBF1F0401D86B20A20B6FBF0F606F0FE
:101A10000108A6EB0800C0F34F074FF6FF7000EA7D
:101A20000828022F01DBFF2F02DD02274FF00008FC
:101A3000E08840EA080038432884A088A189084348
:101A4000618808432188084340F4006040EA09099E
:101A5000A5F81C9005B0BDE8F08F00210180418001
:101A60008180C180018141818181C1810721018201
:101A700070470021018041808180C1800221816006
:101A800000218181704721B1028842F0400202802A
:101A900004E002884FF6BF731A400280704721B1FC
:101AA000828B42F48062828304E0828B4FF6FF33A4
:101AB0001A408283704730B5002400230C110125A1
:101AC000A540ABB21AB185881D43858002E08588A8
:101AD0009D43858030BD1AB183880B43838002E02B
:101AE00083888B4383807047818170470146888952
:101AF00070474FF6FF62914204D0028842F4807230
:101B0000028004E002884FF6FF631A4002807047AB
:101B100021B1828842F00402828004E082884FF67C
:101B2000FB731A408280704702884FF2FF731A409D
:101B3000028002880A4302807047018841F4805184
:101B40000180704721B1028842F40052028004E013
:101B500002884DF6FF731A4002807047024600204B
:101B6000012901D0108B00E0908A70470146088A55
:101B70007047B1F5804F04D1028842F48042028060
:101B800004E002884BF6FF731A4002807047024659
:101B9000002013890B400BB1012000E000207047AA
:101BA000CA4302817047F0B502460020002400239A
:101BB000002501F00F070126BE40B4B20B1101262B
:101BC0009E40B3B2968806EA03051689264016B1F0
:101BD0000DB1012000E00020F0BD10B5002201F0A1
:101BE0000F040123A3409AB2D343038110BD000028
:101BF0000030014000380040003C004010B5044671
:101C0000FB48844209D101218803FFF727FE002108
:101C10004FF48040FFF722FE32E0F648844209D1BB
:101C200001214804FFF727FE00214FF40030FFF7A1
:101C300022FE25E0F048844209D101218804FFF703
:101C40001AFE00214FF48020FFF715FE18E0EB4844
:101C5000844209D10121C804FFF70DFE00214FF491
:101C60000020FFF708FE0BE0E548844208D101217F
:101C70000805FFF700FE00214FF48010FFF7FBFD81
:101C800010BD2DE9F04786B005460E460024A24659
:101C900000BFA1460027B08900B100BF2F462C8AA3
:101CA0004CF6FF700440F08804432C82AC894EF659
:101CB000F3100440B0883189084371890843044314
:101CC000AC81AC8A4FF6FF400440B0890443AC823B
:101CD00001A8FFF73CFDC648874202D1DDF810A0FD
:101CE00001E0DDF80CA0A88900F4004040B10AEB47
:101CF000CA0000EB0A1031684900B0FBF1F807E0B8
:101D00000AEBCA0000EB0A1031688900B0FBF1F859
:101D10006420B8FBF0F004012009642101FB108964
:101D2000A88900F4004040B1322000EBC900B0FBAC
:101D3000F1F000F00700044308E0322000EB091046
:101D40006421B0FBF1F000F00F0004432C8106B0D9
:101D5000BDE8F0874FF41651016000218180C180F9
:101D600001810C21418100218181704710B502461B
:101D70000020108A4FF2FF0318400B884C88234341
:101D80008C882343CC8823431843108210BD002144
:101D9000018041808180C180704721B1828942F4F5
:101DA0000052828104E082894DF6FF731A408281DD
:101DB0007047F0B50346002400260025002040F6B9
:101DC0006A17B94200D100BF1846C1F3421401F0AE
:101DD0001F06012707FA06F5012C01D10C3004E09B
:101DE000022C01D1103000E014301AB107682F43E3
:101DF000076002E00768AF430760F0BD1AB1838A4D
:101E00000B43838202E0838A8B4383827047028A7A
:101E10004FF6F0731A400282028A0A430282704728
:101E200082894FF2FF731A40828182890A4382813C
:101E3000704721B1828942F00202828104E08289E6
:101E40004FF6FD731A4082817047028A4FF6DF73A6
:101E50001A400282028A0A430282704721B1028A32
:101E600042F48042028204E0028A4BF6FF731A4079
:101E700002827047C1F30802828070470146888859
:101E8000C0F308007047818941F0010181817047EA
:101E9000028BD2B20283028B42EA01220283704794
:101EA000028B02F47F420283028B0A430283704753
:101EB00021B1828A42F02002828204E0828A4FF6B7
:101EC000DF731A408282704721B1828A42F0100289
:101ED000828204E0828A4FF6EF731A408282704752
:101EE00021B1828A42F00802828204E0828A4FF69F
:101EF000F7731A408282704721B1828942F400420E
:101F0000828103E08289C2F30E028281704721B18F
:101F1000828A42F40062828204E0828A4FF2FF7376
:101F20001A4082827047828A4FF6FB731A4082827F
:101F3000828A0A438282704721B1828A42F0020279
:101F4000828204E0828A4FF6FD731A4082827047D3
:101F500002460020B1F5007F00D100BF13880B407E
:101F60000BB1012000E00020704701F40072B2F5CF
:101F7000007F00D100BFCA430280704770B502469F
:101F8000002400230025002040F66A16B14200D14B
:101F900000BFC1F3421501F01F03012606FA03F347
:101FA000012D02D19689334006E0022D02D1168A16
:101FB000334001E0968A33400C12012606FA04F4FD
:101FC0001688344013B10CB1012000E0002070BD30
:101FD00010B50022002340F66A14A14200D100BFD0
:101FE0000A1201249440A3B2DC43048010BD000017
:101FF000003801400044004000480040004C0040D0
:102000000050004001B502E00098401E009000988A
:102010000028F9D108BD30B599B0F648D0E904419F
:10202000F5480CC8204603F077FA32D201F026FFBB
:10203000C0880005040C204601F035FF4FF4FC6019
:1020400001F02BFFEB48D0E904432246EBA16846A0
:1020500003F0FAFB01F012FFC08800EBC00084B26D
:10206000204601F020FF01F009FFC08800EBC0000E
:1020700084B26946204601F02FFC2020E549086023
:102080000020E54908604FF48071E448FFF7BFF98C
:1020900037E04FF4784001F000FFD648D0E9044320
:1020A0002246D6A1684603F0CFFB01F0E7FEC088C8
:1020B00000EBC00084B2204601F0F5FE01F0DEFE28
:1020C000C08800EBC00084B26946204601F004FCE1
:1020D00001F0D4FEC0880005040CD1A1204601F017
:1020E000FBFB2020CB49091D08600120091F086067
:1020F000022008600120C84908600102C748FFF7B4
:1021000084F919B030BD2DE9FC47044617469846BE
:10211000D4E908532A46D4E90091484603F04DF823
:10212000C4E90201D4E90A532A46D4E90291484697
:1021300003F043F8CDE9000102460B46D4E902560C
:102140002846314603F052F9C4E90601D4E90453A4
:102150002A463846414603F0D1F88146D4E9065371
:102160002A4603F0D1F8CDE90001D4E904532A4608
:1021700003F023F8C4E90401D4E906532A460020F9
:10218000AF4903F0BBF88146D4E902532A4603F075
:10219000BBF8C4E90001D4E90401BDE8FC872DE9DE
:1021A000FC5FA849888803F090F9064632460B4642
:1021B000A548FFF7A8FF044603F094F9A1498880D9
:1021C000C88803F082F9064632460B469E48FFF760
:1021D0009AFF044603F086F99A49C880088903F0FB
:1021E00074F9064632460B469748FFF78CFF0446C3
:1021F00003F078F993490881888803F066F9064668
:102200000022924B03F0F2F804464FF06632904BF6
:1022100003F07AF88F4AC2E904018A49C88803F0BA
:1022200054F906460022894B03F0E0F804464FF0CB
:102230006632874B03F068F8864AC2E90601814995
:10224000088903F042F906460022804B03F0CEF8DD
:1022500004464FF066327E4B03F056F87D4AC2E9E1
:10226000080110464FF06632794BD0E904613046E0
:1022700003F0BCF8804604F0A9F904460022764B2E
:1022800003F042F88246754A754B03F037F8024670
:102290000B46CDE900010020724904F009FA554AC5
:1022A000C2E90401BDE8FC9F70B501F0E7FDC088FC
:1022B00000EB400084B26CA1204601F00DFB4FF40E
:1022C000FC6001F0EAFD4C486EA10CC8724803F0B6
:1022D000BBFA01F0D3FDC08800EB40004004040CC1
:1022E000204601F0E0FD01F0C9FDC08800EB400090
:1022F0004004040C6849204601F0EEFA4FF4FC60FB
:1023000001F0CBFD654866A10CC86A4803F09CFA51
:1023100001F0B4FDC088C0EBC00084B2204601F0DB
:10232000C2FD01F0ABFDC088C0EBC00084B26149C2
:10233000204601F0D1FA4FF4FC6001F0AEFD2D48CB
:10234000D0E9044322465CA1614803F07DFA01F024
:1023500095FDC08800EBC00084B2204601F0A3FDCB
:1023600001F08CFDC08800EBC00084B258492046C3
:1023700001F0B2FA4FF4FC6001F08FFD1D48D0E986
:102380000643224653A1584803F05EFA01F076FD59
:10239000C08800EB80004004040C204601F083FD5F
:1023A00001F06CFDC08800EB80004004040C4E4935
:1023B000204601F091FA01F061FDC08800EB800138
:1023C00001EBC00084B2204601F06DFD70BD00211C
:1023D0001B481D4AC2E900109160D1601161516132
:1023E00000209061D0611162516240494048C2E9C9
:1023F0000A107047280100202800002048796472E4
:102400006F67656E20434F4E433A202567207070FA
:102410006D000000100C0140380000200008014051
:102420002020202020A3A1A3A1A3A15741524E49BF
:102430004E4720A3A1A3A1A3A120202000000000BB
:102440000000F03F88010020A00000200000B04004
:1024500066660A40F8000020000004C0CDCCCCCC59
:10246000CCCCF43F00002440487964726F67656EFD
:1024700020646574656374696F6E20737973746525
:102480006D000000434F4E43205448523A256720C8
:1024900070706D2000000000D0000020300000208F
:1024A0006C65616B61676520726174652054485288
:1024B0003A256700DA000020487964726F67656E1C
:1024C00020434F4E433A25672070706D2000000076
:1024D000E40000204C65616B616765207261746582
:1024E0003A25672000000000EE0000207B14AE4774
:1024F000E17A843F86B002F077FD00F014FA02F032
:10250000BCFD02F07FFC00F0EDF901F0D1FFFFF718
:102510005EFF00F0B6FE062000F02AFE314801F012
:10252000AAFC00214FF6FF7001F0ABFC2E48038897
:102530002E4802880021084600F0FEFEFFF7B4FE98
:102540001BE0FFF72CFEFFF766FD2949D1E90801E2
:10255000CDE904012649D1E90601CDE9020125486A
:10256000006800902448D0E90443224623A003F0E9
:102570005BF96FF07F40FFF745FDE2E770B59AB079
:102580001D48D0E904532A4620A101A803F05CF9B4
:102590000523002201A9012002F051FB2548007803
:1025A000F0B102F040FB00BF02F09FFA0446002C9D
:1025B000FAD0042C0FD100BF1FA122A002F015F900
:1025C0000028F9D000BF052321A223A1002002F09A
:1025D00049F90028F7D000BF02F010FB0028FBD01B
:1025E0001AB070BD580000204600002044000020B2
:1025F000F800002038000020280100202566202552
:1026000064202566202566200D0A00004879647242
:102610006F67656E20636F6E63656E747261746957
:102620006F6E206973203A2025672070706D200D31
:102630000A000000940000205A7966303632332EAA
:102640002E000000496D7061727420333033000039
:1026500032363638000000003139322E3136382E0D
:1026600033312E3237000000704700BFFEE700BF55
:10267000FEE700BFFEE700BFFEE770477047704708
:10268000704710B540F225513C48FFF777FCD8B1B0
:102690003A48FFF7F3FBC4B23948B0F80004C0F37E
:1026A0000E0040F2FF3188420EDA3549B1F80014CD
:1026B000C1F30E00411C324AB2F8002461F30E024D
:1026C0002F49A1F800240C5440F224412B48FFF775
:1026D00055FC01280DD12A48B0F8000420F4004030
:1026E00000F500402649A1F800042448FFF7C6FB86
:1026F000C4B210BD10B540F225512248FFF73EFC90
:10270000D8B12048FFF7BAFBC4B21F48B0F80004A4
:10271000C0F30E0040F2FF3188420EDA1A49B1F8D8
:102720000014C1F30E00411C174AB2F8002461F3F3
:102730000E021549A1F800240C5440F2244111481E
:10274000FFF71CFC012817D10F48B0F8000420F453
:10275000004000F500400C49A1F800040948FFF7CB
:102760008DFBC4B209A1084802F015FD08B1012093
:1027700000E000200849087010BD0000003801404A
:10278000964900200048004094450020434C4F5398
:1027900045440D0A000000009400002008B5012106
:1027A0001020FFF741F83F20ADF8000000208DF821
:1027B000030069464E48FEF77BFD08BD00B591B0A9
:1027C00001210846FFF723F801214802FFF72CF802
:1027D0004848FEF74FF848480690484807900020C0
:1027E00008900620099000200A9080200B9040005D
:1027F0000C9080000D9020200E9000020F90002081
:10280000109006A93B48FEF7D7F801213948FEF79A
:10281000FEF80020019001208DF808008DF80900D5
:102820004FF4602003900020049006208DF81400DF
:1028300001A931484C38FDF71CFE4FF44040FEF72B
:1028400057FF052301220A212B484C38FDF7A9FE2A
:10285000052302220B2128484C38FDF7A2FE052350
:1028600003220C2124484C38FDF79BFE052304224B
:102870000D2121484C38FDF794FE05231A460E2100
:102880001D484C38FDF78DFE052306220F211A48FE
:102890004C38FDF786FE012117484C38FDF720FE25
:1028A000012115484C38FDF710FE13484C38FDF750
:1028B0002EFE00BF10484C38FDF72EFE0028F9D13F
:1028C0000D484C38FDF732FE00BF0B484C38FDF781
:1028D00032FE0028F9D1012107484C38FDF735FEBA
:1028E00011B000BD10B5FFF759FFFFF767FF10BD2E
:1028F00000100140080002404C24014088010020E3
:1029000008B54FF4A060FDF71FFD25208DF80000ED
:1029100001208DF801008DF802008DF80300684653
:10292000FDF717FD08BD00B585B001210420FEF7B5
:102930007BFF01218803FEF777FF4FF40070ADF8AD
:10294000100018208DF8130003208DF8120004A940
:102950005248FEF7ADFC4FF48060ADF81000042043
:102960008DF8130004A94D48FEF7A2FC4FF4E130A6
:1029700000900020ADF80400ADF80600ADF80800A6
:10298000ADF80C000C20ADF80A0069464448FFF78A
:1029900078F9FFF7B5FF012240F225514048FFF7D3
:1029A00008FA01213E48FFF7F8F905B000BD70B5FF
:1029B00004460D4629462046FFF75CFA00BF8021F9
:1029C0002046FFF7C5FA0028F9D070BD2DE9F04187
:1029D00007460D461646002405E0295D3846FFF7F8
:1029E000E6FF601CC4B2B442F7DB00BF40213846AA
:1029F000FFF7AEFA0028F9D0BDE8F08170B50646C1
:102A00000C46002500BF615D3046FFF7D0FF6D1C0E
:102A1000605D0028F7D100BF40213046FFF798FAEB
:102A20000028F9D070BD2DE9F04105460C46260A74
:102A3000E7B231462846FFF71DFA00BF802128463D
:102A4000FFF786FA0028F9D039462846FFF712FA30
:102A500000BF80212846FFF77BFA0028F9D0BDE8A7
:102A6000F08170B504460D46E1B20D48FFF702FA59
:102A700000BF80210A48FFF76BFA0028F9D02046F2
:102A800070BD10B5044600BF20210548FFF760FA6D
:102A90000028F9D00248FFF7F1F910BD0008014005
:102AA0000038014001B502E00098401E00900098F7
:102AB0000028F9D108BD08B501216020FEF7B4FE59
:102AC00003208DF8020018208DF803004FF4804099
:102AD000ADF800006946FE48FEF7EAFB4FF40040FF
:102AE000ADF800006946FA48FEF7E2FB0120ADF8B8
:102AF00000006946F648FEF7DBFB0220ADF8000057
:102B00006946F348FEF7D4FB8020ADF80000694623
:102B1000F048FEF7CDFB4FF48070ADF80000694639
:102B2000EC48FEF7C5FB4FF40070ADF800006946B5
:102B3000E848FEF7BDFB4FF48060ADF80000694641
:102B4000E448FEF7B5FB4FF40060ADF800006946BD
:102B5000E048FEF7ADFB4FF48050ADF80000694649
:102B6000DC48FEF7A5FB4FF40050ADF800006946C5
:102B7000D848FEF79DFB4FF48040ADF80000694651
:102B8000D448FEF795FB4FF40040ADF800006946CD
:102B9000D048FEF78DFB4FF48070ADF80000694619
:102BA000CB48FEF785FB4FF40070ADF80000694696
:102BB000C748FEF77DFB4FF48060ADF80000694622
:102BC000C348FEF775FB03208DF8020018208DF82E
:102BD00003001020ADF800006946BD48FEF768FB11
:102BE0002020ADF800006946B948FEF761FB80205F
:102BF000ADF800006946B648FEF75AFB4FF4006096
:102C0000ADF800006946B248FEF752FB10208DF87F
:102C1000030003208DF802000220ADF80000694691
:102C2000AC48FEF745FB10208DF8030003208DF81B
:102C300002004FF48050ADF800006946A448FEF74A
:102C400037FB08BD00B597B03C2108A802F098FA00
:102C50001C2101A802F094FA01210802FEF7D7FD19
:102C6000012001900420039080060790002002902C
:102C70000490059006900890099008200A90102072
:102C80000B9000200C900E900F9010904FF48050FD
:102C90001190002012901390149001A81590169096
:102CA00008A8FDF7EBFF01210020FEF74FF917B050
:102CB00000BD10B50024042002F0ACFD00BF864822
:102CC000008800BF8448008802F09EFD04464FF64D
:102CD000FF7000EA042402F097FD044348F25250CA
:102CE000844201D1204610BDD32002F093FD00BFE5
:102CF0007948008800BF7848008802F085FD0446C6
:102D00004FF6FF7000EA042402F07EFD044349F20E
:102D10004130844201D12046E5E70020E3E710B5C9
:102D2000FFF7C7FF6D4908800846008849F2413126
:102D300088427CD1CF2002F06DFD002002F06EFDB4
:102D4000812002F06BFD302002F068FDED2002F0E2
:102D500061FD642002F062FD032002F05FFD12209D
:102D600002F05CFD812002F059FDE82002F052FDE6
:102D7000852002F053FD102002F050FD782002F073
:102D80004DFDCB2002F046FD392002F047FD2C20FE
:102D900002F044FD002002F041FD342002F03EFD2F
:102DA000032002F03BFDF72002F034FD202002F06A
:102DB00035FDEA2002F02EFD002002F02FFD00205C
:102DC00002F02CFDB12002F025FD002002F026FDCE
:102DD0001B2002F023FDB62002F01CFD0A2002F0A9
:102DE0001DFDA22002F01AFDC02002F013FD3520C7
:102DF00002F014FDC12002F00DFD112002F00EFDC5
:102E0000C52002F007FD452002F008FD452002F034
:102E100005FDC72002F0FEFCA22002F0FFFCF2201C
:102E200002F0F8FC002002F0F9FC262000E0A2E00D
:102E300002F0F0FC012002F0F1FCE02002F0EAFCDC
:102E40000F2002F0EBFC262002F0E8FC242002F028
:102E5000E5FC0B2002F0E2FC0E2002F0DFFC092072
:102E600002F0DCFC542002F0D9FCA82002F0D6FCD1
:102E7000462002F0D3FC0C2002F0D0FC172002F018
:102E8000CDFC092002F0CAFC0F2002F0C7FC07208D
:102E900002F0C4FC002002F0C1FCE12002F0BAFC08
:102EA000002002F0BBFC192002F0B8FC1B2002F04D
:102EB000B5FC042002F0B2FC102002F0AFFC0720A9
:102EC00002F0ACFC2A2002F0A9FC472008E0000038
:102ED0000014014000180140000002604A00002078
:102EE00002F09CFC392002F099FC032002F096FCD1
:102EF000062002F093FC062002F090FC302002F045
:102F00008DFC382002F08AFC0F2002F087FC36206E
:102F100002F080FCC82002F081FC2A2002F07AFC3A
:102F2000002002F07BFC002002F078FC002002F080
:102F300075FCEF2002F072FC2B2002F06BFC0020ED
:102F400002F06CFC002002F069FC012002F066FC3B
:102F50003F2002F063FC3A2002F05CFC552002F0B6
:102F60005DFC112002F056FCFD48FFF79BFD292077
:102F700002F050FCFBE0FB48008848F252518842C6
:102F8000F8D1CF2002F046FC002002F047FCC1201F
:102F900002F044FC302002F041FCED2002F03AFC4B
:102FA000642002F03BFC032002F038FC122002F007
:102FB00035FC812002F032FCE82002F02BFC852059
:102FC00002F02CFC102002F029FC782002F026FCF4
:102FD000CB2002F01FFC392002F020FC2C2002F054
:102FE0001DFC002002F01AFC342002F017FC022025
:102FF00002F014FCF72002F00DFC202002F00EFC81
:10300000EA2002F007FC002002F008FC002002F099
:1030100005FCC02002F0FEFB212002F0FFFBC120D6
:1030200002F0F8FB112002F0F9FBC52002F0F2FBE0
:103030002D2002F0F3FB332002F0F0FB362002F0EB
:10304000E9FB002002F0EAFB3A2002F0E3FB552006
:1030500002F0E4FBB12002F0DDFB002002F0DEFB19
:10306000172002F0DBFBB62002F0D4FB0A2002F0AE
:10307000D5FBA22002F0D2FBF62002F0CBFB012010
:1030800002F0CCFB302002F0C9FBF22002F0C2FBC0
:10309000002002F0C3FB262002F0BCFB012002F05E
:1030A000BDFBE02002F0B6FBD02002F0B7FB002011
:1030B00002F0B4FB022002F0B1FB072002F0AEFBED
:1030C0000B2002F0ABFB1A2002F0A8FB312002F02B
:1030D000A5FB542002F0A2FB402002F09FFB292018
:1030E00002F09CFB122002F099FB122002F096FBEA
:1030F000122002F093FB172002F090FBE12002F077
:1031000089FBD02002F08AFB002002F087FB02201E
:1031100002F084FB072002F081FB052002F07EFB19
:10312000252002F07BFB2D2002F078FB442002F0EA
:1031300075FB452002F072FB1C2002F06FFB18208B
:1031400002F06CFB162002F069FB1C2002F066FB0B
:103150001D2002F063FB112002F05CFB8048FFF7AA
:10316000A1FC292002F056FB2C2002F053FB10BDDD
:1031700010B50446072C00DD10BD7B4804702046C6
:1031800004EBD0714910A4EB410139B9F020774923
:1031900008804FF4A0707649088006E04FF4A070D4
:1031A00072490880F02072490880362002F032FB14
:1031B0006C48008849F24131884205D1082141EA32
:1031C000441002F02BFB0AE06648008848F2525196
:1031D000884204D1002141EA441002F01FFB2A205A
:1031E00002F018FB002002F019FB002002F016FB91
:1031F0005E490988491EC1F3072002F00FFB5B49B5
:103200000978491EC8B202F009FB2B2002F002FB2C
:10321000002002F003FB002002F000FB5449098863
:10322000491EC1F3072002F0F9FA51490978491EF5
:10323000C8B202F0F3FA2C2002F0ECFA00BF9BE7D0
:1032400010B502214B48FEF7E2F840F6FF20FFF7E9
:1032500029FC02214748FEF7D8F840F6FF20FFF787
:1032600021FC10BD10B504462CB14FF480514248EA
:10327000FEF7CDF804E04FF480513F48FEF7C5F863
:1032800010BD10B5FFF717FCFFF7DCFC0120FFF7BE
:10329000E9FFFFF7D5FFFFF742FD33480078FFF75E
:1032A00067FF10BD2DE9F04104460D4616461F4646
:1032B0002A2002F0AFFA201202F0B0FAE0B202F0D7
:1032C000ADFAA119491EC1F30F2002F0A7FAA11906
:1032D000491EC8B202F0A2FA2B2002F09BFA281273
:1032E00002F09CFAE8B202F099FAE919491EC1F31A
:1032F0000F2002F093FAE919491EC8B202F08EFAC3
:10330000BDE8F08170B504460D4601231A462946F2
:103310002046FFF7C7FF70BD70B504460D46002676
:103320002C2002F077FA00BF03E0284602F076FA7C
:10333000761CA642F9D370BD2DE9F04106460F4632
:1033400014461D462B46224639463046FFF7AAFF53
:1033500004FB05F009490988FFF7DEFFBDE8F081AD
:10336000FCBF02004A00002048000020440000206A
:1033700046000020001801400014014052000020C7
:1033800070B505460C46FE48008885420CDAFD48BB
:103390000088844208DA21462846FFF7B3FFFA483E
:1033A00001880120FFF7B8FF70BD70B5002400252B
:1033B0002E2002F02FFA00BFF448008802F024FA11
:1033C000044602F021FA054604F478404FF4FC610B
:1033D00001EAC401084340EAE52070BD70B5044627
:1033E0000D4629462046FFF78DFFFFF7DEFF064614
:1033F000304670BD2DE9FF4F83B081464FF0000A83
:10340000D3460598A0EB090504990698461ACDF80D
:10341000049004980090002D01DD012705E00DB90E
:10342000002702E04FF0FF376D42002E02DD4FF023
:10343000010806E016B94FF0000802E04FF0FF382F
:103440007642B54201DD2C4600E034460020029071
:1034500019E0DDE90010FFF793FFAA44B344A24549
:1034600005DDAAEB040A0198384480B20190A34517
:1034700005DDABEB040B0098404480B2009002984D
:10348000401C80B20290611C02988842E1DD07B0C6
:10349000BDE8F08F2DE9F04104460D4616461F4663
:1034A000DDF81880B8F1000F0CD03B4632462946B3
:1034B0002046FFF7F7FE06FB07F0B3490988FFF740
:1034C0002BFF27E0A019401E82B22B46294620463A
:1034D000FFF790FFE819401E83B2A019401E82B288
:1034E000E819401E81B22046FFF784FFE819401E0C
:1034F00083B2224629462046FFF77CFFE919491E80
:103500008BB2A119491E8AB2A119491E88B2294657
:10351000FFF770FFBDE8F0812DE9F05F05460E462C
:1035200091469B4600240FFA89F70320A0EB49003F
:103530000FFA80FA87E0BBF1000F40D0A0463BE0D5
:1035400006EB080291B22A1990B2FFF719FF06EBB9
:10355000080291B22A1B90B2FFF712FF321991B202
:10356000A5EB080290B2FFF70BFF321B91B2A5EB5F
:10357000080290B2FFF704FFA6EB080291B22A1BE3
:1035800090B2FFF7FDFEA6EB080291B22A1990B2A5
:10359000FFF7F6FE321B91B205EB080290B2FFF77F
:1035A000EFFE321991B205EB080290B2FFF7E8FE88
:1035B00008F101000FFA80F8B845C1DD2FE0F219DB
:1035C00091B22A1990B2FFF7DBFEF21991B22A1BD1
:1035D00090B2FFF7D5FE321991B2EA1B90B2FFF715
:1035E000CFFE321B91B2EA1B90B2FFF7C9FEF21B6D
:1035F00091B22A1B90B2FFF7C3FEF21B91B22A19B7
:1036000090B2FFF7BDFE321B91B2EA1990B2FFF7FC
:10361000B7FE321991B2EA1990B2FFF7B1FE601C01
:1036200004B2BAF1000F05DAA000801D50440FFA71
:1036300080FA07E0E01B80000A3050440FFA80FA5D
:10364000781E07B200BFBC427FF775AFBDE8F09FA0
:103650002DE9F05F804689461646A6F120001FFA44
:1036600080FA4B4909688988494A1268D28801FB67
:1036700002F0C11700EB5171C1F3C707444800685D
:1036800000680AFB070B42480068C388404800688E
:10369000828849464046FFF705FE2C2002F0BAF822
:1036A000002416E0002510E01BF8040080212941C9
:1036B000084020B13448008802F0B0F803E03548F3
:1036C000008802F0ABF8681CC5B2082DECDB601C6A
:1036D000C4B2BC42E6DBBDE8F09F70B504460D46BF
:1036E000002624E030462A4909688988084424498C
:1036F0000988884205DD002625480068C0882044E6
:1037000084B2204622490968C98808441D490988AD
:10371000884201DD002600242A7821463046FFF742
:1037200097FF6D1C1A4800688088304486B228785C
:103730000028D7D170BD70B505460E46144631E05D
:10374000284613490968898808440D490988884230
:1037500005DD00250E480068C088304486B230463A
:103760000B490968C988084406490988884201DD6F
:1037700000250026227831462846FFF769FF0BE036
:10378000440000204600002050000020000002609D
:103790004C00002052000020641CFB480068808818
:1037A000284485B220780028CAD170BD70B505467E
:1037B0000E46144624E03046F3490968C988084497
:1037C000F2490988884205DD0026EF4800688088B4
:1037D000284485B22846EC49096889880844EC49A0
:1037E0000988884201DD00250026227831462846D6
:1037F000FFF72EFF641CE4480068C088304486B29E
:1038000020780028D7D170BD2DE9F04389B08046DB
:103810008946174610231A4649464046FFF742FD9F
:103820002C2001F0F7FF394601A800F017FE002414
:1038300022E001A810F814604FF6FF7000EA062697
:10384000012000EB440001A9085C064300250FE0BD
:103850004FF400402841304020B1CE48008801F0AC
:10386000DDFF03E0CC48008801F0D8FF681CC5B23A
:10387000102DEDDB601CC4B2102CDADB09B0BDE802
:10388000F0832DE9F04105460F4614461FE0284617
:103890001030BF490988884203DD002507F1100078
:1038A00087B238461030B9490988884201DD0025C1
:1038B00000272688300200EB262086B232463946A1
:1038C0002846FFF7A1FF05F1100085B2A41C20785F
:1038D0000028DCD1BDE8F0812DE9F04105460C4619
:1038E000002648E020787E2825DC3046A649096875
:1038F00089880844A6490988884205DD0026A2482F
:103900000068C088284485B228469F490968C9884C
:1039100008449E490988884201DD00260025227856
:1039200029463046FFF794FE974800688088304467
:1039300086B2641C1FE030461030954909888842E1
:1039400003DD002605F1100085B2284610308F49AE
:103950000988884201DD002600252788380200EB0F
:10396000272087B23A4629463046FFF74DFF06F139
:10397000100086B2A41C20780028B3D1BDE8F081E5
:103980002DE9F04105460E46144648E020787E2891
:1039900025DC28467C490968898808447C490988CF
:1039A000884205DD002578480068C088304486B22A
:1039B000304675490968C9880844744909888842AD
:1039C00001DD00250026227831462846FFF740FE1B
:1039D0006D4800688088284485B2641C1FE0284632
:1039E00010306B490988884203DD002506F110007C
:1039F00086B23046103065490988884201DD0025CD
:103A000000262788380200EB272087B23A46314645
:103A10002846FFF7F9FE05F1100085B2A41C2078B6
:103A20000028B3D1BDE8F0812DE9F04106460D46EE
:103A300014462CE02846103054490988884203DD9A
:103A4000002506F1100086B2304610305049098832
:103A5000884201DD0026002520787E2809DC2278B6
:103A600029463046FFF7F4FD641C05F1100085B2CD
:103A70000DE02788380200EB272087B23A46294616
:103A80003046FFF7C1FE05F1100085B2A41C207876
:103A90000028CFD1BDE8F0812DE9FC4F0C461E4631
:103AA0004FEA004A9AFBF2FA0AF1010ACDF804A0A3
:103AB0004FEA044A9AFBF6FA0AF1010ACDF800A08F
:103AC0004FF00009202801DBBDE8FC8F00FB04FA61
:103AD000BAF1000F00D1F7E700FB04FABAF5806FE6
:103AE00000DBF1E702FB06FABAF1000F00D1EBE7C9
:103AF00002FB06FABAF5804F00DBE5E7274BDDF85D
:103B000034A0BAF1000F2BD100211FE0002517E0EF
:103B1000DDF82CA01AF801A04FF0800B4BFA05FB42
:103B20000AEA0B0ABAF1000F02D04FF0010A01E0D5
:103B30004FF0000A03F801AB05F1010A1FFA8AF5FC
:103B4000082DE5DB01F1010A1FFA8AF104FB00FAF6
:103B50004FEAEA7B0AEB5B7BB1EBEB0FD6DB36E09F
:103B600000212BE0002523E0DDF82CA01AF801A0AD
:103B70004FF0800B4BFA05FB0AEA0B0ABAF1000F73
:103B80000ED04FF0010A0DE04C000020460000204E
:103B900044000020500000205200002094410020EA
:103BA0004FF0000A03F801AB05F1010A1FFA8AF58C
:103BB000082DD9DB01F1010A1FFA8AF104FB00FA92
:103BC0004FEAEA7B0AEB5B7BB1EBEB0FCADBBC4B4A
:103BD000BC4F4FF0000C1AE04FF0000A4FEA194BAF
:103BE00000FB0B3ED0460AE00EEB1A4B9BF800B0F0
:103BF00007F808B0DDF804B0DA4408F10108904590
:103C0000F2D3DDF800B0D94417440CF1010CB445EF
:103C1000E2D3DFF8B0A2CDF830A0DDF830A00AF191
:103C2000010ACDF830A000BF4EE72DE9F05F8146D4
:103C30008A4614461D46DDE90A6B0027B8462B4626
:103C4000224651464846FFF72DFB2C2001F0E2FDAD
:103C500000BF14E04FF000080EE016F8011B5945B4
:103C600004D19948008801F0D9FD03E09748008805
:103C700001F0D4FD08F10108A045EED37F1CAF424E
:103C8000E8D3BDE8F09F2DE9F04F8FB00646884697
:103C900014469946DDE9185B274669E0304638440A
:103CA0008B490988884204DD002608EB09001FFAC9
:103CB00080F84046484487490988884201DD00264B
:103CC000B0462878802825DD2746B5F800A04FEAC1
:103CD0000A2000EB2A201FFA80FA514605A800F0BE
:103CE000BDFB012105AA0E984B46CDE900200291AB
:103CF0003A4610210846FFF7CFFE72484B463A4637
:103D00004146CDE9000B3046FFF78FFFF01986B230
:103D1000AD1C2DE0204604EBD071C1F34F0728788D
:103D20002038C0B20D9000236B48C288DDE90D0138
:103D30005043694A92885043C217049000EB527076
:103D4000654A126802EBE0008DE80B004B463A46EC
:103D500018211020FFF7A0FE5A484B463A4641462C
:103D6000CDE9000B3046FFF760FFF01986B26D1CFD
:103D70002878002892D10FB0BDE8F08F2DE9F04FE0
:103D80008FB080460E4614461F46DDE9185A0E9441
:103D90006BE0304620444E490988884204DD002605
:103DA00008EB04001FFA80F8404638444949098866
:103DB000884201DD0026B0462878802825DD0E9453
:103DC000B5F800904FEA092000EB29201FFA80F98E
:103DD000494604A800F042FB012104AA0D983B4685
:103DE000CDE900200291102108460E9AFFF754FEFB
:103DF00034483B46CDE9000A314640460E9AFFF76B
:103E000014FFF01986B2AD1C2FE0204604EBD071F0
:103E1000C1F34F010E9128782038C0B20C900023D6
:103E20002D48C288DDE90C0150432B4A928800FBE3
:103E300002FB4FEAEB700BEB5070274A126802EB63
:103E4000E0008DE80B003B46182110200E9AFFF78A
:103E500023FE1C483B46CDE9000A314640460E9AF7
:103E6000FFF7E3FEF01986B26D1C2878002890D188
:103E70000FB0BDE8F08F1949086070471748006817
:103E80007047124A1080104A118070470F4A1288FA
:103E900002800D4A12880A8070470C4908807047DA
:103EA00009490880704770B50446FFF7E7FFC588E9
:103EB0002B460748028821460020FFF73DFA70BDD7
:103EC0009441002094010020520000205000002066
:103ED0004400002046000020600000204C0000202C
:103EE00000B587B001210803FDF79EFC0121D42015
:103EF000FDF79AFC0120ADF8040003208DF80600C0
:103F000010208DF8070001A9FE48FDF7D1F9202007
:103F1000ADF8040018208DF8070001A9FA48FDF754
:103F2000C7F94020ADF8040001A9F748FDF7C0F932
:103F30008020ADF8040001A9F348FDF7B9F901218B
:103F4000F048FDF762FA0020ADF808004FF48270E7
:103F5000ADF80A000020ADF80C000220ADF80E000C
:103F60000120ADF810004002ADF812000820ADF8B5
:103F700014000020ADF816000720ADF8180002A9C3
:103F8000E248FDF7DBFC0121E048FDF77CFD07B0CE
:103F900000BD10B504462146DDA001F045FC00201F
:103FA00010BD10B504464FF48050E54908600AE0A2
:103FB000E3490868411EE24A116020B90020FFF77A
:103FC000E8FFC0B210BD0221D048FDF7E0FD002897
:103FD000EED02146CD48FDF787FD4FF48050D849FB
:103FE00008600AE0D6490868411ED54A116020B928
:103FF0000120FFF7CEFFC0B2E4E70121C348FDF77F
:10400000C6FD0028EED0C148FDF770FDC0B2D9E76B
:1040100010B500240121BB48FDF7F9F90520FFF791
:10402000C0FF00BFFF20FFF7BCFF044604F0010003
:104030000028F7D10121B348FDF7E7F910BD10B50D
:104040000121B048FDF7E3F90620FFF7AAFF01219F
:10405000AC48FDF7DAF910BD10B50446FFF7EFFFE5
:10406000FFF7D6FF0121A748FDF7D1F92020FFF780
:1040700098FFC4F30740FFF794FFC4F30720FFF74E
:1040800090FFE0B2FFF78DFF01219E48FDF7BDF9DB
:10409000FFF7BEFF10BD10B5FFF7D1FF0121994812
:1040A000FDF7B5F9C720FFF77CFF01219548FDF723
:1040B000ACF9FFF7ADFF10BD70B505460C461646CE
:1040C000FFF7BDFF01218F48FDF7A1F90220FFF79F
:1040D00068FFC4F30740FFF764FFC4F30720FFF74E
:1040E00060FFE0B2FFF75DFFB6F5807F04DD4FF4BF
:1040F000807694A001F098FB03E02878FFF751FF49
:104100006D1C301EA6F101018EB2F6D101217D4851
:10411000FDF77BF9FFF77CFF70BD2DE9F05F0746E7
:104120000E4614464FF00008C146C2460025AB4675
:1041300006F0FF0ACAF10000C5B22046E11704EB01
:104140001161C1F30728E11704EB11610912A4EB17
:10415000012101F0FF09BAF1000F20D1B8F1000FE1
:1041600005D1224631463846FFF7A6FF64E009E054
:104170004FF4807231463846FFF79EFF06F5807691
:1041800007F58077B8F10000A8F1010101F0FF0800
:10419000EED14A4631463846FFF78EFF4CE0B8F183
:1041A000000F18D1A94510DDA9EB050000F0FF0BA9
:1041B0002A4631463846FFF77FFF2E442F445A46A1
:1041C00031463846FFF778FF36E02246314638461A
:1041D000FFF772FF30E0601B84B22046E11704EB6A
:1041E0001161C1F30728E11704EB11610912A4EB77
:1041F000012101F0FF092A4631463846FFF75CFFEE
:104200002E442F4409E04FF4807231463846FFF7C0
:1042100053FF06F5807607F58077B8F10000A8F126
:10422000010101F0FF08EED1B9F1000F04D04A46B8
:1042300031463846FFF740FFBDE8F09F70B50546B0
:104240000C46164601212F48FDF7E1F80320FFF741
:10425000A8FEC4F30740FFF7A4FEC4F30720FFF74E
:10426000A0FEE0B2FFF79DFE04E0FF20FFF799FEFD
:1042700028706D1C301EA6F101018EB2F5D101210E
:104280002048FDF7C2F870BD2DE9F041002400255B
:104290000026002701211B48FDF7B9F89F20FFF7F2
:1042A00080FEFF20FFF77DFE0546FF20FFF779FE29
:1042B0000646FF20FFF775FE074601211148FDF76E
:1042C000A4F8280440EA062040EA07042046BDE896
:1042D000F08110B5002401210A48FDF798F8AB20C1
:1042E000FFF75FFEFF20FFF75CFEFF20FFF759FEA0
:1042F000FF20FFF756FEFF20FFF753FE0446012183
:10430000004839E000100140000801400030014041
:104310003C3C2D464C4153482D4552524F522D3E68
:104320003E2053504920B5C8B4FDB3ACCAB1216595
:1043300072726F72436F6465203D2025640A00002D
:10434000540000203C3C2D464C4153482D455252D0
:104350004F522D3E3E205350495F464C4153485FDB
:1043600050616765577269746520746F6F206C6166
:10437000726765210A000000FDF747F8204610BD6E
:1043800010B5044601213248FDF741F80320FFF73C
:1043900008FEC4F30740FFF704FEC4F30720FFF74D
:1043A00000FEE0B2FFF7FDFD10BD10B5FF20FFF7E6
:1043B000F8FD10BD10B504464FF480502549086043
:1043C00009E024490868411E224A116018B90220F8
:1043D000FFF7DFFD10BD02211F48FDF7D8FB0028C5
:1043E000EFD021461C48FDF77FFB4FF48050194960
:1043F000086009E017490868411E164A116018B99B
:104400000320FFF7C6FDE5E701211348FDF7BFFBD9
:104410000028EFD01048FDF769FBDBE710B501215C
:104420000B48FCF7F4FFB920FFF7BBFD012108485A
:10443000FCF7EBFF10BD10B501210548FCF7E7FFC5
:10444000AB20FFF7AEFD01210148FCF7DEFF10BDF8
:104450000010014054000020003001402DE9F041DF
:1044600080460C461048007820B9FFF739FD01203E
:104470000D4908702512E6B2A5F1A101C1EB0112A8
:1044800002EB411106EB4101A1390802C11700EB13
:104490005171CF100548391820224046FFF7CEFE53
:1044A0000020BDE8F08100007000002000301800FE
:1044B00008B501210420FDF7B7F94FF48070ADF87D
:1044C000000010208DF8030003208DF802006946DB
:1044D0000448FCF7EDFE4FF480710248FCF797FFAB
:1044E00008BD00000008014008B54FF4A060FBF7CC
:1044F0002BFF27208DF8000000208DF801008DF89B
:10450000020001208DF803006846FBF722FF08BD7A
:1045100000B585B001218804FDF793F90121082039
:10452000FDF782F94FF48060ADF8100018208DF887
:10453000130003208DF8120004A9F948FCF7B8FE17
:104540004FF40060ADF8100004208DF8130004A9AA
:10455000F348FCF7ADFE4FF4E13000900020ADF8D9
:104560000400ADF80600ADF80800ADF80C000C2012
:10457000ADF80A006946EB48FDF783FB012240F2E3
:104580002551E848FDF715FC012240F22441E54899
:10459000FDF70FFCFFF7A8FF0121E248FDF7FDFB47
:1045A00005B000BD08B501210820FDF73DF94FF425
:1045B0008070ADF8000010208DF8030003208DF806
:1045C00002006946D648FCF773FE01210820FDF77A
:1045D0002BF94FF40070ADF800006946D048FCF7A5
:1045E00067FE08BD10B5FFF7DDFFFFF791FF4FF441
:1045F0000071CB48FCF709FF4FF48071C848FCF705
:1046000006FF10BD10B54FF40071C548FCF7FFFE62
:10461000C54800F009FC4FF40071C148FCF7F5FEF5
:1046200010BD2DE9F04106460C4615461F46BF4811
:10463000B0F800046FF30E00BC49A1F80004324644
:10464000BBA1B84800F04DFC1CB915B90120BDE86C
:10465000F0814FF47A7107FB01F000F0E5FB0020D8
:10466000B249B1F80014C1F30E01B04A50541146DA
:10467000B1A001F0D9F8AD48B0F800046FF30E0016
:10468000AA49A1F800040846B0F8000420F400404C
:10469000A1F80004B4B1ADB12146A44800F07BFDFF
:1046A00008B1012000E0002040B929469F4800F0F1
:1046B00072FD08B1012000E0002008B10120C6E72A
:1046C0000020C4E744B12146984800F064FD08B1D9
:1046D0000120BCE70020BAE72946944800F05BFDC2
:1046E00008B10120B3E70020B1E770B500244FF412
:1046F00000718B48FCF789FE90A001F095F8FFF758
:10470000BDFBC08800EB400085B290A12846FFF7B2
:10471000E3F8924800F088FB28E0214690A001F0E1
:1047200083F8FFF7ABFBC0888004050C93A12846F3
:10473000FFF7D2F84FF4FA73002294A194A0FFF788
:1047400070FF78B1214693A001F06EF8FFF796FB59
:10475000C08800EB800085B298A12846FFF7BCF81E
:10476000012070BDFFF74EFF601CC4B20A2CD4DBE1
:104770000020F6E710B5044624B1012C0AD0022C23
:1047800018D10FE040F6C4138EA280A190A0FFF7CD
:1047900048FF10BD40F6C4138AA27CA18FA0FFF78A
:1047A00040FFF6E740F6C41386A278A18EA0FFF77B
:1047B00038FFEEE70020ECE710B58AB08DA168461F
:1047C00001F042F8FFF75AFBC088C0EBC00084B28A
:1047D0008DA12046FFF780F84FF4FA7300226BA1F9
:1047E0006846FFF71EFF0AB010BD30B59FB0044603
:1047F0000D462B46224688A101A801F025F841F27A
:104800008833002261A101A8FFF70BFF1FB030BD64
:1048100070B5A0B004460D4616462B46224683A12D
:1048200002A8009601F010F84FF47A73002257A105
:1048300002A8FFF7F6FE20B070BD10B586B00446A2
:104840000CB1012000E0002002467EA101A800F08A
:10485000FBFF4FF4FA7300224CA101A8FFF7E1FE21
:1048600006B010BDF0B5B9B006460F4614461D4659
:10487000642120A800F084FC16B1012E10D107E0BD
:104880003B4674A274A120A8009400F0DDFF08E06C
:104890003B4675A270A120A8009400F0D5FF00E06F
:1048A00000BF00BF052D06DA20AB2A466FA102A883
:1048B00000F0CAFF04E020AA71A102A800F0C4FF22
:1048C0004FF47A6372A231A102A8FFF7AAFE39B0B1
:1048D000F0BD70B5BCB004460D461646ECB12B4693
:1048E00001226FA11EA800F0AFFF324671A16846F9
:1048F00000F0AAFF4FF4FA73002224A11EA8FFF7CC
:1049000090FE58B14FF4FA73002220A16846FFF7D9
:1049100088FE18B101203CB070BDD6E0D2E00000A6
:10492000000C01400048004020A1070094450020F1
:1049300025730D0A00000000257300000D0A415484
:10494000746573742E2E2E2E2E0D0A004154207481
:104950006573742E2E2E2E2E0000000080841E0003
:104960000D0A415420746573742074696D652025A7
:10497000642E2E2E2E2E2E0D0A000000415420747F
:104980006573742074696D65000000004F4B000072
:10499000415400000D0A41542074657374207374EF
:1049A000617274207570207375636365737320255D
:1049B000642E2E2E2E2E2E0D0A0000004154202093
:1049C0004F4B00006E6F206368616E6765000000EA
:1049D00041542B43574D4F44453D310041542B43E7
:1049E000574D4F44453D320041542B43574D4F44A2
:1049F000453D330041542B4357444843505F435592
:104A0000523D312C3100000041542B435744484360
:104A1000505F4355523D310041542B43574A41505A
:104A20003D222573222C22257322000041542B4362
:104A3000575341503D222573222C222573222C31BD
:104A40002C25640041542B4349504D55583D256455
:104A50000000000054435000222573222C222573AD
:104A6000222C2573000000005544500041542B4374
:104A7000495053544152543D25642C257300000085
:104A800041542B43495053544152543D2573000027
:104A9000414C5245415920434F4E4E45435400002E
:104AA00041542B4349505345525645523D25642CA1
:104AB0002573000041542B43495053544F3D2573F7
:104AC0000000000000203CB070BD2B460022AFF279
:104AD00030011EA800F0B8FE4FF4FA730022AFF2C6
:104AE00054111EA8FFF79DFDEDE710B54FF4FA73C2
:104AF0000022AFF2681182A0FFF793FDA0B184A15C
:104B0000864800F048FB08B1022010BD84A183480C
:104B100000F041FB08B10320F7E784A17F4800F0D3
:104B20003AFB08B10420F0E70020EEE710B50024BE
:104B30004FF4FA730022AFF2AC1171A0FFF771FDD0
:104B4000002831D07CA1754800F025FB10B144F05D
:104B5000010401E024F001047BA1704800F01BFB7C
:104B600010B144F0020401E024F002047AA16B4881
:104B700000F011FB10B144F0040401E024F004043F
:104B800079A1664800F007FB10B144F0080401E089
:104B900024F0080478A1614800F0FDFA10B144F057
:104BA000100401E024F01004204610BD2DE9F0416E
:104BB00005460F464FF4FA730022AFF2302172A07F
:104BC000FFF72FFD73A1554800F0E5FA06460EB138
:104BD000B61D02E00020BDE8F081002409E0305D50
:104BE0002855285D222802D10020285503E0601CAA
:104BF000C4B2BC42F3DB00BF0120ECE710B54FF4B8
:104C0000FA730022AFF27C2164A0FFF70AFD08B915
:104C1000002010BD4FF4FA7364A2AFF2902164A09B
:104C2000FFF7FFFCF5E710B5644800F0FDF864A15C
:104C3000644800F056F9644800F0F6F810BD2DE91C
:104C4000F04186B007460C4615461E464FF0000858
:104C500047B12246AFF220315A4800F042F94FF0F6
:104C600001081CE0052E06DAAB1C324657A101A84C
:104C700000F0EAFD04E0AA1C59A101A800F0E4FD3F
:104C80004FF47A7300225AA101A8FFF7CAFC4FF42F
:104C90007A73002257A12046FFF7C3FC80464046A6
:104CA00006B0BDE8F08170B5044600251B48B0F899
:104CB00000046FF30E001949A1F800040846B0F88B
:104CC000000420F40040A1F8000400BF1348B0F82D
:104CD0000004C00B0028F9D000201049B1F80014DE
:104CE000C1F30E010D4A50540CB1154605E043A125
:104CF0000A4800F050FA00B1084D284670BD000087
:104D000041542B4349505354415455530000000023
:104D10005354415455533A320D0A00009445002033
:104D20005354415455533A330D0A000053544154DF
:104D300055533A340D0A00002B4349505354415403
:104D400055533A302C0000002B43495053544154E2
:104D500055533A312C0000002B43495053544154D1
:104D600055533A322C0000002B43495053544154C0
:104D700055533A332C0000002B43495053544154AF
:104D800055533A342C00000041542B4349465352AA
:104D900000000000415049502C22000041542B4398
:104DA00049504D4F44453D31000000003E00000099
:104DB00041542B43495053454E44000040420F009C
:104DC0002B2B2B000048004020A1070041542B430F
:104DD000495053454E443D25642C25640000000095
:104DE00041542B43495053454E443D256400000037
:104DF0003E20000053454E44204F4B002B49504469
:104E0000000000001A48006840F0807018490860EF
:104E10000020184948600846006840F0010008601A
:104E2000704714484068704731B500231248006845
:104E3000124DB0FBF5F0009D00FB05F400BFFFF73D
:104E4000F0FF024611E0FFF7ECFF014691420CD063
:104E5000914202D9881A034403E0C2F1FF300844AA
:104E600003440A46A34200D300E0ECE700BF38BD8C
:104E7000FCED00E0001000E00000002040420F00C8
:104E8000F0B503460D461646002729460A2E03D0E4
:104E9000002008702846F0BD33B9302001F8010B1E
:104EA000002008702846F6E7002B03DA2D2001F8D1
:104EB000010B5B4242F210720DE093FBF2F404B975
:104EC00037B104F1300001F8010B04FB1233012764
:104ED0000A2092FBF0F2002AEFDC0020087028463E
:104EE000D9E70FB470B586B006460CA8019073E000
:104EF0000B9800785C281CD10B98401C0B90007814
:104F00006E2809D072280FD10D213046FCF7B2FF70
:104F10000B98401C0B900BE00A213046FCF7AAFFCF
:104F20000B98401C0B9003E00B98401C0B9000BFAB
:104F30004BE00B980078252840D10B98401C0B9033
:104F40000078642818D0732833D1019810C80190D4
:104F50000BE021783046FCF78DFF00BF8021304602
:104F6000FCF7F6FF0028F9D0641C20780028F0D167
:104F70000B98401C0B9020E0019820C801900A2259
:104F800002A92846FFF77CFF02AC0BE021783046EF
:104F9000FCF770FF00BF80213046FCF7D9FF0028E6
:104FA000F9D0641C20780028F0D10B98401C0B909D
:104FB00003E00B98401C0B9000BF06E00B9810F824
:104FC000011B0B903046FCF755FF00BF8021304697
:104FD000FCF7BEFF0028F9D00B980078002887D195
:104FE00006B070BC5DF814FB08B501210820FCF781
:104FF0001BFC2020ADF8000010208DF803000320DA
:105000008DF8020069460F48FCF752F90120ADF80F
:10501000000069460B48FCF74BF90220ADF8000090
:1050200069460848FCF744F920210648FCF7EDF9E9
:1050300001210448FCF7E9F902210248FCF7E5F9EF
:1050400008BD0000000C014008B54FF4C060FBF73C
:105050007BF906208DF8000001208DF801008DF805
:1050600002008DF803006846FBF773F928208DF8DD
:1050700000006846FBF76DF908BD0EB5012105205B
:10508000FCF7D2FB01211120FCF7CEFBFFF7DCFF80
:105090000120ADF8080004208DF80B0002A91A4881
:1050A000FCF706F900210846FCF718FA01200090E9
:1050B00000208DF8040008208DF8050001208DF8EF
:1050C00006006846FBF70EFD4FF40050ADF80800EF
:1050D00004208DF80B0002A90C48FCF7E9F80D211B
:1050E0000220FCF7FBF94FF40050009000208DF8EF
:1050F00004000C208DF8050001208DF8060068469C
:10510000FBF7F0FC0EBD000000080140001001405C
:105110002DE9F05F0546002092469B4688460646EC
:10512000814640241BE0284641464746224600F07F
:1051300030FA53465A46C01A914110D311461846C8
:10514000224600F017FA2D1A67EB01084F46224657
:105150000120002100F00EFA17EB00094E41201E3D
:10516000A4F10104DFDC484631462A464346BDE847
:10517000F09FD2B201E000F8012B491EFBD270472C
:105180000022F6E710B513460A4604461946FFF713
:10519000F0FF204610BD30B505462A460B4612F8F2
:1051A000010B13F8014B08B1A042F8D01CB1002844
:1051B00002D06D1CF1E7284630BD2DE9FE4F804638
:1051C00081EA0300C00F0C46009021F0004123F05B
:1051D0000045B8EB0200A94105D240462146904661
:1051E0001C460B46024623F00040104347D0270DD3
:1051F000C7F30A00C3F30A510290401A01904028F5
:105200006BDAC3F3130040F4801B0098924620B180
:105210000023D2EB030A63EB0B0B01985946C0F154
:105220004002504600F0A6F906460D465046594643
:10523000019A00F0BEF910EB08006141002487EAF2
:10524000115284EAE7731A4340D0009A62B3019A7C
:10525000012A4FEA075215DC001B61EB02014FF0F7
:10526000004202EA0752CDE90042001C41F58011DC
:1052700032462B4600F0BEF903B0BDE8F08F404641
:105280002146F9E7001B61EB0201001C41F5801388
:1052900000185B412018A2F5001747EB030140EA14
:1052A000D570B6196D4111E06D084FEA360645EA32
:1052B000C0754FEA0752001B61EB0201001C41F56B
:1052C000801149084FEA30000019514132462B46FF
:1052D00003B0BDE8F04F00F07EB900980122400015
:1052E0000023D0EB020263EBE073009821464FEA03
:1052F000E074B8EB000061EB0401E9E783F00043E0
:105300005BE781F0004158E72DE9FE4F81EA030495
:1053100004F0004421F0004100944FF0000B23F012
:10532000004350EA01045ED052EA03045BD0C3F3A9
:105330000A54C1F30A552C44A4F2F3340194A0FB9F
:105340000254C1F3130141F48011C3F3130343F476
:10535000801301FB024400FB034E840A970A44EACF
:10536000815447EA8357A4FB076802958D0A05FB21
:1053700007854FEA932C04FB0C542705029D4FEA46
:10538000065847EA1637B5EB08056EEB070C870E93
:10539000920E47EA811742EA8312A7FB0201B6EB9D
:1053A0000B0164EB00042B0D43EA0C335E1844EB55
:1053B0001C50DA465146E7FB0201C5F313044FEADD
:1053C0000B3343EA14534FEA0432019C43EA0603C9
:1053D000A4F10C040294009CCDE900B400F00AF999
:1053E00003B0BDE8F08F00200146F9E72DE9F04D4C
:1053F00081EA030404F0004B21F0004514464FF00D
:10540000000A23F0004150EA050220D054EA0102CC
:105410001DD0C5F30A570246C5F31303C1F31300A9
:10542000C1F30A5640F4801543F48013A7EB060835
:10543000101BD64608F2FD3873EB050002D308F1C5
:10544000010801E092185B41B8F1000F03DA002077
:105450000146BDE8F08D00204FF4801106468446D9
:105460000EE0171B73EB050705D3121B63EB050357
:1054700006434CEA010C49084FEA300092185B41A0
:1054800050EA0107EDD152EA030012D082EA04008B
:1054900083EA0501084305D0101BAB4106D2012267
:1054A000002306E000224FF0004302E06FF001020B
:1054B00053101AEB06004CEB085110EB0A0041EBBD
:1054C0000B01BDE8F04D00F086B80EB540F2334157
:1054D00002910021CDE900110A460B4600F08AF83E
:1054E00003B000BDC1F30A5210B5C1F3130140F27D
:1054F000FF3341F480119A4201DA002010BD40F2DE
:1055000033439A42A2F2334203DC524200F041F8A4
:1055100010BD904010BD000030B5041E71F10004B4
:1055200004DB4FF00044404264EB0101141E73F1B0
:10553000000405DB1C464FF00043524263EB0403BA
:105540008B4208BF824230BD30B50B460146002079
:105550002022012409E021FA02F59D4205D303FA35
:1055600002F5491B04FA02F52844151EA2F10102B6
:10557000F1DC30BD202A04DB203A00FA02F10020E1
:1055800070479140C2F1200320FA03F31943904081
:105590007047202A04DB203A21FA02F000217047EC
:1055A00021FA02F3D040C2F120029140084319468B
:1055B0007047202A06DBCB17203A41FA02F043EA73
:1055C000E07306E041FA02F3D040C2F120029140BC
:1055D00008431946704710B5141E73F1000408DA29
:1055E000401C41F1000192185B411A4301D120F0A7
:1055F000010010BD2DE9F04D92469B4611B1B1FA64
:1056000081F202E0B0FA80F220329046FFF7B2FF5A
:1056100004460F4640EA0A0041EA0B0153465A4647
:10562000084313D0114653EA010019D0C8F14002D3
:105630005046FFF7AEFF05460E46504659464246D5
:10564000FFF798FF084305D0012004E020463946C3
:10565000BDE8F08D0020054346EAE0762C43374351
:105660000A986305E40AA0EB08000022FD0A44EA58
:1056700047540A3002D500200146E9E70105101918
:105680006941DDE9084500196941BDE8F04DA2E72F
:1056900070B521F0004303430CD0C1F30A55002438
:1056A000D5EB040564EB0403D617AD1AB34102DB56
:1056B0000020014670BD201841EB025170BD0EB5AF
:1056C000C10F80EAE0700844CA07002140F233436A
:1056D0008DE80E000A460B46FFF78CFF03B000BDB5
:1056E000C1F30A52C1F3130140F2FF3341F48011B8
:1056F0009A4202DA00200146704740F233439A4250
:10570000A2F2334202DC5242FFF743BFFFF732BF3F
:1057100030B5041E71F1000404DB4FF00044404238
:1057200064EB0101141E73F1000405DB1C464FF00D
:105730000043524263EB0403994208BF904230BDDC
:10574000064C074D06E0E06840F0010394E80700CE
:1057500098471034AC42F6D3FAF7EEFC5CAD000883
:105760007CAD00082DE9F04D00231A461B1A8A4132
:1057700003DB00200146BDE8F08DC1F30A52C1F3FE
:10578000130141F480154FF0000BD10702D100182E
:105790006D41521E0027044640F2FF11384601EBCE
:1057A000620A3E468046024600204FF48011FFF711
:1057B000F0FEC2197141BB1846EB0100B4EB030CBB
:1057C00075EB000C04D3E41A65EB000517460E4692
:1057D000241908F101006D4180463428E3DDF919F0
:1057E00046EB0600091BA84103D24FF0FF321346D7
:1057F00001E0002213461BEB070046EB0A51BDE80F
:10580000F04DFFF7E8BE0000014800887047000037
:10581000000002604FF0C0410880704701490880D5
:1058200070470000000002600FB4054B10B503A9DB
:10583000044A029800F080F910BC5DF814FB0000E7
:10584000632A0008980000200FB4084B10B504A983
:1058500002AA039800F070F9044602A9002000F0A3
:1058600002FD204610BC5DF814FB000067620008D2
:10587000490050EAC12018BF04204A0D18BF40F06B
:10588000010040F2FF72B2EB515F08BF40F002002E
:10589000012808BF052070472DE9F0414F1E00EB9D
:1058A000C7010446D1E9000115461E4637F006023D
:1058B0000DD02A463346FFF727FD7F1E04EBC703B2
:1058C000D3E90023FFF779FC37F00602F1D1022F6C
:1058D00025D0042F13D0062F18BFBDE8F0812A462B
:1058E0003346FFF711FDD4E90A23FFF766FC2A4689
:1058F0003346FFF709FDD4E90823FFF75EFC2A468B
:105900003346FFF701FDD4E90623FFF756FC2A468C
:105910003346FFF7F9FCD4E90423FFF74EFC2A468F
:105920003346FFF7F1FCD4E90223FFF746FC2A4691
:105930003346FFF7E9FCD4E90023BDE8F041FFF767
:105940003CBC00000022134610460149FFF74EBD43
:105950000000F03F0122FFF79BBEFFF72EBC0022A4
:10596000134610461146FFF741BD40F201320020B8
:105970004FF0E041FFF78CBE024A00201107FFF70D
:1059800087BE000001FDFFFF02E008C8121F08C12A
:10599000002AFAD170477047002001E001C1121FB0
:1059A000002AFBD1704700000149086070470000E1
:1059B0009C0000202DE9FF5F82B00021DDE904306A
:1059C000020DDDF840B0034318D044F61050A2F2A7
:1059D000FF3242431514119801281FD0A5EB0B008C
:1059E000401C5FEA000A4FF000064E4FDFF8389186
:1059F000B046504615D5CAF1000413E011980124B1
:105A00004AA3012801D16FEA0B010298119AC0E95B
:105A10000031C0E9024206B0BDE8F09FCBF10000C2
:105A2000DFE704460021404A491842EB0450CDE923
:105A3000001012E0E00707D032463B464046494698
:105A4000FFF762FC8046894632463B4610461946BF
:105A5000FFF75AFC06460F466410002CEAD1DDE938
:105A60000401DDE90023BAF1000F06DAFFF74CFC70
:105A700042464B46FFF748FC05E0FFF7B7FC4246BD
:105A80004B46FFF7B3FC04460E460022284BFFF7B7
:105A90003FFE03D84FF0FF30014607E00022254BC0
:105AA00020463146FFF789FBFFF71AFE102409E074
:105AB000002C0ADB0A220023FFF72AFB039B30326B
:105AC0001A55641E50EA0102F2D1641C039AC4F113
:105AD00011031444119A012A03D0012208430DD165
