:020000040800F2
:100000009051002045010008F9240008FB24000855
:10001000FF24000803250008072500080000000051
:100020000000000000000000000000000B25000898
:100030000D250008000000000F250008112500080C
:100040005F0100085F0100085F0100085F01000810
:100050005F0100085F010008D72400085F01000865
:100060005F0100085F0100085F0100085F010008F0
:100070005F0100085F0100085F0100085F010008E0
:100080005F0100085F0100085F0100085F010008D0
:100090005F0100085F0100085F0100085F010008C0
:1000A0005F0100085F0100085F0100085F010008B0
:1000B0005F0100085F0100085F0100085F010008A0
:1000C0005F0100085F0100085F0100085F01000890
:1000D0005F010008132500085F010008852500085E
:1000E0005F0100085F0100085F0100085F01000870
:1000F0005F0100085F0100085F0100085F01000860
:100100005F0100085F0100085F0100085F0100084F
:100110005F0100085F0100085F0100085F0100083F
:100120005F0100085F0100085F0100085F0100082F
:10013000DFF80CD005F020FB00480047C72200087C
:10014000905100200648804706480047FEE7FEE73A
:10015000FEE7FEE7FEE7FEE7FEE7FEE7FEE7FEE777
:1001600047020008310100080CB500200190009002
:100170006C48006840F480306A49086000BF6948F4
:10018000006800F4003000900198401C0190009835
:1001900018B90198B0F5A06FF1D16248006800F479
:1001A000003010B10120009001E000200090009884
:1001B000012843D15C48006840F010005A490860AB
:1001C0000846006820F0030008600846006840F018
:1001D0000200086053484068524948600846406839
:1001E00048600846406840F48060486008464068BF
:1001F00020F47C1048600846406840F4E8104860ED
:100200000846006840F08070086000BF45480068FC
:1002100000F000700028F9D04248406820F0030048
:10022000404948600846406840F00200486000BF0E
:100230003C48406800F00C000828F9D10CBD10B50E
:10024000FFF792FF10BD10B53648006840F001007E
:1002500034490860084640683449084031494860DC
:1002600008460068324908402E4908600846006880
:1002700020F4802008600846406820F4FE004860B2
:100280004FF41F008860FFF7DAFF4FF00060294944
:10029000086010BD10B5002100200022214B5B68D2
:1002A00003F00C0121B1042906D0082928D107E068
:1002B000214B224C236027E01F4B204C236023E07E
:1002C000184B5B6803F47010164B5B6803F48032C4
:1002D000022303EB904022B9194B4343174C236090
:1002E0000DE0104B5B6803F4003323B1144B434320
:1002F000124C236003E0104B4343104C236003E097
:100300000D4B0E4C236000BF00BF064B5B68C3F370
:1003100003130C4CE15C094B1B68CB40074C23607A
:1003200010BD000000100240002002400000FFF855
:10033000FFFFF6FE08ED00E000127A00000000204A
:1003400000093D000400002031490143314A116099
:10035000704770B5002100230F22C47804B32D4CE0
:10036000246804F4E064C4F5E064210AC1F10403E4
:10037000CA40447804FA03F1847814402143090107
:10038000254C0678A155047804F01F050124AC40E3
:1003900005786D11AD0005F1E025C5F8004109E0D3
:1003A000047804F01F050124AC401C4D067876113A
:1003B00045F8264070BD1A4A0A400243154B1B1FE0
:1003C0001A60704739B1134A121D12680243114B6B
:1003D0001B1D1A6006E00F4A121D126882430D4B66
:1003E0001B1D1A607047042808D14FF0E0210969ED
:1003F00041F004014FF0E022116107E04FF0E021ED
:10040000096921F004014FF0E022116170470000FA
:100410000000FA050CED00E000E400E080E100E0FF
:1004200080FFFF1F10B50446FA48844208D101211D
:10043000401501F085F90021601501F081F917E000
:10044000F548844208D10121001501F079F9002115
:10045000201501F075F90BE0F048844208D1012124
:10046000C80301F06DF900214FF4004001F068F974
:1004700010BD30B50246002000235068E84C2040F3
:100480000D790C6844EA0524204350609068E54CDF
:100490002040D1E902542C434D7944EA45042043DD
:1004A0009060D06A20F470000C7C641EE4B2234398
:1004B00040EA0350D06230BD0021016001714171FA
:1004C0008160C16001210174704721B1826842F0EE
:1004D0000102826003E0826822F0010282607047BC
:1004E00021B1826842F48072826003E0826822F463
:1004F00080728260704710B50023CBB21AB1446895
:100500001C43446002E044689C43446010BD816821
:1005100041F0080181607047014600208A6802F0BE
:1005200008020AB1012000E000207047816841F014
:10053000040181607047014600208A6802F00402CD
:100540000AB1012000E00020704721B1826842F426
:10055000A002826003E0826822F4A00282607047F9
:10056000014600208A6802F480020AB1012000E0FE
:100570000020704710B50A4600210023416821F48D
:100580006041531E41EA4331416010BD21B14268D0
:1005900042F40062426003E0426822F4006242607A
:1005A0007047F0B504460D4600200021092D11DDED
:1005B000E068A5F10A0606EB4607072606FA07F1EA
:1005C0008843A5F10A0606EB460603FA06F108433E
:1005D000E0600CE0206905EB4507072606FA07F105
:1005E000884305EB450603FA06F108432061072A14
:1005F0000FDA606B561E06EB86071F2606FA07F118
:100600008843561E06EB860605FA06F1084360632A
:1006100022E00D2A0FDA206BD61F06EB86071F2675
:1006200006FA07F18843D61F06EB860605FA06F19F
:100630000843206310E0E06AA2F10D0606EB86078E
:100640001F2606FA07F18843A2F10D0606EB86067F
:1006500005FA06F10843E062F0BD21B1826842F478
:100660008012826003E0826822F480128260704708
:100670000146C86C80B2704766484C3000687047CD
:1006800021B1426842F48062426003E0426822F491
:1006900080624260704721B1426842F480524260F9
:1006A00003E0426822F48052426070470A4600210B
:1006B000816821F4E04111438160704721B1826873
:1006C00042F40042826003E0826822F400428260C9
:1006D000704721B1826842F40212826003E08268AE
:1006E00022F4021282607047014600208A6802F4F8
:1006F00000120AB1012000E000207047F0B5044666
:100700001546002000220026092911DDE068A1F12C
:100710000A0707EB470C072707FA0CF29043A1F1F1
:100720000A0707EB470703FA07F21043E0600CE003
:10073000206901EB410C072707FA0CF2904301EB0B
:10074000410703FA07F210432061A06BC0F3015682
:10075000EF1C06F1010CA7EB0C0707EB870C1F271A
:1007600007FA0CF29043EF1C06F1010CA7EB0C0703
:1007700007EB870701FA07F21043A063F0BD10B53D
:100780000A4600210023816B21F44011531E41EAE7
:100790000351816310BD08B5002300930090009BB6
:1007A0000B440093009B1A6008BD08B50246002068
:1007B0000090009201F12800009B184400900098DE
:1007C000006880B208BD0A4600214168164B1940F6
:1007D0001143416070474162826270470A460021BE
:1007E000416821F01F0111434160704740B1094940
:1007F0000831096841F40001064A0832116007E037
:1008000004490831096821F40001024A08321160E4
:10081000704700000024014000280140003C0140D6
:10082000FFFEF0FFFDF7F1FFFFFD3FFF0246002056
:1008300013680B400BB1012000E000207047CA4351
:100840000260704770B502460020002300240B129E
:100850005568CEB205EA060415681D4015B10CB105
:10086000012000E0002070BD00220A12D343036083
:100870007047000001684FF6FE72114001600021D0
:10088000016041608160C1608D49884208D18C4916
:100890000839496841F00F01894A083A51608AE0F5
:1008A00087491431884208D185490839496841F09F
:1008B000F001834A083A51607DE08149283188423D
:1008C00008D17F490839496841F470617C4A083A87
:1008D000516070E07A493C31884208D17849083942
:1008E000496841F47041764A083A516063E07449BE
:1008F0005031884208D172490839496841F4702161
:100900006F4A083A516056E06D496431884208D117
:100910006B490839496841F47001694A083A5160E5
:1009200049E067497831884208D165490839496802
:1009300041F07061624A083A51603CE06149884286
:1009400006D1011F096841F00F01021F116032E05A
:100950005C491431884208D15A49091F096841F09D
:10096000F001584A121F116025E05649283188428B
:1009700008D15449091F096841F47061514A121F96
:10098000116018E04F493C31884208D14D49091F98
:10099000096841F470414B4A121F11600BE049494C
:1009A0005031884207D14749091F096841F4702135
:1009B000444A121F1160704710B50022026847F6C2
:1009C000F0739A430C6A8B6823430C6923434C6988
:1009D00023438C692343CC6923434C6A23438C6AA9
:1009E00023431A430260CB6843600B6883604B6803
:1009F000C36010BD0021016041608160C160016180
:100A000041618161C161016241628162704721B1CE
:100A1000026842F00102026004E002684FF6FE73D1
:100A20001A40026070471AB103680B43036002E08A
:100A300003688B4303607047416070470146486814
:100A400080B2704701460020002201F080531BB1A4
:100A50001C4B083B1A6802E0194B083B1A6802EA73
:100A600001030BB1012000E00020704700F080512D
:100A700019B11449091F086002E01149083948609A
:100A8000704701460020002201F080531BB10D4B3E
:100A9000083B1A6802E00A4B083B1A6802EA0103A5
:100AA0000BB1012000E00020704700F0805119B127
:100AB0000449091F086002E001490839486070478D
:100AC000080002400804024030B943F2DB02810012
:100AD000A1F1C0410A6005E043F2D2028100A1F118
:100AE000C0410A606FF07042411C8900A1F1C04111
:100AF0000A608100A1F1C041C1F8042170471028AB
:100B00000AD118214FF020421166402151664FF062
:100B1000FC319166D16610E01821F74A116040213E
:100B20004FF02042C2F884104FF0FC31F24A0832F4
:100B300011604FF02042C2F88C1070471820EE4927
:100B40002031086000200906C1F8A4004FF0FC30F5
:100B5000E94928310860091D0860091D08607047CF
:100B6000D0E901121143C26811430269114342697D
:100B7000114382691143C2691143026A1143426AF7
:100B80001143826A1143C26A1143026B1143026826
:100B90009200A2F1C0421160816808290BD101685E
:100BA0008900A1F1C041096841F040020168890053
:100BB000A1F1C0410A60416B0968426B526841EA89
:100BC0000211426B926841EA0221426B928941EA2A
:100BD0000241426B128A41EA0251426B127D41EAA4
:100BE0000261426B926911430268521C9200A2F1A9
:100BF000C0421160C16AB1F5804F1BD1816B096899
:100C0000826B526841EA0211826B926841EA0221CA
:100C1000826B128A41EA0251826B127D41EA0261C3
:100C2000826B9269114302689200A2F1C042C2F83D
:100C3000041107E06FF0704201688900A1F1C04122
:100C4000C1F80421704730B5002100220023446818
:100C500044F0080485682C43C5682C4305692C437F
:100C6000456944EA4524856944EA4531C4692468F4
:100C7000C5696D6844EA0524C5692D8944EA0544BF
:100C8000C5692D7B44EA0562046A2468056A6D68BB
:100C900044EA0524056A2D8944EA0544056A2D7B4A
:100CA00044EA05630468102C05D14FF02044216606
:100CB000A266E36608E0904C21604FF02044C4F83F
:100CC00088208D4C0C34236030BD016841F0100148
:100CD000426841EA4221826841EA4231864A203232
:100CE0001160C1680968C268526841EA0221C2689D
:100CF000128941EA0241C268127B41EA02617E4ADE
:100D000028321160016909680269526841EA0221CA
:100D10000269128941EA02410269127B41EA0261D9
:100D2000754A2C321160416909684269526841EA8A
:100D300002214269128941EA02414269127B41EA79
:100D400002614FF02042C2F8B010704700210160EC
:100D50000221416000218160C160016141618161C6
:100D6000C16101624FF480514162490081620021FA
:100D7000C16201630F21426B1160426B5160FF2120
:100D8000426B91600F21426BD160426B1161426BEB
:100D900051610021426B91610F21826B1160826B66
:100DA0005160FF21826B91600F21826BD160826B59
:100DB0001161826B51610021826B9161704710213A
:100DC0000160002141608160C16001614161816118
:100DD000FC21C2691160C2695160C2699160C26937
:100DE000D160026A1160026A5160026A9160026A0F
:100DF000D16070470021016041608160FC21C268C0
:100E00001160C2685160C2689160C268D1600269B5
:100E1000116002695160026991600269D1604269A2
:100E2000116042695160426991604269D1607047C6
:100E300051B18200A2F1C042126842F00103820067
:100E4000A2F1C042136009E08200A2F1C042126820
:100E50002A4B1A408300A3F1C0431A60704799B12E
:100E6000102808D14FF02042126E42F004024FF0D9
:100E700020431A661DE0204A126842F004024FF037
:100E80002043C3F8802014E0102809D14FF02042FD
:100E9000126E1A4BDB1E1A404FF020431A6608E010
:100EA000154A1268154BDB1E1A404FF02043C3F859
:100EB0008020704748B110492031096841F0040191
:100EC0004FF02042C2F8A01009E00B492031096818
:100ED0000A4AD21E11404FF02042C2F8A0107047BB
:100EE000B9B110280CD14FF02042126E42F04002EE
:100EF0004FF020431A661FE0800000A0FEFF0F00A5
:100F0000724A126842F040024FF02043C3F880203A
:100F100012E0102808D14FF02042126E6C4B1A409C
:100F20004FF020431A6607E0684A1268684B1A407F
:100F30004FF02043C3F8802070470146002010295D
:100F400003D14FF02042506F02E0604A1432106823
:100F5000704710B5F2B1102807D14FF020435B6EF7
:100F60000B434FF02044636632E0B0F5807F08D138
:100F7000564B1B1D1B680B434FF02044C4F88430B4
:100F800026E0524B24331B680B434FF02044C4F837
:100F9000A4301DE0102807D14FF020435B6E8B4337
:100FA0004FF02044636613E0B0F5807F08D1474BD3
:100FB0001B1D1B688B434FF02044C4F8843007E0AE
:100FC000424B24331B688B434FF02044C4F8A430B9
:100FD00010BD10B5024600200023102A03D14FF0A7
:100FE0002044636E09E0B2F5807F03D1374C241DA5
:100FF000236802E0354C2434236803EA01040CB171
:10100000012000E0002010BD102807D14FF0204241
:10101000526E8A434FF020435A6613E0B0F5807F4A
:1010200008D12A4A121D12688A434FF02043C3F8A0
:10103000842007E0254A243212688A434FF0204377
:10104000C3F8A420704770B5024600200023002496
:101050000025102A03D14FF02046736E09E0B2F547
:10106000807F03D1194E361D336802E0174E2436B7
:10107000336803EA010403EAD10514B10DB101207C
:1010800000E0002070BD102808D14FF02042526EC1
:1010900022EAD1024FF020435A6615E0B0F5807F76
:1010A00009D10A4A121D126822EAD1024FF02043E8
:1010B000C3F8842008E0054A2432126822EAD102EB
:1010C0004FF02043C3F8A42070470000800000A028
:1010D000BFFF0F0010B50446CC48844208D101215F
:1010E000042000F02DFB0021042000F029FB46E045
:1010F000C748844208D10121082000F021FB0021CB
:10110000082000F01DFB3AE0C248844208D10121CA
:10111000102000F015FB0021102000F011FB2EE044
:10112000BD48844208D10121202000F009FB0021A4
:10113000202000F005FB22E0B848844208D10121BC
:10114000402000F0FDFA0021402000F0F9FA16E0FE
:10115000B348844208D10121802000F0F1FA002137
:10116000802000F0EDFA0AE0AE48844207D1012168
:10117000801500F0E5FA0021A01500F0E1FA10BD9D
:1011800010B50121084600F0DBFA0021012000F033
:10119000D7FA10BD2DE9F0410246002500260020B7
:1011A00000230024002791F803C00CF00F0591F8EC
:1011B00003C00CF0100CBCF1000F03D091F802C07A
:1011C0004CEA050591F800C0BCF1000F31D014685D
:1011D00000202BE04FF0010C0CFA00F3B1F800C036
:1011E0000CEA03069E4220D183004FF00F0C0CFA4C
:1011F00003F7BC4305FA03FC4CEA040491F803C06E
:10120000BCF1280F06D14FF0010C0CFA00FCC2F81B
:1012100014C00AE091F803C0BCF1480F05D14FF0AB
:10122000010C0CFA00FCC2F810C0401C0828D1D3F5
:101230001460B1F800C0BCF1FF0F34DD5468002029
:101240002EE000F1080C4FF0010808FA0CF3B1F899
:1012500000C00CEA03069E4221D183004FF00F0C20
:101260000CFA03F7BC4305FA03FC4CEA040491F8BA
:1012700003C0BCF1280F05D100F1080C08FA0CF8E6
:10128000C2F8148091F803C0BCF1480F07D100F1F7
:10129000080C4FF0010808FA0CF8C2F81080401C46
:1012A0000828CED35460BDE8F0814FF6FF7101806D
:1012B000022181700421C1707047024600209368AA
:1012C0000B400BB1012000E0002070470146886808
:1012D00080B2704702460020D3680B400BB101205A
:1012E00000E0002070470146C86880B27047016185
:1012F0007047416170470AB1016100E04161704788
:10130000C16070474FF480320A438261816182611B
:1013100082698269704702460020434B18684FF685
:101320008073184040EA021008433F4B1860704732
:101330003E49C8617047F0B50A46002300240021E9
:10134000002500F00046B6F1004F02D1364EF1699B
:1013500001E0354E7168C0F3034583B200F44016D6
:10136000B6F5401F08D121F070612F4E766826F047
:1013700070662D4F7E6012E000F48016B6F5801F77
:1013800006D1032606FA05F4A14341F0706106E098
:10139000460D360103FA06F6B14341F0706122B101
:1013A000460D360103FA06F6314300F00046B6F169
:1013B000004F02D11C4EF16101E01B4E7160F0BD87
:1013C00030B500228B071C0F0F2303FA04F2164BD3
:1013D00008338C1053F824309343134C08348D1089
:1013E00044F8253023468C1053F824308C07240F02
:1013F00000FA04F423430C4C08348D1044F82530D3
:1014000030BD0A49DC310860704700000008014027
:10141000000C014000100140001401400018014080
:10142000001C01400020014000000140000020425B
:10143000DF48006840F00100DD4908600846406868
:10144000DC490840DA49486008460068DA49084043
:10145000D74908600846006820F4802008600846E4
:10146000406820F4FE0048604FF41F008860704719
:10147000CF49096821F48031CD4A116011460968CD
:1014800021F480211160B0F5803F03D0B0F5802FAA
:101490000ED106E0C649096841F48031C44A1160A2
:1014A00007E0C349096841F4A021C14A116000E086
:1014B00000BF00BF704710B5014600220023002086
:1014C0004A11012A02D1BA4C236806E0022A02D14D
:1014D000B74C236A01E0B64C636A01F01F02012495
:1014E00094401C400CB1012000E0002010BD38B534
:1014F000002000900024002500BF3120FFF7DBFF13
:1015000005460098401C00900098B0F5A06F01D0EF
:10151000002DF2D03120FFF7CEFF08B1012400E00A
:101520000024204638BD01460020A14A106820F062
:10153000F80040EAC10010607047A0490860704799
:10154000024600209A4B586820F47C1042EA0103BE
:101550001843974B58607047984908667047014692
:101560000020934A506820F0030008435060704701
:101570008F48406800F00C007047014600208C4AFC
:10158000506820F0F000084350607047014600208A
:10159000874A506820F4E060084350607047014675
:1015A0000020834A506820F4605040EAC100506037
:1015B000704729B17E4A527A02437D4B5A7204E049
:1015C0007B4A527A82437A4B5A7270477B49D831B0
:1015D0000860704701460020754A506820F440407A
:1015E0000843506070470021714A20321170704AE0
:1015F00082F82010012802D004280AD104E0012139
:101600006B4A2032117005E00521694A20321170C1
:1016100000E000BF00BF7047694908607047644937
:10162000096A0143624A116270476549443908609A
:10163000704730B500210022002400235C4D6D6806
:1016400005F00C0121B1042905D0082923D105E0BA
:101650005C4D056022E05B4D05601FE0544D6D68F8
:1016600005F47012524D6D6805F48034022505EBC7
:1016700092421CB9544D554305600BE04C4D6D68CA
:1016800005F400351DB1504D5543056002E04D4D48
:101690005543056002E04B4D056000BF00BF444D5F
:1016A0006D6805F0F0010909484D6B5C0568DD4087
:1016B00045603F4D6D6805F4E061090A434D6B5C80
:1016C0004568DD4085603A4D6D6805F46051C90A92
:1016D0003E4D6B5C4568DD40C560354D6D6805F479
:1016E0004041890B3A4D6B5CC568B5FBF3F505616C
:1016F00030BD29B12E4A526902432D4B5A6104E094
:101700002B4A526982432A4B5A61704729B1284AB1
:1017100092690243264B9A6104E0254A926982430A
:10172000234B9A61704729B1214AD2690243204B69
:10173000DA6104E01E4AD26982431D4BDA617047C8
:1017400029B11B4AD2680243194BDA6004E0184AF7
:10175000D2688243164BDA60704729B1144A126985
:101760000243134B1A6104E0114A12698243104B81
:101770001A61704712494039086070470F49C864C0
:1017800070470B49C87170470948406A40F0807043
:1017900007494862704701460020054A92680A409E
:1017A0000AB1012000E000207047014988727047AB
:1017B000001002400000FFF8FFFFF6FE000042426A
:1017C0008004424200127A0000093D00140000200B
:1017D0002400002010B50446BE48844208D10121EF
:1017E0008014FFF7ADFF0021A014FFF7A9FF16E05A
:1017F000B948844208D101210014FFF7AEFF00214F
:101800002014FFF7AAFF0AE0B448844207D101215F
:10181000C013FFF7A2FF0021E013FFF79EFF10BDEA
:1018200010B50022028802F441520B884C882343F1
:101830008C882343CC8823430C8923434C8923433E
:101840008C892343CC8923431A430280838B4FF234
:10185000FF74234083830B8A038210BD2DE9F04F70
:1018600085B005460C464FF0000902274FF00008EE
:101870004FF0010B0026B246A88B4FF24001084002
:10188000A88302202884B5F81C90A068022801D102
:1018900000BF38E0A08810B94FF0010B01E04FF015
:1018A000020B8D48854200D100E000BF6846FFF77B
:1018B000C0FEDDF800A0E088B0F5007F0AD14FEA55
:1018C0001A2000EB80004000A168B0FBF1F0401D41
:1018D00086B20BE04FEA4B10BAFBF0F000EB800051
:1018E0004000A168B0FBF1F0401D86B20A20B6FBB3
:1018F000F0F606F00108A6EB0800C0F34F074FF61C
:10190000FF7000EA0828022F01DBFF2F02DD02270B
:101910004FF00008E08840EA080038432884A08897
:10192000A1890843618808432188084340F4006086
:1019300040EA0909A5F81C9005B0BDE8F08F002128
:10194000018041808180C180018141818181C1818B
:101950000721018270470021018041808180C18080
:101960000221816000218181704721B1028842F00B
:101970004002028004E002884FF6BF731A400280E2
:10198000704721B1828B42F48062828304E0828BB3
:101990004FF6FF331A408283704730B5002400238E
:1019A0000C110125A540ABB21AB185881D43858075
:1019B00002E085889D43858030BD1AB183880B4342
:1019C000838002E083888B438380704781817047E6
:1019D0000146888970474FF6FF62914204D0028821
:1019E00042F48072028004E002884FF6FF631A40DE
:1019F0000280704721B1828842F00402828004E0B4
:101A000082884FF6FB731A408280704702884FF23B
:101A1000FF731A40028002880A43028070470188DF
:101A200041F480510180704721B1028842F4005294
:101A3000028004E002884DF6FF731A40028070476E
:101A400002460020012901D0108B00E0908A7047E7
:101A50000146088A7047B1F5804F04D1028842F4EC
:101A60008042028004E002884BF6FF731A40028035
:101A700070470246002013890B400BB1012000E0A3
:101A800000207047CA4302817047F0B5024600202B
:101A900000240023002501F00F070126BE40B4B248
:101AA0000B1101269E40B3B2968806EA03051689FB
:101AB000264016B10DB1012000E00020F0BD10B5A8
:101AC000002201F00F040123A3409AB2D343038103
:101AD00010BD00000030014000380040003C0040D4
:101AE00010B50446FB48844209D101218803FFF761
:101AF00027FE00214FF48040FFF722FE32E0F64837
:101B0000844209D101214804FFF727FE00214FF448
:101B10000030FFF722FE25E0F048844209D1012180
:101B20008804FFF71AFE00214FF48020FFF715FE0E
:101B300018E0EB48844209D10121C804FFF70DFEEB
:101B400000214FF40020FFF708FE0BE0E548844237
:101B500008D101210805FFF700FE00214FF4801095
:101B6000FFF7FBFD10BD2DE9F04786B005460E4698
:101B70000024A24600BFA1460027B08900B100BFE3
:101B80002F462C8A4CF6FF700440F08804432C82C8
:101B9000AC894EF6F3100440B0883189084371894E
:101BA00008430443AC81AC8A4FF6FF400440B0893F
:101BB0000443AC8201A8FFF73CFDC648874202D12E
:101BC000DDF810A001E0DDF80CA0A88900F40040C9
:101BD00040B10AEBCA0000EB0A1031684900B0FBC3
:101BE000F1F807E00AEBCA0000EB0A10316889003F
:101BF000B0FBF1F86420B8FBF0F004012009642187
:101C000001FB1089A88900F4004040B1322000EBAC
:101C1000C900B0FBF1F000F00700044308E03220F7
:101C200000EB09106421B0FBF1F000F00F00044359
:101C30002C8106B0BDE8F0874FF4165101600021F9
:101C40008180C18001810C21418100218181704707
:101C500010B502460020108A4FF2FF0318400B888F
:101C60004C8823438C882343CC8823431843108219
:101C700010BD0021018041808180C180704721B169
:101C8000828942F40052828104E082894DF6FF731A
:101C90001A4082817047F0B50346002400260025D3
:101CA000002040F66A17B94200D100BF1846C1F3C0
:101CB000421401F01F06012707FA06F5012C01D195
:101CC0000C3004E0022C01D1103000E014301AB1C5
:101CD00007682F43076002E00768AF430760F0BD65
:101CE0001AB1838A0B43838202E0838A8B43838207
:101CF0007047028A4FF6F0731A400282028A0A4342
:101D00000282704782894FF2FF731A408281828972
:101D10000A438281704721B1828942F002028281A6
:101D200004E082894FF6FD731A4082817047028A6F
:101D30004FF6DF731A400282028A0A43028270471A
:101D400021B1028A42F48042028204E0028A4BF608
:101D5000FF731A4002827047C1F308028280704705
:101D600001468888C0F308007047818941F001016D
:101D700081817047028BD2B20283028B42EA012238
:101D800002837047028B02F47F420283028B0A4374
:101D90000283704721B1828A42F02002828204E0ED
:101DA000828A4FF6DF731A408282704721B1828A9D
:101DB00042F01002828204E0828A4FF6EF731A40EA
:101DC0008282704721B1828A42F00802828204E056
:101DD000828A4FF6F7731A408282704721B1828956
:101DE00042F40042828103E08289C2F30E028281C2
:101DF000704721B1828A42F40062828204E0828AC2
:101E00004FF2FF731A4082827047828A4FF6FB734B
:101E10001A408282828A0A438282704721B1828A72
:101E200042F00202828204E0828A4FF6FD731A4079
:101E30008282704702460020B1F5007F00D100BFCA
:101E400013880B400BB1012000E00020704701F423
:101E50000072B2F5007F00D100BFCA430280704714
:101E600070B50246002400230025002040F66A16C3
:101E7000B14200D100BFC1F3421501F01F0301269A
:101E800006FA03F3012D02D19689334006E0022DB4
:101E900002D1168A334001E0968A33400C120126A3
:101EA00006FA04F41688344013B10CB1012000E0A6
:101EB000002070BD10B50022002340F66A14A14234
:101EC00000D100BF0A1201249440A3B2DC43048075
:101ED00010BD0000003801400044004000480040B0
:101EE000004C00400050004001B502E00098401E48
:101EF000009000980028F9D108BD70B59AB0FA4852
:101F0000D0E904532A46F9A101A803F0B9FC05233E
:101F1000002201A9012002F0DAFDFE480078F0B1AC
:101F200002F0C9FD00BF02F028FD0446002CFAD0E3
:101F3000042C0FD100BFF8A1FAA002F09EFB0028EC
:101F4000F9D000BF0523FAA2FBA1002002F0D2FBCA
:101F50000028F7D000BF02F099FD0028FBD01AB08E
:101F600070BD30B599B0E048D0E90441F6480CC8DE
:101F7000204603F0EDFA32D201F0C8FEC088000519
:101F8000040C204601F0D7FE4FF4FC6001F0CDFEBA
:101F9000D548D0E904432246ECA1684603F070FC22
:101FA00001F0B4FEC08800EBC00084B2204601F00E
:101FB000C2FE01F0ABFEC08800EBC00084B26946EF
:101FC000204601F0D1FB2020E64908600020E649C8
:101FD00008604FF48071E548FFF78BF93AE04FF461
:101FE000784001F0A2FEC048D0E904432246D7A1C0
:101FF000684603F045FC01F089FEC08800EBC00094
:1020000084B2204601F097FE01F080FEC08800EB0C
:10201000C00084B26946204601F0A6FB01F076FEBE
:10202000C0880005040CD2A1204601F09DFBD8A079
:1020300003F016FC2020CB49091D08600120091F70
:102040000860022008600120C74908600102C748F3
:10205000FFF74DF919B030BD2DE9FC47044617468E
:102060009846D4E908532A46D4E90091484603F03B
:10207000C0F8C4E90201D4E90A532A46D4E902911E
:10208000484603F0B6F8CDE9000102460B46D4E914
:1020900002562846314603F0C5F9C4E90601D4E9E1
:1020A00004532A463846414603F044F98146D4E9B0
:1020B00006532A4603F044F9CDE90001D4E904535C
:1020C0002A4603F096F8C4E90401D4E906532A46E7
:1020D0000020BC4903F02EF98146D4E902532A4678
:1020E00003F02EF9C4E90001D4E90401BDE8FC873E
:1020F0002DE9FC5FB449888803F003FA06463246AE
:102100000B46B248FFF7A8FF044603F007FAAE49B2
:102110008880888803F0F5F906460022AC4B03F06E
:1021200081F904464FF06632AA4B03F009F9AA4A36
:10213000C2E9040110464FF06632A64BD0E90461B3
:10214000304603F06FF9804604F05CFA0446002242
:10215000A24B03F0F5F88246A14AA24B03F0EAF83D
:1021600002460B46CDE9000100209F4904F0BCFA6D
:102170005D4AC2E90401BDE8FC9F70B501F0C6FDEF
:10218000C08800EB400084B298A1204601F0ECFA30
:102190004FF4FC6001F0C9FD6B489BA10CC89F483F
:1021A00003F06EFB01F0B2FDC08800EB400040047C
:1021B000040C204601F0BFFD01F0A8FDC08800EB33
:1021C00040004004040C9549204601F0CDFA4FF43C
:1021D000FC6001F0AAFD924892A10CC8964803F059
:1021E0004FFB01F093FDC088C0EBC00084B22046D5
:1021F00001F0A1FD01F08AFDC088C0EBC00084B2EF
:102200008D49204601F0B0FA4FF4FC6001F08DFDDD
:102210003548D0E90443224688A18E4803F030FBBC
:1022200001F074FDC08800EBC00084B2204601F0CC
:1022300082FD01F06BFDC08800EBC00084B28549CF
:10224000204601F091FA4FF4FC6001F06EFD264843
:10225000D0E90643224680A1844803F011FB01F037
:1022600055FDC08800EB80004004040C204601F0BE
:1022700062FD01F04BFDC08800EB80004004040CBF
:102280007A49204601F070FA01F040FDC08800EB69
:10229000800101EBC00084B2204601F04CFD70BD0E
:1022A00000214848494AC2E900109160D16011619B
:1022B000516100209061D061116251626C496D489A
:1022C000C2E90A10704708B500F075FA02F01AFE6C
:1022D00002F00AFF00F04EFA02F032F8FFF7E0FFDA
:1022E00002F0C8F8C8E000002001002048796472BC
:1022F0006F67656E20636F6E63656E74726174697B
:102300006F6E206973203A2025672070706D200D54
:102310000A0000008C0000205A7966303632332ED5
:102320002E000000496D706172742033303300005C
:1023300032363638000000003139322E3136382E30
:1023400033312E32370000002800002048796472B3
:102350006F67656E20434F4E433A202567207070AB
:102360006D000000100C0140380000200008014002
:102370002020202020A3A1A3A1A3A15741524E4970
:102380004E4720A3A1A3A1A3A1202020000000006C
:10239000A3A1A3A1A3A154686520636F6E63656EBA
:1023A00074726174696F6E2065786365656473200B
:1023B000746865207468726573686F6C64A3A1A308
:1023C000A1A3A1000000F03F8001002098000020A0
:1023D0000000B04066660A40F0000020000004C023
:1023E000CDCCCCCCCCCCF43F0000244048796472F6
:1023F0006F67656E20646574656374696F6E2073C2
:10240000797374656D000000434F4E432054485269
:102410003A25672070706D2000000000C800002081
:10242000300000206C65616B6167652072617465C6
:10243000205448523A256700D2000020487964723F
:102440006F67656E20434F4E433A25672070706D6D
:1024500020000000DC0000204C65616B6167652096
:10246000726174653A25672000000000E6000020D4
:102470007B14AE47E17A843F00F04BFE062000F06B
:10248000BFFD02F007FC144801F03DFC00214FF6AF
:10249000FF7001F03EFC11480388114802880021BA
:1024A000084600F091FEFFF768FE13E0FFF720FEFC
:1024B000FFF757FDFFF721FD0A48006800900A4822
:1024C000D0E90443224609A003F0CAF96FF07F4027
:1024D000FFF70AFDEAE77047500000203E000020A9
:1024E0003C00002038000020200100202566202527
:1024F00064200D0A00000000704700BFFEE700BF27
:10250000FEE700BFFEE700BFFEE770477047704779
:10251000704710B540F225513C48FFF7A1FCD8B1F7
:102520003A48FFF71DFCC4B23948B0F80004C0F3C4
:102530000E0040F2FF3188420EDA3549B1F800143E
:10254000C1F30E00411C324AB2F8002461F30E02BE
:102550002F49A1F800240C5440F224412B48FFF7E6
:102560007FFC01280DD12A48B0F8000420F4004077
:1025700000F500402649A1F800042448FFF7F0FBCD
:10258000C4B210BD10B540F225512248FFF768FCD7
:10259000D8B12048FFF7E4FBC4B21F48B0F80004EC
:1025A000C0F30E0040F2FF3188420EDA1A49B1F84A
:1025B0000014C1F30E00411C174AB2F8002461F365
:1025C0000E021549A1F800240C5440F22441114890
:1025D000FFF746FC012817D10F48B0F8000420F49B
:1025E000004000F500400C49A1F800040948FFF73D
:1025F000B7FBC4B209A1084802F0E9FD08B1012007
:1026000000E000200849087010BD000000380140BB
:102610008E490020004800408C450020434C4F5319
:1026200045440D0A000000008C00002008B501217F
:102630001020FFF76BF83F20ADF8000000208DF868
:10264000030069464E48FEF7A5FD08BD00B591B0F0
:1026500001210846FFF74DF801214802FFF756F81F
:102660004848FEF707F94848069048480790002078
:1026700008900620099000200A9080200B904000CE
:102680000C9080000D9020200E9000020F900020F2
:10269000109006A93B48FEF78FF901213948FEF753
:1026A000B6F90020019001208DF808008DF809008E
:1026B0004FF4602003900020049006208DF8140051
:1026C00001A931484C38FDF7D4FE4FF44040FEF7E5
:1026D00081FF052301220A212B484C38FDF761FFB9
:1026E000052302220B2128484C38FDF75AFF052309
:1026F00003220C2124484C38FDF753FF0523042204
:102700000D2121484C38FDF74CFF05231A460E21B8
:102710001D484C38FDF745FF052306220F211A48B6
:102720004C38FDF73EFF012117484C38FDF7D8FE25
:10273000012115484C38FDF7C8FE13484C38FDF709
:10274000E6FE00BF10484C38FDF7E6FE0028F9D140
:102750000D484C38FDF7EAFE00BF0B484C38FDF73A
:10276000EAFE0028F9D1012107484C38FDF7EDFEBB
:1027700011B000BD10B5FFF759FFFFF767FF10BD9F
:1027800000100140080002404C240140800100205C
:1027900008B54FF4A060FDF7D7FD25208DF80000A7
:1027A00001208DF801008DF802008DF803006846C5
:1027B000FDF7CFFD08BD00B585B001210420FEF76F
:1027C000A5FF01218803FEF7A1FF4FF40070ADF8CB
:1027D000100018208DF8130003208DF8120004A9B2
:1027E0005248FEF7D7FC4FF48060ADF8100004208B
:1027F0008DF8130004A94D48FEF7CCFC4FF4E130EE
:1028000000900020ADF80400ADF80600ADF8080017
:10281000ADF80C000C20ADF80A0069464448FFF7FB
:10282000A2F9FFF7B5FF012240F225514048FFF71A
:1028300032FA01213E48FFF722FA05B000BD70B51B
:1028400004460D4629462046FFF786FA00BF802140
:102850002046FFF7EFFA0028F9D070BD2DE9F041CE
:1028600007460D461646002405E0295D3846FFF769
:10287000E6FF601CC4B2B442F7DB00BF402138461B
:10288000FFF7D8FA0028F9D0BDE8F08170B5064608
:102890000C46002500BF615D3046FFF7D0FF6D1C80
:1028A000605D0028F7D100BF40213046FFF7C2FA33
:1028B0000028F9D070BD2DE9F04105460C46260AE6
:1028C000E7B231462846FFF747FA00BF8021284685
:1028D000FFF7B0FA0028F9D039462846FFF73CFA4E
:1028E00000BF80212846FFF7A5FA0028F9D0BDE8EF
:1028F000F08170B504460D46E1B20D48FFF72CFAA1
:1029000000BF80210A48FFF795FA0028F9D0204639
:1029100070BD10B5044600BF20210548FFF78AFAB4
:102920000028F9D00248FFF71BFA10BD000801404B
:102930000038014001B502E00098401E0090009868
:102940000028F9D108BD08B501216020FEF7DEFEA0
:1029500003208DF8020018208DF803004FF480400A
:10296000ADF800006946FE48FEF714FC4FF4004045
:10297000ADF800006946FA48FEF70CFC0120ADF8FE
:1029800000006946F648FEF705FC0220ADF800009D
:102990006946F348FEF7FEFB8020ADF8000069466B
:1029A000F048FEF7F7FB4FF48070ADF80000694681
:1029B000EC48FEF7EFFB4FF40070ADF800006946FD
:1029C000E848FEF7E7FB4FF48060ADF80000694689
:1029D000E448FEF7DFFB4FF40060ADF80000694605
:1029E000E048FEF7D7FB4FF48050ADF80000694691
:1029F000DC48FEF7CFFB4FF40050ADF8000069460D
:102A0000D848FEF7C7FB4FF48040ADF80000694698
:102A1000D448FEF7BFFB4FF40040ADF80000694614
:102A2000D048FEF7B7FB4FF48070ADF80000694660
:102A3000CB48FEF7AFFB4FF40070ADF800006946DD
:102A4000C748FEF7A7FB4FF48060ADF80000694669
:102A5000C348FEF79FFB03208DF8020018208DF875
:102A600003001020ADF800006946BD48FEF792FB58
:102A70002020ADF800006946B948FEF78BFB8020A6
:102A8000ADF800006946B648FEF784FB4FF40060DD
:102A9000ADF800006946B248FEF77CFB10208DF8C7
:102AA000030003208DF802000220ADF80000694603
:102AB000AC48FEF76FFB10208DF8030003208DF863
:102AC00002004FF48050ADF800006946A448FEF7BC
:102AD00061FB08BD00B597B03C2108A802F06CFB73
:102AE0001C2101A802F068FB01210802FEF701FE8B
:102AF000012001900420039080060790002002909E
:102B00000490059006900890099008200A901020E3
:102B10000B9000200C900E900F9010904FF480506E
:102B20001190002012901390149001A81590169007
:102B300008A8FEF715F801210020FEF779F917B073
:102B400000BD10B50024042002F080FE00BF8648BE
:102B5000008800BF8448008802F072FE04464FF6E9
:102B6000FF7000EA042402F06BFE044348F2525066
:102B7000844201D1204610BDD32002F067FE00BF81
:102B80007948008800BF7848008802F059FE044662
:102B90004FF6FF7000EA042402F052FE044349F2AB
:102BA0004130844201D12046E5E70020E3E710B53B
:102BB000FFF7C7FF6D4908800846008849F2413198
:102BC00088427CD1CF2002F041FE002002F042FE7C
:102BD000812002F03FFE302002F03CFEED2002F0AA
:102BE00035FE642002F036FE032002F033FE122090
:102BF00002F030FE812002F02DFEE82002F026FED9
:102C0000852002F027FE102002F024FE782002F03A
:102C100021FECB2002F01AFE392002F01BFE2C20F0
:102C200002F018FE002002F015FE342002F012FE21
:102C3000032002F00FFEF72002F008FE202002F031
:102C400009FEEA2002F002FE002002F003FE00204E
:102C500002F000FEB12002F0F9FD002002F0FAFDC2
:102C60001B2002F0F7FDB62002F0F0FD0A2002F072
:102C7000F1FDA22002F0EEFDC02002F0E7FD3520BC
:102C800002F0E8FDC12002F0E1FD112002F0E2FDBA
:102C9000C52002F0DBFD452002F0DCFD452002F0FE
:102CA000D9FDC72002F0D2FDA22002F0D3FDF22010
:102CB00002F0CCFD002002F0CDFD262000E0A2E0D5
:102CC00002F0C4FD012002F0C5FDE02002F0BEFDCF
:102CD0000F2002F0BFFD262002F0BCFD242002F0F0
:102CE000B9FD0B2002F0B6FD0E2002F0B3FD092065
:102CF00002F0B0FD542002F0ADFDA82002F0AAFDC4
:102D0000462002F0A7FD0C2002F0A4FD172002F0DF
:102D1000A1FD092002F09EFD0F2002F09BFD07207F
:102D200002F098FD002002F095FDE12002F08EFDFA
:102D3000002002F08FFD192002F08CFD1B2002F014
:102D400089FD042002F086FD102002F083FD07209B
:102D500002F080FD2A2002F07DFD472008E00000FF
:102D600000140140001801400000026042000020F1
:102D700002F070FD392002F06DFD032002F06AFDC3
:102D8000062002F067FD062002F064FD302002F00C
:102D900061FD382002F05EFD0F2002F05BFD362061
:102DA00002F054FDC82002F055FD2A2002F04EFD2D
:102DB000002002F04FFD002002F04CFD002002F048
:102DC00049FDEF2002F046FD2B2002F03FFD0020E0
:102DD00002F040FD002002F03DFD012002F03AFD2E
:102DE0003F2002F037FD3A2002F030FD552002F07E
:102DF00031FD112002F02AFDFD48FFF79BFD29203F
:102E000002F024FDFBE0FB48008848F25251884262
:102E1000F8D1CF2002F01AFD002002F01BFDC120E6
:102E200002F018FD302002F015FDED2002F00EFD3D
:102E3000642002F00FFD032002F00CFD122002F0CE
:102E400009FD812002F006FDE82002F0FFFC85204C
:102E500002F000FD102002F0FDFC782002F0FAFCE8
:102E6000CB2002F0F3FC392002F0F4FC2C2002F01D
:102E7000F1FC002002F0EEFC342002F0EBFC02201A
:102E800002F0E8FCF72002F0E1FC202002F0E2FC76
:102E9000EA2002F0DBFC002002F0DCFC002002F063
:102EA000D9FCC02002F0D2FC212002F0D3FCC120CA
:102EB00002F0CCFC112002F0CDFCC52002F0C6FCD3
:102EC0002D2002F0C7FC332002F0C4FC362002F0B3
:102ED000BDFC002002F0BEFC3A2002F0B7FC5520F9
:102EE00002F0B8FCB12002F0B1FC002002F0B2FC0C
:102EF000172002F0AFFCB62002F0A8FC0A2002F076
:102F0000A9FCA22002F0A6FCF62002F09FFC012002
:102F100002F0A0FC302002F09DFCF22002F096FCB2
:102F2000002002F097FC262002F090FC012002F025
:102F300091FCE02002F08AFCD02002F08BFC002003
:102F400002F088FC022002F085FC072002F082FCDF
:102F50000B2002F07FFC1A2002F07CFC312002F0F2
:102F600079FC542002F076FC402002F073FC29200A
:102F700002F070FC122002F06DFC122002F06AFCDC
:102F8000122002F067FC172002F064FCE12002F03E
:102F90005DFCD02002F05EFC002002F05BFC022011
:102FA00002F058FC072002F055FC052002F052FC0C
:102FB000252002F04FFC2D2002F04CFC442002F0B2
:102FC00049FC452002F046FC1C2002F043FC18207E
:102FD00002F040FC162002F03DFC1C2002F03AFCFE
:102FE0001D2002F037FC112002F030FC8048FFF772
:102FF000A1FC292002F02AFC2C2002F027FC10BDA5
:1030000010B50446072C00DD10BD7B480470204637
:1030100004EBD0714910A4EB410139B9F020774994
:1030200008804FF4A0707649088006E04FF4A07045
:1030300072490880F02072490880362002F006FCB0
:103040006C48008849F24131884205D1082141EAA3
:10305000441002F0FFFB0AE06648008848F2525133
:10306000884204D1002141EA441002F0F3FB2A20F7
:1030700002F0ECFB002002F0EDFB002002F0EAFB86
:103080005E490988491EC1F3072002F0E3FB5B4952
:103090000978491EC8B202F0DDFB2B2002F0D6FBF6
:1030A000002002F0D7FB002002F0D4FB544909882D
:1030B000491EC1F3072002F0CDFB51490978491E92
:1030C000C8B202F0C7FB2C2002F0C0FB00BF9BE798
:1030D00010B502214B48FEF70CF940F6FF20FFF730
:1030E00029FC02214748FEF702F940F6FF20FFF7CE
:1030F00021FC10BD10B504462CB14FF4805142485C
:10310000FEF7F7F804E04FF480513F48FEF7EFF880
:1031100010BD10B5FFF717FCFFF7DCFC0120FFF72F
:10312000E9FFFFF7D5FFFFF742FD33480078FFF7CF
:1031300067FF10BD2DE9F04104460D4616461F46B7
:103140002A2002F083FB201202F084FBE0B202F09E
:1031500081FBA119491EC1F30F2002F07BFBA119CD
:10316000491EC8B202F076FB2B2002F06FFB28123A
:1031700002F070FBE8B202F06DFBE919491EC1F3E1
:103180000F2002F067FBE919491EC8B202F062FB8A
:10319000BDE8F08170B504460D4601231A46294664
:1031A0002046FFF7C7FF70BD70B504460D460026E8
:1031B0002C2002F04BFB00BF03E0284602F04AFB44
:1031C000761CA642F9D370BD2DE9F04106460F46A4
:1031D00014461D462B46224639463046FFF7AAFFC5
:1031E00004FB05F009490988FFF7DEFFBDE8F0811F
:1031F000FCBF020042000020400000203C000020F4
:103200003E00002000180140001401404A00002048
:1032100070B505460C46FE48008885420CDAFD482C
:103220000088844208DA21462846FFF7B3FFFA48AF
:1032300001880120FFF7B8FF70BD70B5002400259C
:103240002E2002F003FB00BFF448008802F0F8FAD9
:10325000044602F0F5FA054604F478404FF4FC61A8
:1032600001EAC401084340EAE52070BD70B5044698
:103270000D4629462046FFF78DFFFFF7DEFF064685
:10328000304670BD2DE9FF4F83B081464FF0000AF4
:10329000D3460598A0EB090504990698461ACDF87F
:1032A000049004980090002D01DD012705E00DB980
:1032B000002702E04FF0FF376D42002E02DD4FF095
:1032C000010806E016B94FF0000802E04FF0FF38A1
:1032D0007642B54201DD2C4600E0344600200290E3
:1032E00019E0DDE90010FFF793FFAA44B344A245BB
:1032F00005DDAAEB040A0198384480B20190A34589
:1033000005DDABEB040B0098404480B200900298BE
:10331000401C80B20290611C02988842E1DD07B037
:10332000BDE8F08F2DE9F04104460D4616461F46D4
:10333000DDF81880B8F1000F0CD03B463246294624
:103340002046FFF7F7FE06FB07F0B3490988FFF7B1
:103350002BFF27E0A019401E82B22B4629462046AB
:10336000FFF790FFE819401E83B2A019401E82B2F9
:10337000E819401E81B22046FFF784FFE819401E7D
:1033800083B2224629462046FFF77CFFE919491EF1
:103390008BB2A119491E8AB2A119491E88B22946C9
:1033A000FFF770FFBDE8F0812DE9F05F05460E469E
:1033B00091469B4600240FFA89F70320A0EB4900B1
:1033C0000FFA80FA87E0BBF1000F40D0A0463BE047
:1033D00006EB080291B22A1990B2FFF719FF06EB2B
:1033E000080291B22A1B90B2FFF712FF321991B274
:1033F000A5EB080290B2FFF70BFF321B91B2A5EBD1
:10340000080290B2FFF704FFA6EB080291B22A1B54
:1034100090B2FFF7FDFEA6EB080291B22A1990B216
:10342000FFF7F6FE321B91B205EB080290B2FFF7F0
:10343000EFFE321991B205EB080290B2FFF7E8FEF9
:1034400008F101000FFA80F8B845C1DD2FE0F2194C
:1034500091B22A1990B2FFF7DBFEF21991B22A1B42
:1034600090B2FFF7D5FE321991B2EA1B90B2FFF786
:10347000CFFE321B91B2EA1B90B2FFF7C9FEF21BDE
:1034800091B22A1B90B2FFF7C3FEF21B91B22A1928
:1034900090B2FFF7BDFE321B91B2EA1990B2FFF76E
:1034A000B7FE321991B2EA1990B2FFF7B1FE601C73
:1034B00004B2BAF1000F05DAA000801D50440FFAE3
:1034C00080FA07E0E01B80000A3050440FFA80FACF
:1034D000781E07B200BFBC427FF775AFBDE8F09F12
:1034E0002DE9F05F804689461646A6F120001FFAB6
:1034F00080FA4B4909688988494A1268D28801FBD9
:1035000002F0C11700EB5171C1F3C70744480068CE
:1035100000680AFB070B42480068C38840480068FF
:10352000828849464046FFF705FE2C2002F08EF9BE
:10353000002416E0002510E01BF80400802129413A
:10354000084020B13448008802F084F903E035488F
:10355000008802F07FF9681CC5B2082DECDB601C06
:10356000C4B2BC42E6DBBDE8F09F70B504460D4630
:10357000002624E030462A490968898808442449FD
:103580000988884205DD002625480068C088204457
:1035900084B2204622490968C98808441D4909881F
:1035A000884201DD002600242A7821463046FFF7B4
:1035B00097FF6D1C1A4800688088304486B22878CE
:1035C0000028D7D170BD70B505460E46144631E0CF
:1035D000284613490968898808440D4909888842A2
:1035E00005DD00250E480068C088304486B23046AC
:1035F0000B490968C988084406490988884201DDE1
:1036000000250026227831462846FFF769FF0BE0A7
:103610003C0000203E000020480000200000026026
:10362000440000204A000020641CFB480068808899
:10363000284485B220780028CAD170BD70B50546EF
:103640000E46144624E03046F3490968C988084408
:10365000F2490988884205DD0026EF480068808825
:10366000284485B22846EC49096889880844EC4911
:103670000988884201DD0025002622783146284647
:10368000FFF72EFF641CE4480068C088304486B20F
:1036900020780028D7D170BD2DE9F04389B080464D
:1036A0008946174610231A4649464046FFF742FD11
:1036B0002C2002F0CBF8394601A800F017FE0024B8
:1036C00022E001A810F814604FF6FF7000EA062609
:1036D000012000EB440001A9085C064300250FE02F
:1036E0004FF400402841304020B1CE48008802F01D
:1036F000B1F803E0CC48008802F0ACF8681CC5B211
:10370000102DEDDB601CC4B2102CDADB09B0BDE873
:10371000F0832DE9F04105460F4614461FE0284688
:103720001030BF490988884203DD002507F11000E9
:1037300087B238461030B9490988884201DD002532
:1037400000272688300200EB262086B23246394612
:103750002846FFF7A1FF05F1100085B2A41C2078D0
:103760000028DCD1BDE8F0812DE9F04105460C468A
:10377000002648E020787E2825DC3046A6490968E6
:1037800089880844A6490988884205DD0026A248A0
:103790000068C088284485B228469F490968C988BE
:1037A00008449E490988884201DD002600252278C8
:1037B00029463046FFF794FE9748006880883044D9
:1037C00086B2641C1FE03046103095490988884253
:1037D00003DD002605F1100085B2284610308F4920
:1037E0000988884201DD002600252788380200EB81
:1037F000272087B23A4629463046FFF74DFF06F1AB
:10380000100086B2A41C20780028B3D1BDE8F08156
:103810002DE9F04105460E46144648E020787E2802
:1038200025DC28467C490968898808447C49098840
:10383000884205DD002578480068C088304486B29B
:10384000304675490968C98808447449098888421E
:1038500001DD00250026227831462846FFF740FE8C
:103860006D4800688088284485B2641C1FE02846A3
:1038700010306B490988884203DD002506F11000ED
:1038800086B23046103065490988884201DD00253E
:1038900000262788380200EB272087B23A463146B7
:1038A0002846FFF7F9FE05F1100085B2A41C207828
:1038B0000028B3D1BDE8F0812DE9F04106460D4660
:1038C00014462CE02846103054490988884203DD0C
:1038D000002506F1100086B23046103050490988A4
:1038E000884201DD0026002520787E2809DC227828
:1038F00029463046FFF7F4FD641C05F1100085B23F
:103900000DE02788380200EB272087B23A46294687
:103910003046FFF7C1FE05F1100085B2A41C2078E7
:103920000028CFD1BDE8F0812DE9FC4F0C461E46A2
:103930004FEA004A9AFBF2FA0AF1010ACDF804A014
:103940004FEA044A9AFBF6FA0AF1010ACDF800A000
:103950004FF00009202801DBBDE8FC8F00FB04FAD2
:10396000BAF1000F00D1F7E700FB04FABAF5806F57
:1039700000DBF1E702FB06FABAF1000F00D1EBE73A
:1039800002FB06FABAF5804F00DBE5E7274BDDF8CE
:1039900034A0BAF1000F2BD100211FE0002517E061
:1039A000DDF82CA01AF801A04FF0800B4BFA05FBB4
:1039B0000AEA0B0ABAF1000F02D04FF0010A01E047
:1039C0004FF0000A03F801AB05F1010A1FFA8AF56E
:1039D000082DE5DB01F1010A1FFA8AF104FB00FA68
:1039E0004FEAEA7B0AEB5B7BB1EBEB0FD6DB36E011
:1039F00000212BE0002523E0DDF82CA01AF801A01F
:103A00004FF0800B4BFA05FB0AEA0B0ABAF1000FE4
:103A10000ED04FF0010A0DE0440000203E000020CF
:103A20003C000020480000204A0000208C4100207B
:103A30004FF0000A03F801AB05F1010A1FFA8AF5FD
:103A4000082DD9DB01F1010A1FFA8AF104FB00FA03
:103A50004FEAEA7B0AEB5B7BB1EBEB0FCADBBC4BBB
:103A6000BC4F4FF0000C1AE04FF0000A4FEA194B20
:103A700000FB0B3ED0460AE00EEB1A4B9BF800B061
:103A800007F808B0DDF804B0DA4408F10108904501
:103A9000F2D3DDF800B0D94417440CF1010CB44561
:103AA000E2D3DFF8B0A2CDF830A0DDF830A00AF103
:103AB000010ACDF830A000BF4EE72DE9F05F814646
:103AC0008A4614461D46DDE90A6B0027B8462B4698
:103AD000224651464846FFF72DFB2C2001F0B6FE4A
:103AE00000BF14E04FF000080EE016F8011B594526
:103AF00004D19948008801F0ADFE03E097480088A2
:103B000001F0A8FE08F10108A045EED37F1CAF42EA
:103B1000E8D3BDE8F09F2DE9F04F8FB00646884608
:103B200014469946DDE9185B274669E0304638447B
:103B30008B490988884204DD002608EB09001FFA3A
:103B400080F84046484487490988884201DD0026BC
:103B5000B0462878802825DD2746B5F800A04FEA32
:103B60000A2000EB2A201FFA80FA514605A800F02F
:103B7000BDFB012105AA0E984B46CDE9002002911C
:103B80003A4610210846FFF7CFFE72484B463A46A8
:103B90004146CDE9000B3046FFF78FFFF01986B2A2
:103BA000AD1C2DE0204604EBD071C1F34F072878FF
:103BB0002038C0B20D9000236B48C288DDE90D01AA
:103BC0005043694A92885043C217049000EB5270E8
:103BD000654A126802EBE0008DE80B004B463A465E
:103BE00018211020FFF7A0FE5A484B463A4641469E
:103BF000CDE9000B3046FFF760FFF01986B26D1C6F
:103C00002878002892D10FB0BDE8F08F2DE9F04F51
:103C10008FB080460E4614461F46DDE9185A0E94B2
:103C20006BE0304620444E490988884204DD002676
:103C300008EB04001FFA80F84046384449490988D7
:103C4000884201DD0026B0462878802825DD0E94C4
:103C5000B5F800904FEA092000EB29201FFA80F9FF
:103C6000494604A800F042FB012104AA0D983B46F6
:103C7000CDE900200291102108460E9AFFF754FE6C
:103C800034483B46CDE9000A314640460E9AFFF7DC
:103C900014FFF01986B2AD1C2FE0204604EBD07162
:103CA000C1F34F010E9128782038C0B20C90002348
:103CB0002D48C288DDE90C0150432B4A928800FB55
:103CC00002FB4FEAEB700BEB5070274A126802EBD5
:103CD000E0008DE80B003B46182110200E9AFFF7FC
:103CE00023FE1C483B46CDE9000A314640460E9A69
:103CF000FFF7E3FEF01986B26D1C2878002890D1FA
:103D00000FB0BDE8F08F1949086070471748006888
:103D10007047124A1080104A118070470F4A12886B
:103D200002800D4A12880A8070470C49088070474B
:103D300009490880704770B50446FFF7E7FFC5885A
:103D40002B460748028821460020FFF73DFA70BD48
:103D50008C4100208C0100204A00002048000020F7
:103D60003C0000203E0000205800002044000020BD
:103D700000B587B001210803FDF7C8FC0121D4205C
:103D8000FDF7C4FC0120ADF8040003208DF8060007
:103D900010208DF8070001A9FE48FDF7FBF920204F
:103DA000ADF8040018208DF8070001A9FA48FDF7C6
:103DB000F1F94020ADF8040001A9F748FDF7EAF950
:103DC0008020ADF8040001A9F348FDF7E3F90121D3
:103DD000F048FDF78CFA0020ADF808004FF482702F
:103DE000ADF80A000020ADF80C000220ADF80E007E
:103DF0000120ADF810004002ADF812000820ADF827
:103E000014000020ADF816000720ADF8180002A934
:103E1000E248FDF705FD0121E048FDF7A6FD07B0EA
:103E200000BD10B504462146DDA001F019FD0020BB
:103E300010BD10B504464FF48050E54908600AE013
:103E4000E3490868411EE24A116020B90020FFF7EB
:103E5000E8FFC0B210BD0221D048FDF70AFE0028DD
:103E6000EED02146CD48FDF7B1FD4FF48050D84942
:103E700008600AE0D6490868411ED54A116020B999
:103E80000120FFF7CEFFC0B2E4E70121C348FDF7F0
:103E9000F0FD0028EED0C148FDF79AFDC0B2D9E789
:103EA00010B500240121BB48FDF723FA0520FFF7D8
:103EB000C0FF00BFFF20FFF7BCFF044604F0010075
:103EC0000028F7D10121B348FDF711FA10BD10B554
:103ED0000121B048FDF70DFA0620FFF7AAFF0121E6
:103EE000AC48FDF704FA10BD10B50446FFF7EFFF2C
:103EF000FFF7D6FF0121A748FDF7FBF92020FFF7C8
:103F000098FFC4F30740FFF794FFC4F30720FFF7BF
:103F100090FFE0B2FFF78DFF01219E48FDF7E7F922
:103F2000FFF7BEFF10BD10B5FFF7D1FF0121994883
:103F3000FDF7DFF9C720FFF77CFF01219548FDF76A
:103F4000D6F9FFF7ADFF10BD70B505460C46164615
:103F5000FFF7BDFF01218F48FDF7CBF90220FFF7E6
:103F600068FFC4F30740FFF764FFC4F30720FFF7BF
:103F700060FFE0B2FFF75DFFB6F5807F04DD4FF430
:103F8000807694A001F06CFC03E02878FFF751FFE5
:103F90006D1C301EA6F101018EB2F6D101217D48C3
:103FA000FDF7A5F9FFF77CFF70BD2DE9F05F07462F
:103FB0000E4614464FF00008C146C2460025AB46E7
:103FC00006F0FF0ACAF10000C5B22046E11704EB73
:103FD0001161C1F30728E11704EB11610912A4EB89
:103FE000012101F0FF09BAF1000F20D1B8F1000F53
:103FF00005D1224631463846FFF7A6FF64E009E0C6
:104000004FF4807231463846FFF79EFF06F5807602
:1040100007F58077B8F10000A8F1010101F0FF0871
:10402000EED14A4631463846FFF78EFF4CE0B8F1F4
:10403000000F18D1A94510DDA9EB050000F0FF0B1A
:104040002A4631463846FFF77FFF2E442F445A4612
:1040500031463846FFF778FF36E02246314638468B
:10406000FFF772FF30E0601B84B22046E11704EBDB
:104070001161C1F30728E11704EB11610912A4EBE8
:10408000012101F0FF092A4631463846FFF75CFF5F
:104090002E442F4409E04FF4807231463846FFF732
:1040A00053FF06F5807607F58077B8F10000A8F198
:1040B000010101F0FF08EED1B9F1000F04D04A462A
:1040C00031463846FFF740FFBDE8F09F70B5054622
:1040D0000C46164601212F48FDF70BF90320FFF788
:1040E000A8FEC4F30740FFF7A4FEC4F30720FFF7C0
:1040F000A0FEE0B2FFF79DFE04E0FF20FFF799FE6F
:1041000028706D1C301EA6F101018EB2F5D101217F
:104110002048FDF7ECF870BD2DE9F04100240025A2
:104120000026002701211B48FDF7E3F89F20FFF739
:1041300080FEFF20FFF77DFE0546FF20FFF779FE9A
:104140000646FF20FFF775FE074601211148FDF7DF
:10415000CEF8280440EA062040EA07042046BDE8DD
:10416000F08110B5002401210A48FDF7C2F8AB2008
:10417000FFF75FFEFF20FFF75CFEFF20FFF759FE11
:10418000FF20FFF756FEFF20FFF753FE04460121F4
:10419000004839E0001001400008014000300140B3
:1041A0003C3C2D464C4153482D4552524F522D3EDA
:1041B0003E2053504920B5C8B4FDB3ACCAB1216507
:1041C00072726F72436F6465203D2025640A00009F
:1041D0004C0000203C3C2D464C4153482D4552524A
:1041E0004F522D3E3E205350495F464C4153485F4D
:1041F00050616765577269746520746F6F206C61D8
:10420000726765210A000000FDF771F8204610BDB5
:1042100010B5044601213248FDF76BF80320FFF783
:1042200008FEC4F30740FFF704FEC4F30720FFF7BE
:1042300000FEE0B2FFF7FDFD10BD10B5FF20FFF757
:10424000F8FD10BD10B504464FF4805025490860B4
:1042500009E024490868411E224A116018B9022069
:10426000FFF7DFFD10BD02211F48FDF702FC00280B
:10427000EFD021461C48FDF7A9FB4FF480501949A7
:10428000086009E017490868411E164A116018B90C
:104290000320FFF7C6FDE5E701211348FDF7E9FB21
:1042A0000028EFD01048FDF793FBDBE710B50121A4
:1042B0000B48FDF71EF8B920FFF7BBFD01210848A8
:1042C000FDF715F810BD10B501210548FDF711F8EF
:1042D000AB20FFF7AEFD01210148FDF708F810BD46
:1042E000001001404C000020003001402DE9F04159
:1042F00080460C461048007820B9FFF739FD0120B0
:104300000D4908702512E6B2A5F1A101C1EB011219
:1043100002EB411106EB4101A1390802C11700EB84
:104320005171CF100548391820224046FFF7CEFEC4
:104330000020BDE8F0810000680000200030180077
:1043400008B501210420FDF7E1F94FF48070ADF8C4
:10435000000010208DF8030003208DF8020069464C
:104360000448FCF717FF4FF480710248FCF7C1FFC7
:1043700008BD00000008014008B54FF4A060FBF73D
:10438000E3FF27208DF8000000208DF801008DF854
:10439000020001208DF803006846FBF7DAFF08BD34
:1043A00000B585B001218804FDF7BDF90121082081
:1043B000FDF7ACF94FF48060ADF8100018208DF8CF
:1043C000130003208DF8120004A9F948FCF7E2FE5F
:1043D0004FF40060ADF8100004208DF8130004A91C
:1043E000F348FCF7D7FE4FF4E13000900020ADF821
:1043F0000400ADF80600ADF80800ADF80C000C2084
:10440000ADF80A006946EB48FDF7ADFB012240F22A
:104410002551E848FDF73FFC012240F22441E548E0
:10442000FDF739FCFFF7A8FF0121E248FDF727FC63
:1044300005B000BD08B501210820FDF767F94FF46C
:104440008070ADF8000010208DF8030003208DF877
:1044500002006946D648FCF79DFE01210820FDF7C1
:1044600055F94FF40070ADF800006946D048FCF7EC
:1044700091FE08BD10B5FFF7DDFFFFF791FF4FF488
:104480000071CB48FCF733FF4FF48071C848FCF74C
:1044900030FF10BD10B54FF40071C548FCF729FF7F
:1044A000C54800F041FD4FF40071C148FCF71FFF03
:1044B00010BD2DE9F04106460C4615461F46BF4883
:1044C000B0F800046FF30E00BC49A1F800043246B6
:1044D000BBA1B84800F085FD1CB915B90120BDE8A5
:1044E000F0814FF47A7107FB01F000F01DFD002010
:1044F000B249B1F80014C1F30E01B04A505411464C
:10450000B1A001F0ADF9AD48B0F800046FF30E00B2
:10451000AA49A1F800040846B0F8000420F40040BD
:10452000A1F80004B4B1ADB12146A44800F04FFE9B
:1045300008B1012000E0002040B929469F4800F062
:1045400046FE08B1012000E0002008B10120C6E7C6
:104550000020C4E744B12146984800F038FE08B175
:104560000120BCE70020BAE72946944800F02FFE5E
:1045700008B10120B3E70020B1E770B500244FF483
:1045800000718B48FCF7B3FE90A001F069F9FFF7CA
:10459000BDFBC08800EB400085B290A12846FFF724
:1045A000E3F8924800F0C0FC28E0214690A001F01A
:1045B00057F9FFF7ABFBC0888004050C93A1284690
:1045C000FFF7D2F84FF4FA73002294A194A0FFF7FA
:1045D00070FF78B1214693A001F042F9FFF796FBF6
:1045E000C08800EB800085B298A12846FFF7BCF890
:1045F000012070BDFFF74EFF601CC4B20A2CD4DB53
:104600000020F6E710B5044624B1012C0AD0022C94
:1046100018D10FE040F6C4138EA280A190A0FFF73E
:1046200048FF10BD40F6C4138AA27CA18FA0FFF7FB
:1046300040FFF6E740F6C41386A278A18EA0FFF7EC
:1046400038FFEEE70020ECE710B58AB08DA1684690
:1046500001F016F9FFF75AFBC088C0EBC00084B226
:104660008DA12046FFF780F84FF4FA7300226BA16A
:104670006846FFF71EFF0AB010BD30B59FB0044674
:104680000D462B46224688A101A801F0F9F841F217
:104690008833002261A101A8FFF70BFF1FB030BDD6
:1046A00070B5A0B004460D4616462B46224683A19F
:1046B00002A8009601F0E4F84FF47A73002257A1A3
:1046C00002A8FFF7F6FE20B070BD10B586B0044614
:1046D0000CB1012000E0002002467EA101A801F0FB
:1046E000CFF84FF4FA7300224CA101A8FFF7E1FEC6
:1046F00006B010BDF0B5B9B006460F4614461D46CB
:10470000642120A800F058FD16B1012E10D107E059
:104710003B4674A274A120A8009401F0B1F808E00F
:104720003B4675A270A120A8009401F0A9F800E012
:1047300000BF00BF052D06DA20AB2A466FA102A8F4
:1047400001F09EF804E020AA71A102A801F098F8F7
:104750004FF47A6372A231A102A8FFF7AAFE39B022
:10476000F0BD70B5BCB004460D461646ECB12B4604
:1047700001226FA11EA801F083F8324671A168469C
:1047800001F07EF84FF4FA73002224A11EA8FFF76F
:1047900090FE58B14FF4FA73002220A16846FFF74B
:1047A00088FE18B101203CB070BDD6E0D2E0000018
:1047B000000C01400048004020A107008C4500206B
:1047C00025730D0A00000000257300000D0A4154F6
:1047D000746573742E2E2E2E2E0D0A0041542074F3
:1047E0006573742E2E2E2E2E0000000080841E0075
:1047F0000D0A415420746573742074696D65202519
:10480000642E2E2E2E2E2E0D0A00000041542074F0
:104810006573742074696D65000000004F4B0000E3
:10482000415400000D0A4154207465737420737460
:1048300061727420757020737563636573732025CE
:10484000642E2E2E2E2E2E0D0A0000004154202004
:104850004F4B00006E6F206368616E67650000005B
:1048600041542B43574D4F44453D310041542B4358
:10487000574D4F44453D320041542B43574D4F4413
:10488000453D330041542B4357444843505F435503
:10489000523D312C3100000041542B4357444843D2
:1048A000505F4355523D310041542B43574A4150CC
:1048B0003D222573222C22257322000041542B43D4
:1048C000575341503D222573222C222573222C312F
:1048D0002C25640041542B4349504D55583D2564C7
:1048E0000000000054435000222573222C2225731F
:1048F000222C2573000000005544500041542B43E6
:10490000495053544152543D25642C2573000000F6
:1049100041542B43495053544152543D2573000098
:10492000414C5245415920434F4E4E45435400009F
:1049300041542B4349505345525645523D25642C12
:104940002573000041542B43495053544F3D257368
:104950000000000000203CB070BD2B460022AFF2EA
:1049600030011EA800F08CFF4FF4FA730022AFF262
:1049700054111EA8FFF79DFDEDE710B54FF4FA7333
:104980000022AFF2681182A0FFF793FDA0B184A1CD
:10499000864800F01CFC08B1022010BD84A18348A9
:1049A00000F015FC08B10320F7E784A17F4800F070
:1049B0000EFC08B10420F0E70020EEE710B500245B
:1049C0004FF4FA730022AFF2AC1171A0FFF771FD42
:1049D000002831D07CA1754800F0F9FB10B144F0FB
:1049E000010401E024F001047BA1704800F0EFFB1A
:1049F00010B144F0020401E024F002047AA16B48F3
:104A000000F0E5FB10B144F0040401E024F00404DC
:104A100079A1664800F0DBFB10B144F0080401E026
:104A200024F0080478A1614800F0D1FB10B144F0F3
:104A3000100401E024F01004204610BD2DE9F041DF
:104A400005460F464FF4FA730022AFF2302172A0F0
:104A5000FFF72FFD73A1554800F0B9FB06460EB1D4
:104A6000B61D02E00020BDE8F081002409E0305DC1
:104A70002855285D222802D10020285503E0601C1B
:104A8000C4B2BC42F3DB00BF0120ECE710B54FF429
:104A9000FA730022AFF27C2164A0FFF70AFD08B987
:104AA000002010BD4FF4FA7364A2AFF2902164A00D
:104AB000FFF7FFFCF5E710B5644800F035FA64A194
:104AC000644800F08EFA644800F02EFA10BD2DE91B
:104AD000F04186B007460C4615461E464FF00008CA
:104AE00047B12246AFF220315A4800F07AFA4FF02F
:104AF00001081CE0052E06DAAB1C324657A101A8BE
:104B000000F0BEFE04E0AA1C59A101A800F0B8FE06
:104B10004FF47A7300225AA101A8FFF7CAFC4FF4A0
:104B20007A73002257A12046FFF7C3FC8046404617
:104B300006B0BDE8F08170B5044600251B48B0F80A
:104B400000046FF30E001949A1F800040846B0F8FC
:104B5000000420F40040A1F8000400BF1348B0F89E
:104B60000004C00B0028F9D000201049B1F800144F
:104B7000C1F30E010D4A50540CB1154605E043A196
:104B80000A4800F024FB00B1084D284670BD000023
:104B900041542B4349505354415455530000000095
:104BA0005354415455533A320D0A00008C450020AD
:104BB0005354415455533A330D0A00005354415451
:104BC00055533A340D0A00002B4349505354415475
:104BD00055533A302C0000002B4349505354415454
:104BE00055533A312C0000002B4349505354415443
:104BF00055533A322C0000002B4349505354415432
:104C000055533A332C0000002B4349505354415420
:104C100055533A342C00000041542B43494653521B
:104C200000000000415049502C22000041542B4309
:104C300049504D4F44453D31000000003E0000000A
:104C400041542B43495053454E44000040420F000D
:104C50002B2B2B000048004020A1070041542B4380
:104C6000495053454E443D25642C25640000000006
:104C700041542B43495053454E443D2564000000A8
:104C80003E20000053454E44204F4B002B495044DA
:104C90000000000010B54E48FFF735F800214FF630
:104CA000FF70FFF736F84B4803884B480288002115
:104CB0000846FEF789FAFFF729F8C48847A120467D
:104CC000FEF752FDFFF722F8C0884004040C4AA109
:104CD0002046FEF749FD4FF480714D48FCF707FB75
:104CE00000BFFFF74AFC0028FBD000BFFFF7ACFC79
:104CF0000028FBD000BF0020FFF784FC0028FAD07A
:104D0000FFF704F8C088C004040C42A12046FEF757
:104D10002BFD00BF45A148A0FFF7AFFC0028F9D04C
:104D2000FEF7F4FFC08800EBC00084B245A1204626
:104D3000FEF71AFD00BF0020FFF7C7FC0028FAD0DD
:104D4000FEF7E4FFC08800EB80004004040C44A19F
:104D50002046FEF709FD00BF052348A249A1002017
:104D6000FFF7C8FC0028F7D0FEF7D0FFC08800EBA3
:104D7000400101EBC00084B246A12046FEF7F4FCDE
:104D800000BFFFF783FE0028FBD0FEF7BFFFC088FF
:104D900000EB40008004040C46A12046FEF7E4FC32
:104DA000FEF7B4FFC08800EB800101EBC00084B2C5
:104DB00049A12046FEF7D8FCFEF7A8FFC088C0EB4B
:104DC000C0004004040C4AA12046FEF7CDFC10BDF3
:104DD000500000203E0000203C000020436F6E6623
:104DE00069677572696E67204553503832363620D0
:104DF0002E2E2E2E2E2E0000456E61626C652045F3
:104E0000535038323636202E2E2E2E2E2E000000F5
:104E1000000C0140436F6E6E656374696E672057C6
:104E20006946692E2E2E2E2E2E2000005A796630CD
:104E30003632332E2E000000496D706172742033BB
:104E4000303300005769466920636F6E6E65637486
:104E50002E2E2E2E2E2E2073756363657373210004
:104E6000436F6E6E656374696E6720536572766515
:104E700072202E2E2E2E2E2E202000003236363876
:104E8000000000003139322E3136382E33312E32C7
:104E90003700000053657276657220636F6E6E6531
:104EA00063742E2E2E2E2E2E202073756363657351
:104EB00073000000456E746572207472616E7370C9
:104EC0006172656E74207472616E736D697373695B
:104ED0006F6E206D6F646500455350383236362052
:104EE000697320636F6E66696775726564000000A0
:104EF00052656164204D5138207375636365737327
:104F0000210000001A48006840F0807018490860CD
:104F10000020184948600846006840F00100086019
:104F2000704714484068704731B500231248006844
:104F3000124DB0FBF5F0009D00FB05F400BFFFF73C
:104F4000F0FF024611E0FFF7ECFF014691420CD062
:104F5000914202D9881A034403E0C2F1FF300844A9
:104F600003440A46A34200D300E0ECE700BF38BD8B
:104F7000FCED00E0001000E00000002040420F00C7
:104F8000F0B503460D461646002729460A2E03D0E3
:104F9000002008702846F0BD33B9302001F8010B1D
:104FA000002008702846F6E7002B03DA2D2001F8D0
:104FB000010B5B4242F210720DE093FBF2F404B974
:104FC00037B104F1300001F8010B04FB1233012763
:104FD0000A2092FBF0F2002AEFDC0020087028463D
:104FE000D9E70FB470B586B006460CA8019073E0FF
:104FF0000B9800785C281CD10B98401C0B90007813
:105000006E2809D072280FD10D213046FCF7A4FE7E
:105010000B98401C0B900BE00A213046FCF79CFEDD
:105020000B98401C0B9003E00B98401C0B9000BFAA
:105030004BE00B980078252840D10B98401C0B9032
:105040000078642818D0732833D1019810C80190D3
:105050000BE021783046FCF77FFE00BF8021304610
:10506000FCF7E8FE0028F9D0641C20780028F0D175
:105070000B98401C0B9020E0019820C801900A2258
:1050800002A92846FFF77CFF02AC0BE021783046EE
:10509000FCF762FE00BF80213046FCF7CBFE002803
:1050A000F9D0641C20780028F0D10B98401C0B909C
:1050B00003E00B98401C0B9000BF06E00B9810F823
:1050C000011B0B903046FCF747FE00BF80213046A5
:1050D000FCF7B0FE0028F9D00B980078002887D1A3
:1050E00006B070BC5DF814FB08B501210820FCF780
:1050F0000DFB2020ADF8000010208DF803000320E8
:105100008DF8020069460F48FCF744F80120ADF81D
:10511000000069460B48FCF73DF80220ADF800009E
:1051200069460848FCF736F820210648FCF7DFF806
:1051300001210448FCF7DBF802210248FCF7D7F80C
:1051400008BD0000000C01402DE9F05F054600207D
:1051500092469B4688460646814640241BE02846E8
:1051600041464746224600F030FA53465A46C01A96
:10517000914110D311461846224600F017FA2D1A15
:1051800067EB01084F4622460120002100F00EFA8D
:1051900017EB00094E41201EA4F10104DFDC484654
:1051A00031462A464346BDE8F09FD2B201E000F8FE
:1051B000012B491EFBD270470022F6E710B51346BB
:1051C0000A4604461946FFF7F0FF204610BD30B5E9
:1051D00005462A460B4612F8010B13F8014B08B19D
:1051E000A042F8D01CB1002802D06D1CF1E728467F
:1051F00030BD2DE9FE4F804681EA0300C00F0C460A
:10520000009021F0004123F00045B8EB0200A941D5
:1052100005D24046214690461C460B46024623F0E6
:105220000040104347D0270DC7F30A00C3F30A51CB
:105230000290401A019040286BDAC3F3130040F447
:10524000801B0098924620B10023D2EB030A63EB47
:105250000B0B01985946C0F14002504600F0A6F9E8
:1052600006460D4650465946019A00F0BEF910EB2D
:1052700008006141002487EA115284EAE7731A4367
:1052800040D0009A62B3019A012A4FEA075215DC16
:10529000001B61EB02014FF0004202EA0752CDE928
:1052A0000042001C41F5801132462B4600F0BEF949
:1052B00003B0BDE8F08F40462146F9E7001B61EBE3
:1052C0000201001C41F5801300185B412018A2F573
:1052D000001747EB030140EAD570B6196D4111E0A4
:1052E0006D084FEA360645EAC0754FEA0752001BC3
:1052F00061EB0201001C41F5801149084FEA3000C2
:105300000019514132462B4603B0BDE8F04F00F082
:105310007EB90098012240000023D0EB020263EB2B
:10532000E073009821464FEAE074B8EB000061EBAF
:105330000401E9E783F000435BE781F0004158E7AF
:105340002DE9FE4F81EA030404F0004421F00041FE
:1053500000944FF0000B23F0004350EA01045ED0AC
:1053600052EA03045BD0C3F30A54C1F30A552C4438
:10537000A4F2F3340194A0FB0254C1F3130141F4ED
:105380008011C3F3130343F4801301FB024400FBB9
:10539000034E840A970A44EA815447EA8357A4FBE0
:1053A000076802958D0A05FB07854FEA932C04FBDD
:1053B0000C542705029D4FEA065847EA1637B5EB0D
:1053C00008056EEB070C870E920E47EA811742EA3A
:1053D0008312A7FB0201B6EB0B0164EB00042B0D5B
:1053E00043EA0C335E1844EB1C50DA465146E7FBA7
:1053F0000201C5F313044FEA0B3343EA14534FEA97
:105400000432019C43EA0603A4F10C040294009CBC
:10541000CDE900B400F00AF903B0BDE8F08F002038
:105420000146F9E72DE9F04D81EA030404F0004B51
:1054300021F0004514464FF0000A23F0004150EAE5
:10544000050220D054EA01021DD0C5F30A570246D6
:10545000C5F31303C1F31300C1F30A5640F48015DA
:1054600043F48013A7EB0608101BD64608F2FD385C
:1054700073EB050002D308F1010801E092185B41CB
:10548000B8F1000F03DA00200146BDE8F08D0020DE
:105490004FF48011064684460EE0171B73EB050798
:1054A00005D3121B63EB050306434CEA010C4908C4
:1054B0004FEA300092185B4150EA0107EDD152EA01
:1054C000030012D082EA040083EA0501084305D0F4
:1054D000101BAB4106D20122002306E000224FF050
:1054E000004302E06FF0010253101AEB06004CEB90
:1054F000085110EB0A0041EB0B01BDE8F04D00F044
:1055000086B80EB540F2334102910021CDE9001179
:105510000A460B4600F08AF803B000BDC1F30A52F8
:1055200010B5C1F3130140F2FF3341F480119A42E8
:1055300001DA002010BD40F233439A42A2F2334216
:1055400003DC524200F041F810BD904010BD000055
:1055500030B5041E71F1000404DB4FF000444042FA
:1055600064EB0101141E73F1000405DB1C464FF0CF
:105570000043524263EB04038B4208BF824230BDBA
:1055800030B50B46014600202022012409E021FA13
:1055900002F59D4205D303FA02F5491B04FA02F510
:1055A0002844151EA2F10102F1DC30BD202A04DBE3
:1055B000203A00FA02F1002070479140C2F1200326
:1055C00020FA03F3194390407047202A04DB203A65
:1055D00021FA02F00021704721FA02F3D040C2F113
:1055E00020029140084319467047202A06DBCB175A
:1055F000203A41FA02F043EAE07306E041FA02F38E
:10560000D040C2F12002914008431946704710B5BE
:10561000141E73F1000408DA401C41F100019218D5
:105620005B411A4301D120F0010010BD2DE9F04D7E
:1056300092469B4611B1B1FA81F202E0B0FA80F2D3
:1056400020329046FFF7B2FF04460F4640EA0A00B8
:1056500041EA0B0153465A46084313D0114653EA18
:10566000010019D0C8F140025046FFF7AEFF0546D1
:105670000E46504659464246FFF798FF084305D06C
:10568000012004E020463946BDE8F08D00200543A6
:1056900046EAE0762C4337430A986305E40AA0EB18
:1056A00008000022FD0A44EA47540A3002D50020CF
:1056B0000146E9E7010510196941DDE908450019CE
:1056C0006941BDE8F04DA2E770B521F00043034306
:1056D0000CD0C1F30A550024D5EB040564EB040398
:1056E000D617AD1AB34102DB0020014670BD201869
:1056F00041EB025170BD0EB5C10F80EAE070084465
:10570000CA07002140F233438DE80E000A460B46DB
:10571000FFF78CFF03B000BDC1F30A52C1F31301C0
:1057200040F2FF3341F480119A4202DA0020014630
:10573000704740F233439A42A2F2334202DC5242B3
:10574000FFF743BFFFF732BF30B5041E71F100040D
:1057500004DB4FF00044404264EB0101141E73F17E
:10576000000405DB1C464FF00043524263EB040388
:10577000994208BF904230BD064C074D06E0E068F4
:1057800040F0010394E8070098471034AC42F6D388
:10579000FAF7D2FC94AD0008B4AD00082DE9F04D45
:1057A00000231A461B1A8A4103DB00200146BDE88C
:1057B000F08DC1F30A52C1F3130141F480154FF08B
:1057C000000BD10702D100186D41521E002704467C
:1057D00040F2FF11384601EB620A3E46804602461F
:1057E00000204FF48011FFF7F0FEC2197141BB1881
:1057F00046EB0100B4EB030C75EB000C04D3E41A88
:1058000065EB000517460E46241908F101006D41AD
:1058100080463428E3DDF91946EB0600091BA84150
:1058200003D24FF0FF32134601E0002213461BEB78
:10583000070046EB0A51BDE8F04DFFF7E8BE000057
:105840000148008870470000000002604FF0C0412E
:10585000088070470149088070470000000002601E
:105860000FB4054B10B503A9044A029800F080F963
:1058700010BC5DF814FB0000F32800089000002025
:105880000FB4084B10B504A902AA039800F070F9F0
:10589000044602A9002000F002FD204610BC5DF87D
:1058A00014FB00009F620008490050EAC12018BFA5
:1058B00004204A0D18BF40F0010040F2FF72B2EB25
:1058C000515F08BF40F00200012808BF0520704763
:1058D0002DE9F0414F1E00EBC7010446D1E900015C
:1058E00015461E4637F006020DD02A463346FFF70E
:1058F00027FD7F1E04EBC703D3E90023FFF779FCE4
:1059000037F00602F1D1022F25D0042F13D0062F35
:1059100018BFBDE8F0812A463346FFF711FDD4E9F0
:105920000A23FFF766FC2A463346FFF709FDD4E950
:105930000823FFF75EFC2A463346FFF701FDD4E952
:105940000623FFF756FC2A463346FFF7F9FCD4E955
:105950000423FFF74EFC2A463346FFF7F1FCD4E957
:105960000223FFF746FC2A463346FFF7E9FCD4E959
:105970000023BDE8F041FFF73CBC000000221346C5
:1059800010460149FFF74EBD0000F03F0122FFF72E
:105990009BBEFFF72EBC0022134610461146FFF7B0
:1059A00041BD40F2013200204FF0E041FFF78CBED4
:1059B000024A00201107FFF787BE000001FDFFFF2C
:1059C00002E008C8121F08C1002AFAD170477047C8
:1059D000002001E001C1121F002AFBD17047000026
:1059E0000149086070470000940000202DE9FF5F26
:1059F00082B00021DDE90430020DDDF840B0034340
:105A000018D044F61050A2F2FF32424315141198F8
:105A100001281FD0A5EB0B00401C5FEA000A4FF0E5
:105A200000064E4FDFF83891B046504615D5CAF102
:105A3000000413E0119801244AA3012801D16FEA60
:105A40000B010298119AC0E90031C0E9024206B088
:105A5000BDE8F09FCBF10000DFE704460021404A9B
:105A6000491842EB0450CDE9001012E0E00707D0DE
:105A700032463B4640464946FFF762FC804689462F
:105A800032463B4610461946FFF75AFC06460F467B
:105A90006410002CEAD1DDE90401DDE90023BAF14C
:105AA000000F06DAFFF74CFC42464B46FFF748FC76
:105AB00005E0FFF7B7FC42464B46FFF7B3FC044650
:105AC0000E460022284BFFF73FFE03D84FF0FF3071
:105AD000014607E00022254B20463146FFF789FBAF
