:020000040800F2
:100000000877002045010008AD290008AF29000845
:10001000B3290008B7290008BB2900080000000028
:10002000000000000000000000000000BF290008E0
:10003000C129000800000000C3290008C5290008E4
:100040005F0100085F0100085F0100085F01000810
:100050005F0100085F010008A52800085F01000893
:100060005F0100085F0100085F0100085F010008F0
:100070005F0100085F0100085F0100085F010008E0
:100080005F0100085F0100085F0100085F010008D0
:100090005F0100085F0100085F0100085F010008C0
:1000A0005F0100085F0100085F0100085F010008B0
:1000B0005F0100085F0100085F0100085F010008A0
:1000C0005F0100085F0100085F0100085F01000890
:1000D0005F010008C72900085F010008392A0008ED
:1000E0005F0100085F0100085F0100085F01000870
:1000F0005F0100085F0100085F0100085F01000860
:100100005F010008BF2A00085F0100085F010008C6
:100110005F0100085F0100085F0100085F0100083F
:100120005F0100085F0100085F0100085F0100082F
:10013000DFF80CD00AF000FB004800478B270008CE
:10014000087700200648804706480047FEE7FEE79C
:10015000FEE7FEE7FEE7FEE7FEE7FEE7FEE7FEE777
:1001600047020008310100080CB500200190009002
:100170006C48006840F480306A49086000BF6948F4
:10018000006800F4003000900198401C0190009835
:1001900018B90198B0F5A06FF1D16248006800F479
:1001A000003010B10120009001E000200090009884
:1001B000012843D15C48006840F010005A490860AB
:1001C0000846006820F0030008600846006840F018
:1001D0000200086053484068524948600846406839
:1001E00048600846406840F48060486008464068BF
:1001F00020F47C1048600846406840F4E8104860ED
:100200000846006840F08070086000BF45480068FC
:1002100000F000700028F9D04248406820F0030048
:10022000404948600846406840F00200486000BF0E
:100230003C48406800F00C000828F9D10CBD10B50E
:10024000FFF792FF10BD10B53648006840F001007E
:1002500034490860084640683449084031494860DC
:1002600008460068324908402E4908600846006880
:1002700020F4802008600846406820F4FE004860B2
:100280004FF41F008860FFF7DAFF4FF00060294944
:10029000086010BD10B5002100200022214B5B68D2
:1002A00003F00C0121B1042906D0082928D107E068
:1002B000214B224C236027E01F4B204C236023E07E
:1002C000184B5B6803F47010164B5B6803F48032C4
:1002D000022303EB904022B9194B4343174C236090
:1002E0000DE0104B5B6803F4003323B1144B434320
:1002F000124C236003E0104B4343104C236003E097
:100300000D4B0E4C236000BF00BF064B5B68C3F370
:1003100003130C4CE15C094B1B68CB40074C23607A
:1003200010BD000000100240002002400000FFF855
:10033000FFFFF6FE08ED00E000127A00000000204A
:1003400000093D000400002031490143314A116099
:10035000704770B5002100230F22C47804B32D4CE0
:10036000246804F4E064C4F5E064210AC1F10403E4
:10037000CA40447804FA03F1847814402143090107
:10038000254C0678A155047804F01F050124AC40E3
:1003900005786D11AD0005F1E025C5F8004109E0D3
:1003A000047804F01F050124AC401C4D067876113A
:1003B00045F8264070BD1A4A0A400243154B1B1FE0
:1003C0001A60704739B1134A121D12680243114B6B
:1003D0001B1D1A6006E00F4A121D126882430D4B66
:1003E0001B1D1A607047042808D14FF0E0210969ED
:1003F00041F004014FF0E022116107E04FF0E021ED
:10040000096921F004014FF0E022116170470000FA
:100410000000FA050CED00E000E400E080E100E0FF
:1004200080FFFF1F10B50446FA48844208D101211D
:10043000401501F013FA0021601501F00FFA17E0E2
:10044000F548844208D10121001501F007FA002186
:10045000201501F003FA0BE0F048844208D1012195
:10046000C80301F0FBF900214FF4004001F0F6F958
:1004700010BD30B50246002000235068E84C2040F3
:100480000D790C6844EA0524204350609068E54CDF
:100490002040D1E902542C434D7944EA45042043DD
:1004A0009060D06A20F470000C7C641EE4B2234398
:1004B00040EA0350D06230BD0021016001714171FA
:1004C0008160C16001210174704721B1826842F0EE
:1004D0000102826003E0826822F0010282607047BC
:1004E00021B1826842F48072826003E0826822F463
:1004F00080728260704710B50023CBB21AB1446895
:100500001C43446002E044689C43446010BD816821
:1005100041F0080181607047014600208A6802F0BE
:1005200008020AB1012000E000207047816841F014
:10053000040181607047014600208A6802F00402CD
:100540000AB1012000E00020704721B1826842F426
:10055000A002826003E0826822F4A00282607047F9
:10056000014600208A6802F480020AB1012000E0FE
:100570000020704710B50A4600210023416821F48D
:100580006041531E41EA4331416010BD21B14268D0
:1005900042F40062426003E0426822F4006242607A
:1005A0007047F0B504460D4600200021092D11DDED
:1005B000E068A5F10A0606EB4607072606FA07F1EA
:1005C0008843A5F10A0606EB460603FA06F108433E
:1005D000E0600CE0206905EB4507072606FA07F105
:1005E000884305EB450603FA06F108432061072A14
:1005F0000FDA606B561E06EB86071F2606FA07F118
:100600008843561E06EB860605FA06F1084360632A
:1006100022E00D2A0FDA206BD61F06EB86071F2675
:1006200006FA07F18843D61F06EB860605FA06F19F
:100630000843206310E0E06AA2F10D0606EB86078E
:100640001F2606FA07F18843A2F10D0606EB86067F
:1006500005FA06F10843E062F0BD21B1826842F478
:100660008012826003E0826822F480128260704708
:100670000146C86C80B2704766484C3000687047CD
:1006800021B1426842F48062426003E0426822F491
:1006900080624260704721B1426842F480524260F9
:1006A00003E0426822F48052426070470A4600210B
:1006B000816821F4E04111438160704721B1826873
:1006C00042F40042826003E0826822F400428260C9
:1006D000704721B1826842F40212826003E08268AE
:1006E00022F4021282607047014600208A6802F4F8
:1006F00000120AB1012000E000207047F0B5044666
:100700001546002000220026092911DDE068A1F12C
:100710000A0707EB470C072707FA0CF29043A1F1F1
:100720000A0707EB470703FA07F21043E0600CE003
:10073000206901EB410C072707FA0CF2904301EB0B
:10074000410703FA07F210432061A06BC0F3015682
:10075000EF1C06F1010CA7EB0C0707EB870C1F271A
:1007600007FA0CF29043EF1C06F1010CA7EB0C0703
:1007700007EB870701FA07F21043A063F0BD10B53D
:100780000A4600210023816B21F44011531E41EAE7
:100790000351816310BD08B5002300930090009BB6
:1007A0000B440093009B1A6008BD08B50246002068
:1007B0000090009201F12800009B184400900098DE
:1007C000006880B208BD0A4600214168164B1940F6
:1007D0001143416070474162826270470A460021BE
:1007E000416821F01F0111434160704740B1094940
:1007F0000831096841F40001064A0832116007E037
:1008000004490831096821F40001024A08321160E4
:10081000704700000024014000280140003C0140D6
:10082000FFFEF0FFFDF7F1FFFFFD3FFF0246002056
:1008300013680B400BB1012000E000207047CA4351
:100840000260704770B502460020002300240B129E
:100850005568CEB205EA060415681D4015B10CB105
:10086000012000E0002070BD00220A12D343036083
:100870007047000001684FF6FE72114001600021D0
:10088000016041608160C1608D49884208D18C4916
:100890000839496841F00F01894A083A51608AE0F5
:1008A00087491431884208D185490839496841F09F
:1008B000F001834A083A51607DE08149283188423D
:1008C00008D17F490839496841F470617C4A083A87
:1008D000516070E07A493C31884208D17849083942
:1008E000496841F47041764A083A516063E07449BE
:1008F0005031884208D172490839496841F4702161
:100900006F4A083A516056E06D496431884208D117
:100910006B490839496841F47001694A083A5160E5
:1009200049E067497831884208D165490839496802
:1009300041F07061624A083A51603CE06149884286
:1009400006D1011F096841F00F01021F116032E05A
:100950005C491431884208D15A49091F096841F09D
:10096000F001584A121F116025E05649283188428B
:1009700008D15449091F096841F47061514A121F96
:10098000116018E04F493C31884208D14D49091F98
:10099000096841F470414B4A121F11600BE049494C
:1009A0005031884207D14749091F096841F4702135
:1009B000444A121F1160704710B50022026847F6C2
:1009C000F0739A430C6A8B6823430C6923434C6988
:1009D00023438C692343CC6923434C6A23438C6AA9
:1009E00023431A430260CB6843600B6883604B6803
:1009F000C36010BD0021016041608160C160016180
:100A000041618161C161016241628162704721B1CE
:100A1000026842F00102026004E002684FF6FE73D1
:100A20001A40026070471AB103680B43036002E08A
:100A300003688B4303607047416070470146486814
:100A400080B2704701460020002201F080531BB1A4
:100A50001C4B083B1A6802E0194B083B1A6802EA73
:100A600001030BB1012000E00020704700F080512D
:100A700019B11449091F086002E01149083948609A
:100A8000704701460020002201F080531BB10D4B3E
:100A9000083B1A6802E00A4B083B1A6802EA0103A5
:100AA0000BB1012000E00020704700F0805119B127
:100AB0000449091F086002E001490839486070478D
:100AC0000800024008040240002044490860091D53
:100AD0000860091D0860091D086041483F4914313C
:100AE0000860704700213D498279002A3AD00A46C1
:100AF000126803689A430B461A600A1D126803685D
:100B00009A430B1D1A60027911440A6803681A435C
:100B10000A60324A0832126803689A432F4B08333E
:100B20001A601A1D126803689A432C4B0C331A6022
:100B30004279102A0ED11A1F126803681A43274BF4
:100B400008331A601A1D126803681A43234B0C33CA
:100B50001A600DE02149427911440A6803681A437A
:100B60000A6005E0027911440A6803689A430A6042
:100B700070470021016001710C21417100218171D8
:100B800070471649103109680143144A1032116048
:100B9000704701460020114A143212680A400AB117
:100BA000012000E0002070470C49143108607047B4
:100BB000014600200022094B1B6803EA0102074B93
:100BC00014331B680B4013B10AB1012000E0002070
:100BD000704702491431086070470000000401406A
:100BE000FFFF0F0030B943F2DB028100A1F1C041E9
:100BF0000A6005E043F2D2028100A1F1C0410A601F
:100C00006FF07042411C8900A1F1C0410A6081006F
:100C1000A1F1C041C1F80421704710280AD1182160
:100C20004FF020421166402151664FF0FC31916631
:100C3000D16610E01821F74A116040214FF02042A0
:100C4000C2F884104FF0FC31F24A083211604FF0C4
:100C50002042C2F88C1070471820EE4920310860FD
:100C600000200906C1F8A4004FF0FC30E949283102
:100C70000860091D0860091D08607047D0E901126D
:100C80001143C268114302691143426911438269E9
:100C90001143C2691143026A1143426A1143826AD5
:100CA0001143C26A1143026B114302689200A2F120
:100CB000C0421160816808290BD101688900A1F147
:100CC000C041096841F0400201688900A1F1C041BA
:100CD0000A60416B0968426B526841EA0211426B3B
:100CE000926841EA0221426B928941EA0241426BD9
:100CF000128A41EA0251426B127D41EA0261426B63
:100D0000926911430268521C9200A2F1C042116024
:100D1000C16AB1F5804F1BD1816B0968826B526843
:100D200041EA0211826B926841EA0221826B128AC7
:100D300041EA0251826B127D41EA0261826B926943
:100D4000114302689200A2F1C042C2F8041107E008
:100D50006FF0704201688900A1F1C041C1F804211F
:100D6000704730B5002100220023446844F0080495
:100D700085682C43C5682C4305692C43456944EAC2
:100D80004524856944EA4531C4692468C5696D68AC
:100D900044EA0524C5692D8944EA0544C5692D7BCB
:100DA00044EA0562046A2468056A6D6844EA052419
:100DB000056A2D8944EA0544056A2D7B44EA0563EA
:100DC0000468102C05D14FF020442166A266E3662A
:100DD00008E0904C21604FF02044C4F888208D4CEE
:100DE0000C34236030BD016841F01001426841EAD3
:100DF0004221826841EA4231864A20321160C1684C
:100E00000968C268526841EA0221C268128941EA4F
:100E10000241C268127B41EA02617E4A28321160B7
:100E2000016909680269526841EA0221026912896E
:100E300041EA02410269127B41EA0261754A2C32A1
:100E40001160416909684269526841EA02214269B8
:100E5000128941EA02414269127B41EA02614FF084
:100E60002042C2F8B01070470021016002214160A9
:100E700000218160C160016141618161C1610162E4
:100E80004FF480514162490081620021C1620163D7
:100E90000F21426B1160426B5160FF21426B9160E8
:100EA0000F21426BD160426B1161426B5161002195
:100EB000426B91610F21826B1160826B5160FF2147
:100EC000826B91600F21826BD160826B1161826BAA
:100ED00051610021826B91617047102101600021F6
:100EE00041608160C160016141618161FC21C26931
:100EF0001160C2695160C2699160C269D160026AC1
:100F00001160026A5160026A9160026AD1607047A2
:100F10000021016041608160FC21C2681160C268EB
:100F20005160C2689160C268D16002691160026953
:100F30005160026991600269D16042691160426941
:100F40005160426991604269D160704751B182003D
:100F5000A2F1C042126842F001038200A2F1C04235
:100F6000136009E08200A2F1C04212682A4B1A40C5
:100F70008300A3F1C0431A60704799B1102808D1CB
:100F80004FF02042126E42F004024FF020431A66E6
:100F90001DE0204A126842F004024FF02043C3F8DB
:100FA000802014E0102809D14FF02042126E1A4B15
:100FB000DB1E1A404FF020431A6608E0154A1268FB
:100FC000154BDB1E1A404FF02043C3F880207047BA
:100FD00048B110492031096841F004014FF0204226
:100FE000C2F8A01009E00B49203109680A4AD21E54
:100FF00011404FF02042C2F8A0107047B9B110283C
:101000000CD14FF02042126E42F040024FF02043CC
:101010001A661FE0800000A0FEFF0F00724A1268EF
:1010200042F040024FF02043C3F8802012E0102825
:1010300008D14FF02042126E6C4B1A404FF0204303
:101040001A6607E0684A1268684B1A404FF020435E
:10105000C3F88020704701460020102903D14FF0CB
:101060002042506F02E0604A14321068704710B599
:10107000F2B1102807D14FF020435B6E0B434FF0C5
:101080002044636632E0B0F5807F08D1564B1B1DCB
:101090001B680B434FF02044C4F8843026E0524BC9
:1010A00024331B680B434FF02044C4F8A4301DE0E8
:1010B000102807D14FF020435B6E8B434FF0204444
:1010C000636613E0B0F5807F08D1474B1B1D1B689A
:1010D0008B434FF02044C4F8843007E0424B243364
:1010E0001B688B434FF02044C4F8A43010BD10B5EA
:1010F000024600200023102A03D14FF02044636EE3
:1011000009E0B2F5807F03D1374C241D236802E04B
:10111000354C2434236803EA01040CB1012000E0BB
:10112000002010BD102807D14FF02042526E8A4394
:101130004FF020435A6613E0B0F5807F08D12A4A69
:10114000121D12688A434FF02043C3F8842007E041
:10115000254A243212688A434FF02043C3F8A42062
:10116000704770B502460020002300240025102A95
:1011700003D14FF02046736E09E0B2F5807F03D1B2
:10118000194E361D336802E0174E2436336803EAE1
:10119000010403EAD10514B10DB1012000E00020E3
:1011A00070BD102808D14FF02042526E22EAD102C1
:1011B0004FF020435A6615E0B0F5807F09D10A4A06
:1011C000121D126822EAD1024FF02043C3F8842096
:1011D00008E0054A2432126822EAD1024FF0204387
:1011E000C3F8A42070470000800000A0BFFF0F00DC
:1011F00010B50446CC48844208D10121042000F0F7
:101200002DFB0021042000F029FB46E0C748844262
:1012100008D10121082000F021FB0021082000F066
:101220001DFB3AE0C248844208D10121102000F0A1
:1012300015FB0021102000F011FB2EE0BD48844278
:1012400008D10121202000F009FB0021202000F01E
:1012500005FB22E0B848844208D10121402000F07B
:10126000FDFA0021402000F0F9FA16E0B34884426C
:1012700008D10121802000F0F1FA0021802000F047
:10128000EDFA0AE0AE48844207D10121801500F052
:10129000E5FA0021A01500F0E1FA10BD10B501211A
:1012A000084600F0DBFA0021012000F0D7FA10BD5B
:1012B0002DE9F041024600250026002000230024ED
:1012C000002791F803C00CF00F0591F803C00CF053
:1012D000100CBCF1000F03D091F802C04CEA0505D8
:1012E00091F800C0BCF1000F31D0146800202BE051
:1012F0004FF0010C0CFA00F3B1F800C00CEA030641
:101300009E4220D183004FF00F0C0CFA03F7BC4330
:1013100005FA03FC4CEA040491F803C0BCF1280F61
:1013200006D14FF0010C0CFA00FCC2F814C00AE020
:1013300091F803C0BCF1480F05D14FF0010C0CFA35
:1013400000FCC2F810C0401C0828D1D31460B1F8CA
:1013500000C0BCF1FF0F34DD546800202EE000F126
:10136000080C4FF0010808FA0CF3B1F800C00CEAC1
:1013700003069E4221D183004FF00F0C0CFA03F7B5
:10138000BC4305FA03FC4CEA040491F803C0BCF129
:10139000280F05D100F1080C08FA0CF8C2F81480E7
:1013A00091F803C0BCF1480F07D100F1080C4FF0D1
:1013B000010808FA0CF8C2F81080401C0828CED3A7
:1013C0005460BDE8F0814FF6FF7101800221817009
:1013D0000421C17070470246002093680B400BB196
:1013E000012000E0002070470146886880B2704705
:1013F00002460020D3680B400BB1012000E0002022
:1014000070470146C86880B270470161704741610A
:1014100070470AB1016100E041617047C1607047E7
:101420004FF480320A4382618161826182698269FC
:10143000704702460020434B18684FF680731840EF
:1014400040EA021008433F4B186070473E49C861AC
:101450007047F0B50A46002300240021002500F063
:101460000046B6F1004F02D1364EF16901E0354E2B
:101470007168C0F3034583B200F44016B6F5401F0F
:1014800008D121F070612F4E766826F070662D4FDE
:101490007E6012E000F48016B6F5801F06D10326A8
:1014A00006FA05F4A14341F0706106E0460D3601ED
:1014B00003FA06F6B14341F0706122B1460D3601E0
:1014C00003FA06F6314300F00046B6F1004F02D1B0
:1014D0001C4EF16101E01B4E7160F0BD30B5002281
:1014E0008B071C0F0F2303FA04F2164B08338C10E2
:1014F00053F824309343134C08348D1044F82530AE
:1015000023468C1053F824308C07240F00FA04F47F
:1015100023430C4C08348D1044F8253030BD0A4963
:10152000DC3108607047000000080140000C0140F9
:10153000001001400014014000180140001C01404F
:10154000002001400000014000002042DF48006808
:1015500040F00100DD49086008464068DC49084069
:10156000DA49486008460068DA490840D749086007
:101570000846006820F4802008600846406820F48F
:10158000FE0048604FF41F0088607047CF4909682B
:1015900021F48031CD4A11601146096821F480217F
:1015A0001160B0F5803F03D0B0F5802F0ED106E07A
:1015B000C649096841F48031C44A116007E0C34953
:1015C000096841F4A021C14A116000E000BF00BFDA
:1015D000704710B501460022002300204A11012A5D
:1015E00002D1BA4C236806E0022A02D1B74C236A22
:1015F00001E0B64C636A01F01F02012494401C40D4
:101600000CB1012000E0002010BD38B50020009092
:101610000024002500BF3120FFF7DBFF05460098BE
:10162000401C00900098B0F5A06F01D0002DF2D0C2
:101630003120FFF7CEFF08B1012400E0002420464E
:1016400038BD01460020A14A106820F0F80040EAA9
:10165000C10010607047A049086070470246002032
:101660009A4B586820F47C1042EA01031843974BC8
:101670005860704798490866704701460020934AB1
:10168000506820F003000843506070478F4840685E
:1016900000F00C007047014600208C4A506820F092
:1016A000F00008435060704701460020874A5068A8
:1016B00020F4E06008435060704701460020834AF0
:1016C000506820F4605040EAC1005060704729B172
:1016D0007E4A527A02437D4B5A7204E07B4A527A28
:1016E00082437A4B5A7270477B49D8310860704701
:1016F00001460020754A506820F44040084350607D
:1017000070470021714A20321170704A82F820100F
:10171000012802D004280AD104E001216B4A2032BA
:10172000117005E00521694A2032117000E000BF08
:1017300000BF70476949086070476449096A0143FE
:10174000624A11627047654944390860704730B594
:1017500000210022002400235C4D6D6805F00C017F
:1017600021B1042905D0082923D105E05C4D05608D
:1017700022E05B4D05601FE0544D6D6805F470126A
:10178000524D6D6805F48034022505EB92421CB978
:10179000544D554305600BE04C4D6D6805F4003524
:1017A0001DB1504D5543056002E04D4D5543056058
:1017B00002E04B4D056000BF00BF444D6D6805F071
:1017C000F0010909484D6B5C0568DD4045603F4DFF
:1017D0006D6805F4E061090A434D6B5C4568DD40C6
:1017E00085603A4D6D6805F46051C90A3E4D6B5CE9
:1017F0004568DD40C560354D6D6805F44041890B95
:101800003A4D6B5CC568B5FBF3F5056130BD29B198
:101810002E4A526902432D4B5A6104E02B4A526909
:1018200082432A4B5A61704729B1284A9269024380
:10183000264B9A6104E0254A92698243234B9A61C0
:10184000704729B1214AD2690243204BDA6104E092
:101850001E4AD26982431D4BDA61704729B11B4A87
:10186000D2680243194BDA6004E0184AD268824316
:10187000164BDA60704729B1144A12690243134BC0
:101880001A6104E0114A12698243104B1A617047D1
:1018900012494039086070470F49C86470470B49C6
:1018A000C87170470948406A40F080700749486233
:1018B000704701460020054A92680A400AB101209B
:1018C00000E0002070470149887270470010024014
:1018D0000000FFF8FFFFF6FE000042428004424293
:1018E00000127A0000093D001400002024000020AE
:1018F00000206F49086048608860C860486288625C
:10190000C8626C4888630020C86370470021684A39
:10191000516847F6FF629143027D83681A4343682A
:101920001A43C3681A4303681A4303691A431143ED
:101930005F4A51607047002101750160416081601C
:10194000C160016170475C49086070475849096887
:1019500021F00301564A11601146096801431160E4
:1019600070475348006800F00300704729B1504A9F
:10197000D26B02434E4BDA6304E04D4AD26B824392
:101980004B4BDA6370474D49086070470021484B64
:1019900002689A601A46D1686FF30A01D0E9012300
:1019A0001A43C3681A4303691A431143404AD1607A
:1019B00070470021016041608160C1600161704732
:1019C0003B480069C0B2704708B50146002000904E
:1019D00037481430084400900098006808BD002182
:1019E000334B02685A6242689A621A46D16A21F001
:1019F000F701D0E902231A4303691A4343691A43E2
:101A000011432B4AD16270474FF0FF310160002132
:101A100041608160C1600161416170472448006B91
:101A20007047234880300068704721498031086042
:101A300070471F48806C7047204914310860704718
:101A40001E491831086070471C491C3108607047F6
:101A50001A492031086070471949086070471849D1
:101A6000091D0860704701218143154A0832116041
:101A7000704713490C3108607047014600200C4A3A
:101A8000526B0A400AB1012000E00020704708496B
:101A90008863704701460020054A526B0A400AB12C
:101AA000012000E000207047014988637047000072
:101AB00000800140FF07C000A00030428C0530428A
:101AC000AC01304210B50446BE48844208D1012121
:101AD0008014FFF7C3FE0021A014FFF7BFFE16E03D
:101AE000B948844208D101210014FFF7C4FE002147
:101AF0002014FFF7C0FE0AE0B448844207D1012158
:101B0000C013FFF7B8FE0021E013FFF7B4FE10BDCD
:101B100010B50022028802F441520B884C882343FE
:101B20008C882343CC8823430C8923434C8923434B
:101B30008C892343CC8923431A430280838B4FF241
:101B4000FF74234083830B8A038210BD2DE9F04F7D
:101B500085B005460C464FF0000902274FF00008FB
:101B60004FF0010B0026B246A88B4FF2400108400F
:101B7000A88302202884B5F81C90A068022801D10F
:101B800000BF38E0A08810B94FF0010B01E04FF022
:101B9000020B8D48854200D100E000BF6846FFF788
:101BA000D6FDDDF800A0E088B0F5007F0AD14FEA4D
:101BB0001A2000EB80004000A168B0FBF1F0401D4E
:101BC00086B20BE04FEA4B10BAFBF0F000EB80005E
:101BD0004000A168B0FBF1F0401D86B20A20B6FBC0
:101BE000F0F606F00108A6EB0800C0F34F074FF629
:101BF000FF7000EA0828022F01DBFF2F02DD022719
:101C00004FF00008E08840EA080038432884A088A4
:101C1000A1890843618808432188084340F4006093
:101C200040EA0909A5F81C9005B0BDE8F08F002135
:101C3000018041808180C180018141818181C18198
:101C40000721018270470021018041808180C1808D
:101C50000221816000218181704721B1028842F018
:101C60004002028004E002884FF6BF731A400280EF
:101C7000704721B1828B42F48062828304E0828BC0
:101C80004FF6FF331A408283704730B5002400239B
:101C90000C110125A540ABB21AB185881D43858082
:101CA00002E085889D43858030BD1AB183880B434F
:101CB000838002E083888B438380704781817047F3
:101CC0000146888970474FF6FF62914204D002882E
:101CD00042F48072028004E002884FF6FF631A40EB
:101CE0000280704721B1828842F00402828004E0C1
:101CF00082884FF6FB731A408280704702884FF249
:101D0000FF731A40028002880A43028070470188EC
:101D100041F480510180704721B1028842F40052A1
:101D2000028004E002884DF6FF731A40028070477B
:101D300002460020012901D0108B00E0908A7047F4
:101D40000146088A7047B1F5804F04D1028842F4F9
:101D50008042028004E002884BF6FF731A40028042
:101D600070470246002013890B400BB1012000E0B0
:101D700000207047CA4302817047F0B50246002038
:101D800000240023002501F00F070126BE40B4B255
:101D90000B1101269E40B3B2968806EA0305168908
:101DA000264016B10DB1012000E00020F0BD10B5B5
:101DB000002201F00F040123A3409AB2D343038110
:101DC00010BD00000030014000380040003C0040E1
:101DD00010B50446FB48844209D101218803FFF76E
:101DE0003DFD00214FF48040FFF738FD32E0F6481A
:101DF000844209D101214804FFF73DFD00214FF441
:101E00000030FFF738FD25E0F048844209D1012178
:101E10008804FFF730FD00214FF48020FFF72BFDF1
:101E200018E0EB48844209D10121C804FFF723FDE3
:101E300000214FF40020FFF71EFD0BE0E54884422F
:101E400008D101210805FFF716FD00214FF480108D
:101E5000FFF711FD10BD2DE9F04786B005460E468F
:101E60000024A24600BFA1460027B08900B100BFF0
:101E70002F462C8A4CF6FF700440F08804432C82D5
:101E8000AC894EF6F3100440B0883189084371895B
:101E900008430443AC81AC8A4FF6FF400440B0894C
:101EA0000443AC8201A8FFF752FCC648874202D126
:101EB000DDF810A001E0DDF80CA0A88900F40040D6
:101EC00040B10AEBCA0000EB0A1031684900B0FBD0
:101ED000F1F807E00AEBCA0000EB0A10316889004C
:101EE000B0FBF1F86420B8FBF0F004012009642194
:101EF00001FB1089A88900F4004040B1322000EBBA
:101F0000C900B0FBF1F000F00700044308E0322004
:101F100000EB09106421B0FBF1F000F00F00044366
:101F20002C8106B0BDE8F0874FF416510160002106
:101F30008180C18001810C21418100218181704714
:101F400010B502460020108A4FF2FF0318400B889C
:101F50004C8823438C882343CC8823431843108226
:101F600010BD0021018041808180C180704721B176
:101F7000828942F40052828104E082894DF6FF7327
:101F80001A4082817047F0B50346002400260025E0
:101F9000002040F66A17B94200D100BF1846C1F3CD
:101FA000421401F01F06012707FA06F5012C01D1A2
:101FB0000C3004E0022C01D1103000E014301AB1D2
:101FC00007682F43076002E00768AF430760F0BD72
:101FD0001AB1838A0B43838202E0838A8B43838214
:101FE0007047028A4FF6F0731A400282028A0A434F
:101FF0000282704782894FF2FF731A408281828980
:102000000A438281704721B1828942F002028281B3
:1020100004E082894FF6FD731A4082817047028A7C
:102020004FF6DF731A400282028A0A430282704727
:1020300021B1028A42F48042028204E0028A4BF615
:10204000FF731A4002827047C1F308028280704712
:1020500001468888C0F308007047818941F001017A
:1020600081817047028BD2B20283028B42EA012245
:1020700002837047028B02F47F420283028B0A4381
:102080000283704721B1828A42F02002828204E0FA
:10209000828A4FF6DF731A408282704721B1828AAA
:1020A00042F01002828204E0828A4FF6EF731A40F7
:1020B0008282704721B1828A42F00802828204E063
:1020C000828A4FF6F7731A408282704721B1828963
:1020D00042F40042828103E08289C2F30E028281CF
:1020E000704721B1828A42F40062828204E0828ACF
:1020F0004FF2FF731A4082827047828A4FF6FB7359
:102100001A408282828A0A438282704721B1828A7F
:1021100042F00202828204E0828A4FF6FD731A4086
:102120008282704702460020B1F5007F00D100BFD7
:1021300013880B400BB1012000E00020704701F430
:102140000072B2F5007F00D100BFCA430280704721
:1021500070B50246002400230025002040F66A16D0
:10216000B14200D100BFC1F3421501F01F030126A7
:1021700006FA03F3012D02D19689334006E0022DC1
:1021800002D1168A334001E0968A33400C120126B0
:1021900006FA04F41688344013B10CB1012000E0B3
:1021A000002070BD10B50022002340F66A14A14241
:1021B00000D100BF0A1201249440A3B2DC43048082
:1021C00010BD0000003801400044004000480040BD
:1021D000004C00400050004001B502E00098401E55
:1021E000009000980028F9D108BD70B59AB0FA485F
:1021F000D0E904532A46F9A101A808F021FB0523E0
:10220000002201A9012002F0C0FEFE480078F0B1D2
:1022100002F0AFFE00BF02F00EFE0446002CFAD022
:10222000042C0FD100BFF8A1FAA002F084FC002812
:10223000F9D000BF0523FAA2FBA1002002F0B8FCF0
:102240000028F7D000BF02F07FFE0028FBD01AB0B4
:1022500070BD30B599B0E048D0E90441F6480CC8EB
:10226000204608F055F92FD201F0AEFFC0880005D6
:10227000040C204601F0BDFF4FF4FC6001F0B3FFF9
:10228000D548D0E904432246ECA1684608F0D8FAC4
:1022900001F09AFFC08800EBC00084B2204601F034
:1022A000A8FF01F091FFC08800EBC00084B269462E
:1022B000204601F0B7FC0020E64908604FF4807129
:1022C000E548FFF7A4F839E04FF4784001F08BFFC0
:1022D000C148D0E904432246D8A1684608F0B0FAC4
:1022E00001F072FFC08800EBC00084B2204601F00C
:1022F00080FF01F069FFC08800EBC00084B269462E
:10230000204601F08FFC01F05FFFC0880005040C3F
:10231000D2A1204601F086FCD8A008F081FA012065
:10232000CC4908602020E24908600120091F0860AC
:1023300002200860C101C848FFF767F819B030BD36
:102340002DE9FC47044617469846D4E908532A4627
:10235000D4E90091484607F02CFFC4E90201D4E912
:102360000A532A46D4E90291484607F022FFCDE9F4
:10237000000102460B46D4E902562846314608F0D1
:1023800031F8C4E90601D4E904532A4638464146E7
:1023900007F0B0FF8146D4E906532A4607F0B0FFA4
:1023A000CDE90001D4E904532A4607F002FFC4E94D
:1023B0000401D4E906532A460020BE4907F09AFFDB
:1023C0008146D4E902532A4607F09AFFC4E9000186
:1023D000D4E90401BDE8FC872DE9FC5FB649888893
:1023E00008F06FF8064632460B46B448FFF7A8FFE0
:1023F000044608F073F8B0498880888808F061F8CE
:1024000006460022AE4B07F0EDFF04464FF0663261
:10241000AC4B07F075FFAC4AC2E9040110464FF01F
:102420006632A84BD0E90461304607F0DBFF8046F6
:1024300009F0C8F804460022A44B07F061FF824669
:10244000A34AA44B07F056FF02460B46CDE9000114
:102450000020A14909F028F95F4AC2E904019F4818
:102460000078012812D11146D1E9044322469CA1EB
:102470009D4808F0E5F99D4B0A229B499C4806F0CF
:102480001BFB9C4908709A4806F01CFCBDE8FC9FA9
:1024900070B501F099FEC08800EB400084B296A1AF
:1024A000204601F0BFFB4FF4FC6001F09CFE624847
:1024B00098A10CC89C4808F0C3F901F085FEC088BB
:1024C00000EB40004004040C204601F092FE01F0B5
:1024D0007BFEC08800EB40004004040C924920467B
:1024E00001F0A0FB4FF4FC6001F07DFE8F4890A14D
:1024F0000CC8944808F0A4F901F066FEC088C0EB4F
:10250000C00084B2204601F074FE01F05DFEC08878
:10251000C0EBC00084B28B49204601F083FB4FF42E
:10252000FC6001F060FE2C48D0E90443224686A1FD
:102530008B4808F085F901F047FEC08800EBC00029
:1025400084B2204601F055FE01F03EFEC08800EB4B
:10255000C00084B28249204601F064FB4FF4FC6065
:1025600001F041FE1C48D0E9064322467DA1824885
:1025700008F066F901F028FEC08800EB80004004F6
:10258000040C204601F035FE01F01EFEC08800EB71
:1025900080004004040C7849204601F043FB01F020
:1025A00013FEC08800EB800101EBC00084B220461E
:1025B00001F01FFE70BD00213E48404AC2E90010F4
:1025C0009160D1601161516100209061D061116210
:1025D00051626A496A48D5E0C8250020487964728A
:1025E0006F67656E20636F6E63656E747261746988
:1025F0006F6E206973203A2025672070706D200D62
:102600000A0000009C0000205A7966303632332ED2
:102610002E000000496D7061727420333033000069
:1026200032363638000000003139322E3136382E3D
:1026300033312E32370000003000002048796472B8
:102640006F67656E20434F4E433A202567207070B8
:102650006D000000400000200008014020202020E4
:1026600020A3A1A3A1A3A15741524E494E4720A3A5
:10267000A1A3A1A3A120202000000000A3A1A3A149
:10268000A3A154686520636F6E63656E7472617494
:10269000696F6E2065786365656473207468652072
:1026A0007468726573686F6C64A3A1A3A1A3A10091
:1026B000140C01400000F03F282600204025002097
:1026C0000000B04066660A4098250020000004C063
:1026D0009A9999999999F13F00002440440000206B
:1026E00025660D0A000000001C2500202C0000209B
:1026F000F810002028000020487964726F67656E2A
:1027000020646574656374696F6E20737973746592
:102710006D000000434F4E43205448523A25672035
:1027200070706D200000000070250020380000202F
:102730006C65616B616765207261746520544852F5
:102740003A2567007A250020487964726F67656EC4
:1027500020434F4E433A25672070706D20000000E3
:10276000842500204C65616B61676520726174652A
:102770003A256720000000008E2500207B14AE471C
:10278000E17A843FC2E90A10704786B002F00AFF7E
:1027900000F06FFA04F0CDFA01224AA14A4805F090
:1027A000B1FF4A490870084600780D2823D14848EF
:1027B00008F036F80022114642A006F01BFF4349FC
:1027C00008700846007888B942A008F029F801226C
:1027D0003CA1002005F096FF3C490870012239A178
:1027E000394805F08FFF3949087011E046A008F01C
:1027F00017F800BFFEE73548007830B1334801785C
:1028000046A008F00DF800BFFEE74EA008F008F85B
:102810000A2256A1594805F0A0FF2C49087002F081
:10282000CFFD00F005FA01F0E9FFFFF7C4FE02F06A
:102830007FF800F0CCFE062000F040FE02F088FC9D
:102840004F4801F0BEFC00214FF6FF7001F0BFFCC5
:102850004C4803884C4802880021084600F012FFCB
:10286000FFF716FE1DE0FFF7B7FDFFF7F2FCFFF7DD
:10287000BCFC4648416A006ACDE904014348C1698D
:102880008069CDE902014248006800904148D0E9E2
:102890000443224640A007F0C3FF6FF07F40FFF7DC
:1028A0009BFCE0E710B50120FEF782F940B13E48FD
:1028B000007880F001003C4908700120FEF789F99A
:1028C00010BD0000303A0000C800002028000020A1
:1028D000F0AD03085344206861732073756363652A
:1028E000737366756C6C7920666F726D6174746554
:1028F00064207468652066696C65207379737465FB
:102900006D21A35C0D0A0000666F726D6174206614
:1029100061696C6564212121200D0A005344206601
:1029200061696C656420746F206D6F756E742066CC
:10293000696C652073797374656D21212128256484
:10294000290D0A00534420737563636573736675BC
:102950006C6C79206D6F756E7465642066696C654A
:102960002073797374656D21200D0A006879647293
:102970006F67656E2E74787400000000F8100020F8
:10298000600000204E0000204C0000209825002010
:1029900040000020C82500202566202564202566EB
:1029A000202566200D0A000044000020704700BF6B
:1029B000FEE700BFFEE700BFFEE700BFFEE770478F
:1029C00070477047704710B540F225513E48FFF7F9
:1029D000BFFBD8B13C48FFF73BFBC4B23B48B0F863
:1029E0000004C0F30E0040F2FF3188420EDA37498E
:1029F000B1F80014C1F30E00411C344AB2F80024AF
:102A000061F30E023149A1F800240C5440F2244134
:102A10002D48FFF79DFB01280DD12C48B0F800048C
:102A200020F4004000F500402849A1F800042648A1
:102A3000FFF70EFBC4B210BD10B540F2255124487B
:102A4000FFF786FBD8B12248FFF702FBC4B221484A
:102A5000B0F80004C0F30E0040F2FF3188420EDAF5
:102A60001C49B1F80014C1F30E00411C194AB2F818
:102A7000002461F30E021749A1F800240C5440F21F
:102A800024411348FFF764FB012817D11148B0F81F
:102A9000000420F4004000F500400E49A1F80004B5
:102AA0000B48FFF7D5FAC4B20BA10A4807F06FFB39
:102AB00008B1012000E000200A49087010BD10B5DF
:102AC00004F0E1F810BD000000380140366E00202F
:102AD00000480040346A0020434C4F5345440D0ADF
:102AE000000000009C00002008B501211020FEF726
:102AF0009BFE3F20ADF8000000208DF803006946E2
:102B00004E48FEF7D5FB08BD00B591B0012108463F
:102B1000FEF77DFE01214802FEF786FE4848FDF7DC
:102B2000A9FE4848069048480790002008900620D3
:102B3000099000200A9080200B9040000C908000AB
:102B40000D9020200E9000020F900020109006A9FA
:102B50003B48FDF731FF01213948FDF758FF0020C0
:102B6000019001208DF808008DF809004FF46020D5
:102B700003900020049006208DF8140001A931482C
:102B80004C38FDF776FC4FF44040FEF7B1FD0523CD
:102B900001220A212B484C38FDF703FD05230222B0
:102BA0000B2128484C38FDF7FCFC052303220C219F
:102BB00024484C38FDF7F5FC052304220D2121485B
:102BC0004C38FDF7EEFC05231A460E211D484C3803
:102BD000FDF7E7FC052306220F211A484C38FDF7C4
:102BE000E0FC012117484C38FDF77AFC012115481B
:102BF0004C38FDF76AFC13484C38FDF788FC00BFE1
:102C000010484C38FDF788FC0028F9D10D484C38A5
:102C1000FDF78CFC00BF0B484C38FDF78CFC0028FE
:102C2000F9D1012107484C38FDF78FFC11B000BDE8
:102C300010B5FFF759FFFFF767FF10BD0010014007
:102C4000080002404C2401402826002008B54FF41B
:102C5000A060FDF779FB25208DF8000001208DF89C
:102C600001008DF802008DF803006846FDF771FB46
:102C700008BD00B585B001210420FEF7D5FD012176
:102C80008803FEF7D1FD4FF40070ADF81000182056
:102C90008DF8130003208DF8120004A95248FEF7A6
:102CA00007FB4FF48060ADF8100004208DF813008E
:102CB00004A94D48FEF7FCFA4FF4E13000900020E3
:102CC000ADF80400ADF80600ADF80800ADF80C0052
:102CD0000C20ADF80A0069464448FFF7BCF8FFF73E
:102CE000B5FF012240F225514048FFF74CF9012180
:102CF0003E48FFF73CF905B000BD70B504460D46EF
:102D000029462046FFF7A0F900BF80212046FFF7A3
:102D100009FA0028F9D070BD2DE9F04107460D46AB
:102D20001646002405E0295D3846FFF7E6FF601CE3
:102D3000C4B2B442F7DB00BF40213846FFF7F2F9D6
:102D40000028F9D0BDE8F08170B506460C46002594
:102D500000BF615D3046FFF7D0FF6D1C605D00284D
:102D6000F7D100BF40213046FFF7DCF90028F9D049
:102D700070BD2DE9F04105460C46260AE7B2314602
:102D80002846FFF761F900BF80212846FFF7CAF9FE
:102D90000028F9D039462846FFF756F900BF8021B0
:102DA0002846FFF7BFF90028F9D0BDE8F08170B5DB
:102DB00004460D46E1B20D48FFF746F900BF8021F9
:102DC0000A48FFF7AFF90028F9D0204670BD10B5CA
:102DD000044600BF20210548FFF7A4F90028F9D0D8
:102DE0000248FFF735F910BD0008014000380140E6
:102DF00001B502E00098401E009000980028F9D12B
:102E000008BD08B501216020FEF70EFD03208DF8F6
:102E1000020018208DF803004FF48040ADF8000048
:102E20006946FE48FEF744FA4FF40040ADF8000052
:102E30006946FA48FEF73CFA0120ADF80000694601
:102E4000F648FEF735FA0220ADF800006946F3486F
:102E5000FEF72EFA8020ADF800006946F048FEF734
:102E600027FA4FF48070ADF800006946EC48FEF791
:102E70001FFA4FF40070ADF800006946E848FEF70D
:102E800017FA4FF48060ADF800006946E448FEF799
:102E90000FFA4FF40060ADF800006946E048FEF715
:102EA00007FA4FF48050ADF800006946DC48FEF7A1
:102EB000FFF94FF40050ADF800006946D848FEF71E
:102EC000F7F94FF48040ADF800006946D448FEF7AA
:102ED000EFF94FF40040ADF800006946D048FEF726
:102EE000E7F94FF48070ADF800006946CB48FEF773
:102EF000DFF94FF40070ADF800006946C748FEF7EF
:102F0000D7F94FF48060ADF800006946C348FEF77A
:102F1000CFF903208DF8020018208DF8030010204F
:102F2000ADF800006946BD48FEF7C2F92020ADF8B3
:102F300000006946B948FEF7BBF98020ADF80000F3
:102F40006946B648FEF7B4F94FF40060ADF80000EA
:102F50006946B248FEF7ACF910208DF80300032053
:102F60008DF802000220ADF800006946AC48FEF77B
:102F70009FF910208DF8030003208DF802004FF414
:102F80008050ADF800006946A448FEF791F908BDED
:102F900000B597B03C2108A807F0EEF81C2101A865
:102FA00007F0EAF801210802FEF731FC0120019048
:102FB0000420039080060790002002900490059062
:102FC00006900890099008200A9010200B9000208D
:102FD0000C900E900F9010904FF4805011900020A4
:102FE00012901390149001A81590169008A8FDF760
:102FF00045FE01210020FDF7A9FF17B000BD10B567
:103000000024042007F002FC00BF8648008800BFAF
:103010008448008807F0F4FB04464FF6FF7000EA8E
:10302000042407F0EDFB044348F25250844201D1DE
:10303000204610BDD32007F0E9FB00BF7948008887
:1030400000BF7848008807F0DBFB04464FF6FF70AE
:1030500000EA042407F0D4FB044349F241308442DF
:1030600001D12046E5E70020E3E710B5FFF7C7FFF1
:103070006D4908800846008849F2413188427CD178
:10308000CF2007F0C3FB002007F0C4FB812007F02E
:10309000C1FB302007F0BEFBED2007F0B7FB64203A
:1030A00007F0B8FB032007F0B5FB122007F0B2FBD6
:1030B000812007F0AFFBE82007F0A8FB852007F090
:1030C000A9FB102007F0A6FB782007F0A3FBCB207C
:1030D00007F09CFB392007F09DFB2C2007F09AFBA2
:1030E000002007F097FB342007F094FB032007F043
:1030F00091FBF72007F08AFB202007F08BFBEA20EA
:1031000007F084FB002007F085FB002007F082FB1E
:10311000B12007F07BFB002007F07CFB1B2007F0B1
:1031200079FBB62007F072FB0A2007F073FBA220A0
:1031300007F070FBC02007F069FB352007F06AFB41
:10314000C12007F063FB112007F064FBC52007F0E6
:103150005DFB452007F05EFB452007F05BFBC720C9
:1031600007F054FBA22007F055FBF22007F04EFBBE
:10317000002007F04FFB262000E0A2E007F046FB0E
:10318000012007F047FBE02007F040FB0F2007F08D
:1031900041FB262007F03EFB242007F03BFB0B20E1
:1031A00007F038FB0E2007F035FB092007F032FB53
:1031B000542007F02FFBA82007F02CFB462007F037
:1031C00029FB0C2007F026FB172007F023FB092022
:1031D00007F020FB0F2007F01DFB072007F01AFB6C
:1031E000002007F017FBE12007F010FB002007F09C
:1031F00011FB192007F00EFB1B2007F00BFB04202E
:1032000007F008FB102007F005FB072007F002FB82
:103210002A2007F0FFFA472008E0000000140140D0
:1032200000180140000002605200002007F0F2FA8E
:10323000392007F0EFFA032007F0ECFA062007F038
:10324000E9FA062007F0E6FA302007F0E3FA382022
:1032500007F0E0FA0F2007F0DDFA362007F0D6FA83
:10326000C82007F0D7FA2A2007F0D0FA002007F08C
:10327000D1FA002007F0CEFA002007F0CBFAEF20B9
:1032800007F0C8FA2B2007F0C1FA002007F0C2FAB5
:10329000002007F0BFFA012007F0BCFA3F2007F03A
:1032A000B9FA3A2007F0B2FA552007F0B3FA112024
:1032B00007F0ACFAFD48FFF79BFD292007F0A6FABE
:1032C000FBE0FB48008848F252518842F8D1CF20F9
:1032D00007F09CFA002007F09DFAC12007F09AFA47
:1032E000302007F097FAED2007F090FA642007F0FD
:1032F00091FA032007F08EFA122007F08BFA812052
:1033000007F088FAE82007F081FA852007F082FAB2
:10331000102007F07FFA782007F07CFACB2007F026
:1033200075FA392007F076FA2C2007F073FA00209E
:1033300007F070FA342007F06DFA022007F06AFAFD
:10334000F72007F063FA202007F064FAEA2007F07C
:103350005DFA002007F05EFA002007F05BFAC0205B
:1033600007F054FA212007F055FAC12007F04EFA71
:10337000112007F04FFAC52007F048FA2D2007F07A
:1033800049FA332007F046FA362007F03FFA0020CA
:1033900007F040FA3A2007F039FA552007F03AFAD8
:1033A000B12007F033FA002007F034FA172007F0B5
:1033B00031FAB62007F02AFA0A2007F02BFAA220E9
:1033C00007F028FAF62007F021FA012007F022FA88
:1033D000302007F01FFAF22007F018FA002007F05B
:1033E00019FA262007F012FA012007F013FAE0205C
:1033F00007F00CFAD02007F00DFA002007F00AFAC7
:10340000022007F007FA072007F004FA0B2007F064
:1034100001FA1A2007F0FEF9312007F0FBF95420D9
:1034200007F0F8F9402007F0F5F9292007F0F2F944
:10343000122007F0EFF9122007F0ECF9122007F044
:10344000E9F9172007F0E6F9E12007F0DFF9D020CD
:1034500007F0E0F9002007F0DDF9022007F0DAF9C3
:10346000072007F0D7F9052007F0D4F9252007F049
:10347000D1F92D2007F0CEF9442007F0CBF94520F3
:1034800007F0C8F91C2007F0C5F9182007F0C2F9A9
:10349000162007F0BFF91C2007F0BCF91D2007F02B
:1034A000B9F9112007F0B2F98048FFF7A1FC2920F3
:1034B00007F0ACF92C2007F0A9F910BD10B50446AF
:1034C000072C00DD10BD7B480470204604EBD07152
:1034D0004910A4EB410139B9F020774908804FF435
:1034E000A0707649088006E04FF4A0707249088009
:1034F000F02072490880362007F088F96C4800886F
:1035000049F24131884205D1082141EA441007F0CF
:1035100081F90AE06648008848F25251884204D195
:10352000002141EA441007F075F92A2007F06EF9EE
:10353000002007F06FF9002007F06CF95E49098858
:10354000491EC1F3072007F065F95B490978491E58
:10355000C8B207F05FF92B2007F058F9002007F0F8
:1035600059F9002007F056F954490988491EC1F35A
:10357000072007F04FF951490978491EC8B207F0F2
:1035800049F92C2007F042F900BF9BE710B5022152
:103590004B48FDF73CFF40F6FF20FFF729FC0221D6
:1035A0004748FDF732FF40F6FF20FFF721FC10BD32
:1035B00010B504462CB14FF480514248FDF727FF67
:1035C00004E04FF480513F48FDF71FFF10BD10B5D8
:1035D000FFF717FCFFF7DCFC0120FFF7E9FFFFF71F
:1035E000D5FFFFF742FD33480078FFF767FF10BDB6
:1035F0002DE9F04104460D4616461F462A2007F0E5
:1036000005F9201207F006F9E0B207F003F9A11955
:10361000491EC1F30F2007F0FDF8A119491EC8B2D9
:1036200007F0F8F82B2007F0F1F8281207F0F2F86D
:10363000E8B207F0EFF8E919491EC1F30F2007F0CF
:10364000E9F8E919491EC8B207F0E4F8BDE8F081CD
:1036500070B504460D4601231A4629462046FFF759
:10366000C7FF70BD70B504460D4600262C2007F03C
:10367000CDF800BF03E0284607F0CCF8761CA64240
:10368000F9D370BD2DE9F04106460F4614461D469C
:103690002B46224639463046FFF7AAFF04FB05F0C9
:1036A00009490988FFF7DEFFBDE8F081FCBF020091
:1036B00052000020500000204C0000204E0000204E
:1036C00000180140001401405A00002070B5054662
:1036D0000C46FE48008885420CDAFD48008884428A
:1036E00008DA21462846FFF7B3FFFA48018801208F
:1036F000FFF7B8FF70BD70B5002400252E2007F03D
:1037000085F800BFF448008807F07AF8044607F00F
:1037100077F8054604F478404FF4FC6101EAC401EF
:10372000084340EAE52070BD70B504460D462946C1
:103730002046FFF78DFFFFF7DEFF0646304670BDDF
:103740002DE9FF4F83B081464FF0000AD34605981C
:10375000A0EB090504990698461ACDF80490049840
:103760000090002D01DD012705E00DB9002702E0E2
:103770004FF0FF376D42002E02DD4FF0010806E0EA
:1037800016B94FF0000802E04FF0FF387642B5421C
:1037900001DD2C4600E034460020029019E0DDE90E
:1037A0000010FFF793FFAA44B344A24505DDAAEB3E
:1037B000040A0198384480B20190A34505DDABEBC3
:1037C000040B0098404480B200900298401C80B2E4
:1037D0000290611C02988842E1DD07B0BDE8F08FDD
:1037E0002DE9F04104460D4616461F46DDF81880C7
:1037F000B8F1000F0CD03B46324629462046FFF771
:10380000F7FE06FB07F0B3490988FFF72BFF27E017
:10381000A019401E82B22B4629462046FFF790FF92
:10382000E819401E83B2A019401E82B2E819401E5A
:1038300081B22046FFF784FFE819401E83B222467A
:1038400029462046FFF77CFFE919491E8BB2A119D2
:10385000491E8AB2A119491E88B22946FFF770FF96
:10386000BDE8F0812DE9F05F05460E4691469B4686
:1038700000240FFA89F70320A0EB49000FFA80FA21
:1038800087E0BBF1000F40D0A0463BE006EB08020A
:1038900091B22A1990B2FFF719FF06EB080291B214
:1038A0002A1B90B2FFF712FF321991B2A5EB080262
:1038B00090B2FFF70BFF321B91B2A5EB080290B25A
:1038C000FFF704FFA6EB080291B22A1B90B2FFF7A4
:1038D000FDFEA6EB080291B22A1990B2FFF7F6FEA0
:1038E000321B91B205EB080290B2FFF7EFFE3219DE
:1038F00091B205EB080290B2FFF7E8FE08F1010073
:103900000FFA80F8B845C1DD2FE0F21991B22A19FB
:1039100090B2FFF7DBFEF21991B22A1B90B2FFF7CB
:10392000D5FE321991B2EA1B90B2FFF7CFFE321BDF
:1039300091B2EA1B90B2FFF7C9FEF21B91B22A1BAB
:1039400090B2FFF7C3FEF21B91B22A1990B2FFF7B3
:10395000BDFE321B91B2EA1990B2FFF7B7FE3219E1
:1039600091B2EA1990B2FFF7B1FE601C04B2BAF14D
:10397000000F05DAA000801D50440FFA80FA07E01E
:10398000E01B80000A3050440FFA80FA781E07B21C
:1039900000BFBC427FF775AFBDE8F09F2DE9F05F37
:1039A000804689461646A6F120001FFA80FA4B4948
:1039B00009688988494A1268D28801FB02F0C11758
:1039C00000EB5171C1F3C7074448006800680AFB67
:1039D000070B42480068C38840480068828849460F
:1039E0004046FFF705FE2C2006F010FF002416E0ED
:1039F000002510E01BF8040080212941084020B177
:103A00003448008806F006FF03E03548008806F0D9
:103A100001FF681CC5B2082DECDB601CC4B2BC42BF
:103A2000E6DBBDE8F09F70B504460D46002624E0B5
:103A300030462A4909688988084424490988884207
:103A400005DD002625480068C088204484B2204651
:103A500022490968C98808441D490988884201DD4E
:103A6000002600242A7821463046FFF797FF6D1C78
:103A70001A4800688088304486B228780028D7D158
:103A800070BD70B505460E46144631E02846134910
:103A90000968898808440D490988884205DD0025A0
:103AA0000E480068C088304486B230460B49096829
:103AB000C988084406490988884201DD0025002696
:103AC000227831462846FFF769FF0BE04C000020C2
:103AD0004E0000205800002000000260540000202A
:103AE0005A000020641CFB4800688088284485B286
:103AF00020780028CAD170BD70B505460E46144620
:103B000024E03046F3490968C9880844F249098825
:103B1000884205DD0026EF4800688088284485B289
:103B20002846EC49096889880844EC490988884294
:103B300001DD00250026227831462846FFF72EFFBA
:103B4000641CE4480068C088304486B220780028AD
:103B5000D7D170BD2DE9F04389B08046894617461C
:103B600010231A4649464046FFF742FD2C2006F036
:103B70004DFE394601A800F017FE002422E001A8FE
:103B800010F814604FF6FF7000EA0626012000EBE3
:103B9000440001A9085C064300250FE04FF40040F3
:103BA0002841304020B1CE48008806F033FE03E0C3
:103BB000CC48008806F02EFE681CC5B2102DEDDB47
:103BC000601CC4B2102CDADB09B0BDE8F0832DE92B
:103BD000F04105460F4614461FE028461030BF4905
:103BE0000988884203DD002507F1100087B23846B6
:103BF0001030B9490988884201DD00250027268850
:103C0000300200EB262086B2324639462846FFF7BE
:103C1000A1FF05F1100085B2A41C20780028DCD19A
:103C2000BDE8F0812DE9F04105460C46002648E04C
:103C300020787E2825DC3046A64909688988084412
:103C4000A6490988884205DD0026A2480068C08888
:103C5000284485B228469F490968C98808449E4976
:103C60000988884201DD0026002522782946304651
:103C7000FFF794FE974800688088304486B2641C41
:103C80001FE03046103095490988884203DD002640
:103C900005F1100085B2284610308F490988884206
:103CA00001DD002600252788380200EB272087B297
:103CB0003A4629463046FFF74DFF06F1100086B21E
:103CC000A41C20780028B3D1BDE8F0812DE9F04193
:103CD00005460E46144648E020787E2825DC284616
:103CE0007C490968898808447C490988884205DD3F
:103CF000002578480068C088304486B2304675494F
:103D00000968C988084474490988884201DD00258A
:103D10000026227831462846FFF740FE6D480068AD
:103D20008088284485B2641C1FE0284610306B4907
:103D30000988884203DD002506F1100086B230466E
:103D4000103065490988884201DD00250026278852
:103D5000380200EB272087B23A4631462846FFF763
:103D6000F9FE05F1100085B2A41C20780028B3D11B
:103D7000BDE8F0812DE9F04106460D4614462CE0E1
:103D80002846103054490988884203DD002506F191
:103D9000100086B23046103050490988884201DD53
:103DA0000026002520787E2809DC22782946304626
:103DB000FFF7F4FD641C05F1100085B20DE02788C3
:103DC000380200EB272087B23A4629463046FFF7F3
:103DD000C1FE05F1100085B2A41C20780028CFD1C7
:103DE000BDE8F0812DE9FC4F0C461E464FEA004A23
:103DF0009AFBF2FA0AF1010ACDF804A04FEA044A4C
:103E00009AFBF6FA0AF1010ACDF800A04FF000097A
:103E1000202801DBBDE8FC8F00FB04FABAF1000F9B
:103E200000D1F7E700FB04FABAF5806F00DBF1E799
:103E300002FB06FABAF1000F00D1EBE702FB06FA2B
:103E4000BAF5804F00DBE5E7274BDDF834A0BAF187
:103E5000000F2BD100211FE0002517E0DDF82CA07A
:103E60001AF801A04FF0800B4BFA05FB0AEA0B0A87
:103E7000BAF1000F02D04FF0010A01E04FF0000A42
:103E800003F801AB05F1010A1FFA8AF5082DE5DBFD
:103E900001F1010A1FFA8AF104FB00FA4FEAEA7BFA
:103EA0000AEB5B7BB1EBEB0FD6DB36E000212BE0BE
:103EB000002523E0DDF82CA01AF801A04FF0800BBC
:103EC0004BFA05FB0AEA0B0ABAF1000F0ED04FF0CD
:103ED000010A0DE0540000204E0000204C0000209C
:103EE000580000205A000020346600204FF0000ADD
:103EF00003F801AB05F1010A1FFA8AF5082DD9DB99
:103F000001F1010A1FFA8AF104FB00FA4FEAEA7B89
:103F10000AEB5B7BB1EBEB0FCADBBC4BBC4F4FF04A
:103F2000000C1AE04FF0000A4FEA194B00FB0B3E61
:103F3000D0460AE00EEB1A4B9BF800B007F808B029
:103F4000DDF804B0DA4408F101089045F2D3DDF859
:103F500000B0D94417440CF1010CB445E2D3DFF8AA
:103F6000B0A2CDF830A0DDF830A00AF1010ACDF8FA
:103F700030A000BF4EE72DE9F05F81468A46144627
:103F80001D46DDE90A6B0027B8462B4622465146FE
:103F90004846FFF72DFB2C2006F038FC00BF14E04C
:103FA0004FF000080EE016F8011B594504D199485E
:103FB000008806F02FFC03E09748008806F02AFCF2
:103FC00008F10108A045EED37F1CAF42E8D3BDE85D
:103FD000F09F2DE9F04F8FB006468846144699466B
:103FE000DDE9185B274669E0304638448B4909888B
:103FF000884204DD002608EB09001FFA80F84046DD
:10400000484487490988884201DD0026B04628785F
:10401000802825DD2746B5F800A04FEA0A2000EBEE
:104020002A201FFA80FA514605A800F0BDFB0121A5
:1040300005AA0E984B46CDE9002002913A46102180
:104040000846FFF7CFFE72484B463A464146CDE957
:10405000000B3046FFF78FFFF01986B2AD1C2DE044
:10406000204604EBD071C1F34F0728782038C0B246
:104070000D9000236B48C288DDE90D015043694A69
:1040800092885043C217049000EB5270654A126840
:1040900002EBE0008DE80B004B463A461821102059
:1040A000FFF7A0FE5A484B463A464146CDE9000B81
:1040B0003046FFF760FFF01986B26D1C28780028A3
:1040C00092D10FB0BDE8F08F2DE9F04F8FB0804650
:1040D0000E4614461F46DDE9185A0E946BE0304632
:1040E00020444E490988884204DD002608EB04007C
:1040F0001FFA80F84046384449490988884201DD62
:104100000026B0462878802825DD0E94B5F800906A
:104110004FEA092000EB29201FFA80F9494604A83C
:1041200000F042FB012104AA0D983B46CDE9002096
:104130000291102108460E9AFFF754FE34483B4680
:10414000CDE9000A314640460E9AFFF714FFF019F8
:1041500086B2AD1C2FE0204604EBD071C1F34F01B5
:104160000E9128782038C0B20C9000232D48C288C8
:10417000DDE90C0150432B4A928800FB02FB4FEA19
:10418000EB700BEB5070274A126802EBE0008DE8F1
:104190000B003B46182110200E9AFFF723FE1C4807
:1041A0003B46CDE9000A314640460E9AFFF7E3FE52
:1041B000F01986B26D1C2878002890D10FB0BDE8A8
:1041C000F08F194908607047174800687047124A15
:1041D0001080104A118070470F4A128802800D4AE1
:1041E00012880A8070470C49088070470949088086
:1041F000704770B50446FFF7E7FFC5882B460748B0
:10420000028821460020FFF73DFA70BD3466002089
:10421000342600205A000020580000204C000020C6
:104220004E000020680000205400002000B587B038
:1042300001210803FDF7F8FA0121D420FDF7F4FA73
:104240000120ADF8040003208DF8060010208DF841
:10425000070001A9FE48FDF72BF82020ADF8040067
:1042600018208DF8070001A9FA48FDF721F8402031
:10427000ADF8040001A9F748FDF71AF88020ADF861
:10428000040001A9F348FDF713F80121F048FDF7F8
:10429000BCF80020ADF808004FF48270ADF80A00B9
:1042A0000020ADF80C000220ADF80E000120ADF8A2
:1042B00010004002ADF812000820ADF814000020F4
:1042C000ADF816000720ADF8180002A9E248FDF786
:1042D0001FFC0121E048FDF7C0FC07B000BD10B590
:1042E00004462146DDA006F09BFA002010BD10B563
:1042F00004464FF48050E54908600AE0E349086845
:10430000411EE24A116020B90020FFF7E8FFC0B269
:1043100010BD0221D048FDF724FD0028EED0214633
:10432000CD48FDF7CBFC4FF48050D84908600AE037
:10433000D6490868411ED54A116020B90120FFF70F
:10434000CEFFC0B2E4E70121C348FDF70AFD002813
:10435000EED0C148FDF7B4FCC0B2D9E710B50024D7
:104360000121BB48FDF753F80520FFF7C0FF00BF50
:10437000FF20FFF7BCFF044604F001000028F7D13E
:104380000121B348FDF741F810BD10B50121B04837
:10439000FDF73DF80620FFF7AAFF0121AC48FDF725
:1043A00034F810BD10B50446FFF7EFFFFFF7D6FF56
:1043B0000121A748FDF72BF82020FFF798FFC4F351
:1043C0000740FFF794FFC4F30720FFF790FFE0B228
:1043D000FFF78DFF01219E48FDF717F8FFF7BEFF9D
:1043E00010BD10B5FFF7D1FF01219948FDF70FF877
:1043F000C720FFF77CFF01219548FDF706F8FFF77E
:10440000ADFF10BD70B505460C461646FFF7BDFF63
:1044100001218F48FCF7FBFF0220FFF768FFC4F380
:104420000740FFF764FFC4F30720FFF760FFE0B227
:10443000FFF75DFFB6F5807F04DD4FF4807694A032
:1044400006F0EEF903E02878FFF751FF6D1C301EEF
:10445000A6F101018EB2F6D101217D48FCF7D5FF0E
:10446000FFF77CFF70BD2DE9F05F07460E4614464E
:104470004FF00008C146C2460025AB4606F0FF0AD1
:10448000CAF10000C5B22046E11704EB1161C1F387
:104490000728E11704EB11610912A4EB012101F0D7
:1044A000FF09BAF1000F20D1B8F1000F05D1224663
:1044B00031463846FFF7A6FF64E009E04FF480720A
:1044C00031463846FFF79EFF06F5807607F5807780
:1044D000B8F10000A8F1010101F0FF08EED14A4651
:1044E00031463846FFF78EFF4CE0B8F1000F18D187
:1044F000A94510DDA9EB050000F0FF0B2A46314667
:104500003846FFF77FFF2E442F445A46314638463F
:10451000FFF778FF36E0224631463846FFF772FF54
:1045200030E0601B84B22046E11704EB1161C1F357
:104530000728E11704EB11610912A4EB012101F036
:10454000FF092A4631463846FFF75CFF2E442F44C8
:1045500009E04FF4807231463846FFF753FF06F505
:10456000807607F58077B8F10000A8F1010101F02D
:10457000FF08EED1B9F1000F04D04A463146384663
:10458000FFF740FFBDE8F09F70B505460C461646A4
:1045900001212F48FCF73BFF0320FFF7A8FEC4F3DF
:1045A0000740FFF7A4FEC4F30720FFF7A0FEE0B228
:1045B000FFF79DFE04E0FF20FFF799FE28706D1CB9
:1045C000301EA6F101018EB2F5D101212048FCF781
:1045D0001CFF70BD2DE9F0410024002500260027B6
:1045E00001211B48FCF713FF9F20FFF780FEFF20EF
:1045F000FFF77DFE0546FF20FFF779FE0646FF2008
:10460000FFF775FE074601211148FCF7FEFE28045E
:1046100040EA062040EA07042046BDE8F08110B5D4
:10462000002401210A48FCF7F2FEAB20FFF75FFEF1
:10463000FF20FFF75CFEFF20FFF759FEFF20FFF78A
:1046400056FEFF20FFF753FE04460121004839E0E3
:104650000010014000080140003001403C3C2D4664
:104660004C4153482D4552524F522D3E3E205350FF
:104670004920B5C8B4FDB3ACCAB1216572726F727E
:10468000436F6465203D2025640A00005C00002023
:104690003C3C2D464C4153482D4552524F522D3EE5
:1046A0003E205350495F464C4153485F5061676517
:1046B000577269746520746F6F206C617267652131
:1046C0000A000000FCF7A1FE204610BD10B504460C
:1046D00001213248FCF79BFE0320FFF708FEC4F3DC
:1046E0000740FFF704FEC4F30720FFF700FEE0B227
:1046F000FFF7FDFD10BD10B5FF20FFF7F8FD10BD61
:1047000010B504464FF480502549086009E024495B
:104710000868411E224A116018B90220FFF7DFFD28
:1047200010BD02211F48FDF71CFB0028EFD02146D9
:104730001C48FDF7C3FA4FF480501949086009E09E
:1047400017490868411E164A116018B90320FFF77F
:10475000C6FDE5E701211348FDF703FB0028EFD074
:104760001048FDF7ADFADBE710B501210B48FCF767
:104770004EFEB920FFF7BBFD01210848FCF745FEBE
:1047800010BD10B501210548FCF741FEAB20FFF735
:10479000AEFD01210148FCF738FE10BD00100140BC
:1047A0005C000020003001402DE9F04180460C46BD
:1047B0001048007820B9FFF739FD01200D49087035
:1047C0002512E6B2A5F1A101C1EB011202EB4111E4
:1047D00006EB4101A1390802C11700EB5171CF105E
:1047E0000548391820224046FFF7CEFE0020BDE8DC
:1047F000F0810000780000200030180008B5012189
:104800000420FDF711F84FF48070ADF8000010207F
:104810008DF8030003208DF8020069460448FCF778
:1048200047FD4FF480710248FCF7F1FD08BD000020
:104830000008014008B54FF4A060FBF785FD272074
:104840008DF8000000208DF801008DF80200012095
:104850008DF803006846FBF77CFD08BD00B585B008
:1048600001218804FCF7EDFF01210820FCF7DCFFA3
:104870004FF48060ADF8100018208DF8130003206D
:104880008DF8120004A9F948FCF712FD4FF40060FE
:10489000ADF8100004208DF8130004A9F348FCF7CC
:1048A00007FD4FF4E13000900020ADF80400ADF8B2
:1048B0000600ADF80800ADF80C000C20ADF80A00B9
:1048C0006946EB48FDF7C7FA012240F22551E84856
:1048D000FDF759FB012240F22441E548FDF753FB67
:1048E000FFF7A8FF0121E248FDF741FB05B000BD3D
:1048F00008B501210820FCF797FF4FF48070ADF850
:10490000000010208DF8030003208DF80200694696
:10491000D648FCF7CDFC01210820FCF785FF4FF4B9
:104920000070ADF800006946D048FCF7C1FC08BD36
:1049300010B5FFF7DDFFFFF791FF4FF40071CB4893
:10494000FCF763FD4FF48071C848FCF760FD10BDB3
:1049500010B54FF40071C548FCF759FDC54800F08B
:1049600041FD4FF40071C148FCF74FFD10BD2DE92A
:10497000F04106460C4615461F46BF48B0F80004F5
:104980006FF30E00BC49A1F800043246BBA1B84841
:1049900000F085FD1CB915B90120BDE8F0814FF488
:1049A0007A7107FB01F000F01DFD0020B249B1F85B
:1049B0000014C1F30E01B04A50541146B1A005F0E5
:1049C0002FFFAD48B0F800046FF30E00AA49A1F81C
:1049D00000040846B0F8000420F40040A1F80004E8
:1049E000B4B1ADB12146A44805F0D1FB08B1012016
:1049F00000E0002040B929469F4805F0C8FB08B1F7
:104A0000012000E0002008B10120C6E70020C4E733
:104A100044B12146984805F0BAFB08B10120BCE733
:104A20000020BAE72946944805F0B1FB08B10120FF
:104A3000B3E70020B1E770B500244FF400718B4854
:104A4000FCF7E3FC90A005F0EBFEFFF7BDFBC08890
:104A500000EB400085B290A12846FFF7E3F89248AA
:104A600000F0C0FC28E0214690A005F0D9FEFFF739
:104A7000ABFBC0888004050C93A12846FFF7D2F851
:104A80004FF4FA73002294A194A0FFF770FF78B15D
:104A9000214693A005F0C4FEFFF796FBC08800EB0B
:104AA000800085B298A12846FFF7BCF8012070BDB0
:104AB000FFF74EFF601CC4B20A2CD4DB0020F6E7DF
:104AC00010B5044624B1012C0AD0022C18D10FE0F5
:104AD00040F6C4138EA280A190A0FFF748FF10BD3E
:104AE00040F6C4138AA27CA18FA0FFF740FFF6E72F
:104AF00040F6C41386A278A18EA0FFF738FFEEE738
:104B00000020ECE710B58AB08DA1684605F098FE4C
:104B1000FFF75AFBC088C0EBC00084B28DA12046CD
:104B2000FFF780F84FF4FA7300226BA16846FFF795
:104B30001EFF0AB010BD30B59FB004460D462B468F
:104B4000224688A101A805F07BFE41F288330022AD
:104B500061A101A8FFF70BFF1FB030BD70B5A0B079
:104B600004460D4616462B46224683A102A800960F
:104B700005F066FE4FF47A73002257A102A8FFF7F2
:104B8000F6FE20B070BD10B586B004460CB1012011
:104B900000E0002002467EA101A805F051FE4FF47E
:104BA000FA7300224CA101A8FFF7E1FE06B010BD88
:104BB000F0B5B9B006460F4614461D46642120A83C
:104BC00005F0DAFA16B1012E10D107E03B4674A2C7
:104BD00074A120A8009405F033FE08E03B4675A2BE
:104BE00070A120A8009405F02BFE00E000BF00BFDC
:104BF000052D06DA20AB2A466FA102A805F020FE9B
:104C000004E020AA71A102A805F01AFE4FF47A630D
:104C100072A231A102A8FFF7AAFE39B0F0BD70B5AB
:104C2000BCB004460D461646ECB12B4601226FA1DE
:104C30001EA805F005FE324671A1684605F000FE8B
:104C40004FF4FA73002224A11EA8FFF790FE58B17A
:104C50004FF4FA73002220A16846FFF788FE18B1CE
:104C600001203CB070BDD6E0D2E00000000C014055
:104C70000048004020A10700346A002025730D0A77
:104C800000000000257300000D0A41547465737420
:104C90002E2E2E2E2E0D0A00415420746573742E74
:104CA0002E2E2E2E0000000080841E000D0A41547E
:104CB00020746573742074696D652025642E2E2E12
:104CC0002E2E2E0D0A0000004154207465737420AE
:104CD00074696D65000000004F4B000041540000F6
:104CE0000D0A4154207465737420737461727420CA
:104CF000757020737563636573732025642E2E2E83
:104D00002E2E2E0D0A000000415420204F4B000093
:104D10006E6F206368616E676500000041542B432D
:104D2000574D4F44453D310041542B43574D4F445F
:104D3000453D320041542B43574D4F44453D3300D0
:104D400041542B4357444843505F4355523D312C07
:104D50003100000041542B4357444843505F4355B2
:104D6000523D310041542B43574A41503D22257357
:104D7000222C22257322000041542B4357534150CB
:104D80003D222573222C222573222C312C256400F0
:104D900041542B4349504D55583D256400000000B7
:104DA00054435000222573222C222573222C257374
:104DB000000000005544500041542B4349505354C7
:104DC0004152543D25642C257300000041542B436F
:104DD000495053544152543D25730000414C5245B3
:104DE000415920434F4E4E454354000041542B43FC
:104DF00049505345525645523D25642C25730000B9
:104E000041542B43495053544F3D2573000000003B
:104E100000203CB070BD2B460022AFF230011EA82E
:104E200005F00EFD4FF4FA730022AFF254111EA8E4
:104E3000FFF79DFDEDE710B54FF4FA730022AFF2D6
:104E4000681182A0FFF793FDA0B184A1864805F008
:104E50009EF908B1022010BD84A1834805F097F99E
:104E600008B10320F7E784A17F4805F090F908B165
:104E70000420F0E70020EEE710B500244FF4FA73A9
:104E80000022AFF2AC1171A0FFF771FD002831D004
:104E90007CA1754805F07BF910B144F0010401E0F4
:104EA00024F001047BA1704805F071F910B144F0C1
:104EB000020401E024F002047AA16B4805F067F9CE
:104EC00010B144F0040401E024F0040479A1664820
:104ED00005F05DF910B144F0080401E024F0080485
:104EE00078A1614805F053F910B144F0100401E0D5
:104EF00024F01004204610BD2DE9F04105460F4670
:104F00004FF4FA730022AFF2302172A0FFF72FFDA9
:104F100073A1554805F03BF906460EB1B61D02E0F7
:104F20000020BDE8F081002409E0305D2855285DAF
:104F3000222802D10020285503E0601CC4B2BC42E4
:104F4000F3DB00BF0120ECE710B54FF4FA73002249
:104F5000AFF27C2164A0FFF70AFD08B9002010BD64
:104F60004FF4FA7364A2AFF2902164A0FFF7FFFC44
:104F7000F5E710B5644800F035FA64A1644800F024
:104F80008EFA644800F02EFA10BD2DE9F04186B08B
:104F900007460C4615461E464FF0000847B122460C
:104FA000AFF220315A4800F07AFA4FF001081CE0C5
:104FB000052E06DAAB1C324657A101A805F040FCCD
:104FC00004E0AA1C59A101A805F03AFC4FF47A7339
:104FD00000225AA101A8FFF7CAFC4FF47A730022FD
:104FE00057A12046FFF7C3FC8046404606B0BDE807
:104FF000F08170B5044600251B48B0F800046FF33B
:105000000E001949A1F800040846B0F8000420F485
:105010000040A1F8000400BF1348B0F80004C00B22
:105020000028F9D000201049B1F80014C1F30E0196
:105030000D4A50540CB1154605E043A10A4805F04D
:10504000A6F800B1084D284670BD000041542B431E
:105050004950535441545553000000005354415497
:1050600055533A320D0A0000346A0020535441541B
:1050700055533A330D0A00005354415455533A34B2
:105080000D0A00002B4349505354415455533A30B4
:105090002C0000002B4349505354415455533A318E
:1050A0002C0000002B4349505354415455533A327D
:1050B0002C0000002B4349505354415455533A336C
:1050C0002C0000002B4349505354415455533A345B
:1050D0002C00000041542B4349465352000000006D
:1050E000415049502C22000041542B4349504D4F10
:1050F00044453D31000000003E00000041542B4378
:10510000495053454E44000040420F002B2B2B00CA
:105110000048004020A1070041542B43495053450B
:105120004E443D25642C25640000000041542B436F
:10513000495053454E443D25640000003E20000088
:1051400053454E44204F4B002B4950440000000073
:1051500010B54E48FFF735F800214FF6FF70FFF706
:1051600036F84B4803884B48028800210846FEF772
:1051700089FAFFF729F8C48847A12046FEF752FDB7
:10518000FFF722F8C0884004040C4AA12046FEF72D
:1051900049FD4FF480714D48FCF737F900BFFFF728
:1051A0004AFC0028FBD000BFFFF7ACFC0028FBD076
:1051B00000BF0020FFF784FC0028FAD0FFF704F8B6
:1051C000C088C004040C42A12046FEF72BFD00BF9E
:1051D00045A148A0FFF7AFFC0028F9D0FEF7F4FF87
:1051E000C08800EBC00084B245A12046FEF71AFD3E
:1051F00000BF0020FFF7C7FC0028FAD0FEF7E4FF4D
:10520000C08800EB80004004040C44A12046FEF757
:1052100009FD00BF052348A249A10020FFF7C8FCF3
:105220000028F7D0FEF7D0FFC08800EB400101EB6B
:10523000C00084B246A12046FEF7F4FC00BFFFF791
:1052400083FE0028FBD0FEF7BFFFC08800EB4000C4
:105250008004040C46A12046FEF7E4FCFEF7B4FFF0
:10526000C08800EB800101EBC00084B249A1204658
:10527000FEF7D8FCFEF7A8FFC088C0EBC0004004D2
:10528000040C4AA12046FEF7CDFC10BD60000020B2
:105290004E0000204C000020436F6E6669677572F7
:1052A000696E672045535038323636202E2E2E2E0A
:1052B0002E2E0000456E61626C65204553503832D9
:1052C0003636202E2E2E2E2E2E000000000C0140F1
:1052D000436F6E6E656374696E6720576946692E09
:1052E0002E2E2E2E2E2000005A7966303632332E86
:1052F0002E000000496D706172742033303300005D
:105300005769466920636F6E6E6563742E2E2E2E6C
:105310002E2E20737563636573732100436F6E6E69
:10532000656374696E6720536572766572202E2EF0
:105330002E2E2E2E2020000032363638000000009F
:105340003139322E3136382E33312E3237000000CB
:1053500053657276657220636F6E6E6563742E2E70
:105360002E2E2E2E2020737563636573730000004C
:10537000456E746572207472616E73706172656ED1
:1053800074207472616E736D697373696F6E206DD2
:105390006F64650045535038323636206973206398
:1053A0006F6E6669677572656400000052656164BE
:1053B000204D5138207375636365737321000000BD
:1053C0001A48006840F080701849086000201849A9
:1053D00048600846006840F00100086070471448C3
:1053E0004068704731B5002312480068124DB0FB89
:1053F000F5F0009D00FB05F400BFFFF7F0FF02464B
:1054000011E0FFF7ECFF014691420CD0914202D926
:10541000881A034403E0C2F1FF30084403440A46FB
:10542000A34200D300E0ECE700BF38BDFCED00E094
:10543000001000E00000002040420F00F0B50346DD
:105440000D461646002729460A2E03D00020087074
:105450002846F0BD33B9302001F8010B0020087058
:105460002846F6E7002B03DA2D2001F8010B5B42FA
:1054700042F210720DE093FBF2F404B937B104F17B
:10548000300001F8010B04FB123301270A2092FBC4
:10549000F0F2002AEFDC002008702846D9E70FB4AC
:1054A00070B586B006460CA8019073E00B980078A2
:1054B0005C281CD10B98401C0B9000786E2809D0FA
:1054C00072280FD10D213046FCF7BEFD0B98401C11
:1054D0000B900BE00A213046FCF7B6FD0B98401C00
:1054E0000B9003E00B98401C0B9000BF4BE00B9817
:1054F0000078252840D10B98401C0B900078642838
:1055000018D0732833D1019810C801900BE021788E
:105510003046FCF799FD00BF80213046FCF702FEC3
:105520000028F9D0641C20780028F0D10B98401C8A
:105530000B9020E0019820C801900A2202A9284679
:10554000FFF77CFF02AC0BE021783046FCF77CFDD6
:1055500000BF80213046FCF7E5FD0028F9D0641C2F
:1055600020780028F0D10B98401C0B9003E00B989A
:10557000401C0B9000BF06E00B9810F8011B0B902D
:105580003046FCF761FD00BF80213046FCF7CAFDC4
:105590000028F9D00B980078002887D106B070BC9D
:1055A0005DF814FB08B501210820FCF73DF9202027
:1055B000ADF8000010208DF8030003208DF80200E4
:1055C00069460F48FBF774FE0120ADF800006946FC
:1055D0000B48FBF76DFE0220ADF800006946084855
:1055E000FBF766FE20210648FBF70FFF0121044868
:1055F000FBF70BFF02210248FBF707FF08BD000085
:10560000000C014008B50020FCF79DF90020FCF7D4
:105610009DF9FCF76DF900214FF48060FCF7F7F875
:105620004FF4F850ADF8000004208DF803006946EF
:10563000FC48FBF73DFE0420ADF800006946FA483F
:10564000FBF736FE08BD08B54FF4C060FAF77CFEE4
:1056500031208DF8000000208DF801008DF8020047
:1056600001208DF803006846FAF773FE08BD10B5F7
:10567000EE48FBF7E7F910BD30B58BB005460C4698
:10568000EB48FBF7F3F90021EA48FBF7C0F9EA48D9
:105690000090019500200290A00803900020049043
:1056A00080200590800006908000079000200890E0
:1056B0004FF40050099000200A906946DD48FBF73E
:1056C0007BF90121DB48FBF7A2F90BB030BD30B507
:1056D0008BB005460C46D648FBF7C8F90021D548E3
:1056E000FBF795F9D4480090019510200290A0088E
:1056F0000390002004908020059080000690800098
:105700000790002008904FF40050099000200A9064
:105710006946C848FBF750F90121C648FBF777F9FD
:105720000BB030BD08B501213020FCF77DF84FF4F7
:10573000F850ADF8000003208DF8020018208DF815
:1057400003006946B748FBF7B3FD0420ADF800003D
:105750006946B548FBF7ACFD01218802FCF757F814
:1057600001210220FCF753F808BD014600BFB248F2
:105770008038406B00F045000028F8D040F2FF5020
:10578000AD4A803A90631046406908221040C0B28A
:1057900070472DE9FC4107460D46002600240020F5
:1057A000009001900820A549086010204860402022
:1057B00088600020C8604FF4806008610846FCF7EC
:1057C000E5F81020FFF7D1FF044614B12046BDE8EC
:1057D000FC819B4800880004984908603720486095
:1057E000402088600020C8604FF48060086108464F
:1057F000FCF7CCF83720FFF7B8FF04460CB1204681
:10580000E5E74FF0FF308F490860082048603020FE
:1058100088600220C86000200861012048610846B5
:10582000FCF7DDF8002085490860332048604020FF
:1058300088600020C8604FF4806008610846FCF76B
:10584000A5F83320FFF791FF04460CB12046BEE7D0
:105850000CE04FF40010FCF710F938B1FCF7E1F858
:105860004DF82600761C012E00D907E072488038DA
:10587000406B40F22A6108400028EAD000BF0820AF
:10588000FCF7FBF828B10820FCF701F904242046B6
:105890009DE70220FCF7F1F828B10220FCF7F7F8A9
:1058A0000224204693E72020FCF7E7F828B12020C7
:1058B000FCF7EDF80624204689E74FF40070FCF76A
:1058C000DCF830B14FF40070FCF7E1F80724204613
:1058D0007DE740F2FF50FCF7DAF8009800060099E7
:1058E00001F47F4140EA0120009901F47F0140EA80
:1058F0001120009940EA1160686001980006019942
:1059000001F47F4140EA0120019901F47F0140EA5E
:105910001120019940EA11602860204657E77CB5C4
:1059200005460024002000900190FCF74DF800F09F
:10593000007010B10E2420467CBD4149098888B210
:105940006946FFF726FF04460CB12046F4E7012D17
:1059500036D1019800F4802000282ED038480088E5
:1059600000043649086037204860402088600020E5
:10597000C860A80208610846FCF708F83720FFF75E
:10598000F4FE04460CB12046D6E702202B490860FD
:1059900006204860402088600020C8604FF4806086
:1059A00008610846FBF7F2FF0620FFF7DEFE04461B
:1059B0000CB12046C0E72046BEE725242046BBE7C1
:1059C000019800F48030F8B31D48008800041B499A
:1059D000086037204860402088600020C8604FF48D
:1059E000806008610846FBF7D1FF3720FFF7BDFE56
:1059F00004460CB120469FE70020104908600620AD
:105A00004860402088600020C8604FF480600861D2
:105A10000846FBF7BBFF0620FFF7A7FE0446A4B12C
:105A2000204689E7001001400014014000200010CA
:105A300000F000104404024080800140D872002031
:105A4000A4000020EC72002001E0204674E7252429
:105A5000204671E770B504460025FA48006803281F
:105A600002D12725284670BDF648006838B1F548B0
:105A70000068012803D0F348006802282ED1B4F54D
:105A8000805F02D127252846EDE7B4F5006F14D1D9
:105A90000120FFF744FF054605BB0120EA490875D0
:105AA00000200860486088604FF40060C8600020F3
:105AB00008610846FBF72AFF10E00020FFF72FFFE0
:105AC00005465DB90120E04908750020086048607E
:105AD0008860C86008610846FBF718FF2846C2E7DF
